{
    "contractName": "NFTMarketplace",
    "abi": [
        {
            "inputs": [
                {
                    "internalType": "address",
                    "name": "nftAddress",
                    "type": "address"
                },
                {
                    "internalType": "uint256",
                    "name": "tokenId",
                    "type": "uint256"
                }
            ],
            "name": "AlreadyListed",
            "type": "error"
        },
        {
            "inputs": [
                {
                    "internalType": "address",
                    "name": "nftAddress",
                    "type": "address"
                }
            ],
            "name": "CollectionAlreadyRegistered",
            "type": "error"
        },
        {
            "inputs": [],
            "name": "NoProceeds",
            "type": "error"
        },
        {
            "inputs": [],
            "name": "NotApprovedForMarketplace",
            "type": "error"
        },
        {
            "inputs": [
                {
                    "internalType": "address",
                    "name": "nftAddress",
                    "type": "address"
                },
                {
                    "internalType": "uint256",
                    "name": "tokenId",
                    "type": "uint256"
                }
            ],
            "name": "NotListed",
            "type": "error"
        },
        {
            "inputs": [],
            "name": "NotOwner",
            "type": "error"
        },
        {
            "inputs": [],
            "name": "PriceMustBeAboveZero",
            "type": "error"
        },
        {
            "inputs": [
                {
                    "internalType": "address",
                    "name": "nftAddress",
                    "type": "address"
                },
                {
                    "internalType": "uint256",
                    "name": "tokenId",
                    "type": "uint256"
                },
                {
                    "internalType": "uint256",
                    "name": "price",
                    "type": "uint256"
                }
            ],
            "name": "PriceNotMet",
            "type": "error"
        },
        {
            "anonymous": false,
            "inputs": [
                {
                    "indexed": true,
                    "internalType": "string",
                    "name": "name",
                    "type": "string"
                },
                {
                    "indexed": true,
                    "internalType": "address",
                    "name": "nftAddress",
                    "type": "address"
                },
                {
                    "indexed": true,
                    "internalType": "address",
                    "name": "from",
                    "type": "address"
                }
            ],
            "name": "CollectionRegistered",
            "type": "event"
        },
        {
            "anonymous": false,
            "inputs": [
                {
                    "indexed": true,
                    "internalType": "uint256",
                    "name": "tokenId",
                    "type": "uint256"
                },
                {
                    "indexed": true,
                    "internalType": "address",
                    "name": "nftAddress",
                    "type": "address"
                },
                {
                    "indexed": true,
                    "internalType": "address",
                    "name": "buyer",
                    "type": "address"
                },
                {
                    "indexed": false,
                    "internalType": "uint256",
                    "name": "price",
                    "type": "uint256"
                }
            ],
            "name": "ItemBought",
            "type": "event"
        },
        {
            "anonymous": false,
            "inputs": [
                {
                    "indexed": true,
                    "internalType": "uint256",
                    "name": "tokenId",
                    "type": "uint256"
                },
                {
                    "indexed": true,
                    "internalType": "address",
                    "name": "nftAddress",
                    "type": "address"
                },
                {
                    "indexed": true,
                    "internalType": "address",
                    "name": "seller",
                    "type": "address"
                }
            ],
            "name": "ItemCanceled",
            "type": "event"
        },
        {
            "anonymous": false,
            "inputs": [
                {
                    "indexed": true,
                    "internalType": "uint256",
                    "name": "tokenId",
                    "type": "uint256"
                },
                {
                    "indexed": true,
                    "internalType": "address",
                    "name": "nftAddress",
                    "type": "address"
                },
                {
                    "indexed": true,
                    "internalType": "address",
                    "name": "seller",
                    "type": "address"
                },
                {
                    "indexed": false,
                    "internalType": "uint256",
                    "name": "price",
                    "type": "uint256"
                }
            ],
            "name": "ItemListed",
            "type": "event"
        },
        {
            "anonymous": false,
            "inputs": [
                {
                    "indexed": true,
                    "internalType": "address",
                    "name": "previousOwner",
                    "type": "address"
                },
                {
                    "indexed": true,
                    "internalType": "address",
                    "name": "newOwner",
                    "type": "address"
                }
            ],
            "name": "OwnershipTransferred",
            "type": "event"
        },
        {
            "inputs": [],
            "name": "owner",
            "outputs": [
                {
                    "internalType": "address",
                    "name": "",
                    "type": "address"
                }
            ],
            "stateMutability": "view",
            "type": "function"
        },
        {
            "inputs": [],
            "name": "renounceOwnership",
            "outputs": [],
            "stateMutability": "nonpayable",
            "type": "function"
        },
        {
            "inputs": [
                {
                    "internalType": "address",
                    "name": "newOwner",
                    "type": "address"
                }
            ],
            "name": "transferOwnership",
            "outputs": [],
            "stateMutability": "nonpayable",
            "type": "function"
        },
        {
            "inputs": [
                {
                    "internalType": "address",
                    "name": "nftAddress",
                    "type": "address"
                },
                {
                    "internalType": "uint256",
                    "name": "tokenId",
                    "type": "uint256"
                },
                {
                    "internalType": "uint256",
                    "name": "price",
                    "type": "uint256"
                }
            ],
            "name": "listItem",
            "outputs": [],
            "stateMutability": "nonpayable",
            "type": "function"
        },
        {
            "inputs": [
                {
                    "internalType": "address",
                    "name": "nftAddress",
                    "type": "address"
                },
                {
                    "internalType": "uint256",
                    "name": "tokenId",
                    "type": "uint256"
                },
                {
                    "internalType": "uint256",
                    "name": "newPrice",
                    "type": "uint256"
                }
            ],
            "name": "updateListing",
            "outputs": [],
            "stateMutability": "nonpayable",
            "type": "function"
        },
        {
            "inputs": [
                {
                    "internalType": "address",
                    "name": "nftAddress",
                    "type": "address"
                },
                {
                    "internalType": "uint256",
                    "name": "tokenId",
                    "type": "uint256"
                }
            ],
            "name": "cancelListing",
            "outputs": [],
            "stateMutability": "nonpayable",
            "type": "function"
        },
        {
            "inputs": [
                {
                    "internalType": "address",
                    "name": "nftAddress",
                    "type": "address"
                },
                {
                    "internalType": "uint256",
                    "name": "tokenId",
                    "type": "uint256"
                }
            ],
            "name": "buyItem",
            "outputs": [],
            "stateMutability": "payable",
            "type": "function"
        },
        {
            "inputs": [],
            "name": "withdrawProceeds",
            "outputs": [],
            "stateMutability": "nonpayable",
            "type": "function"
        },
        {
            "inputs": [
                {
                    "internalType": "string",
                    "name": "name",
                    "type": "string"
                },
                {
                    "internalType": "string",
                    "name": "description",
                    "type": "string"
                },
                {
                    "internalType": "address",
                    "name": "nftAddress",
                    "type": "address"
                },
                {
                    "internalType": "string",
                    "name": "authorName",
                    "type": "string"
                }
            ],
            "name": "addCollection",
            "outputs": [],
            "stateMutability": "nonpayable",
            "type": "function"
        },
        {
            "inputs": [
                {
                    "internalType": "string",
                    "name": "name",
                    "type": "string"
                },
                {
                    "internalType": "string",
                    "name": "description",
                    "type": "string"
                },
                {
                    "internalType": "address",
                    "name": "nftAddress",
                    "type": "address"
                },
                {
                    "internalType": "string",
                    "name": "authorName",
                    "type": "string"
                }
            ],
            "name": "addPrivateCollection",
            "outputs": [],
            "stateMutability": "nonpayable",
            "type": "function"
        },
        {
            "inputs": [
                {
                    "internalType": "address",
                    "name": "nftAddress",
                    "type": "address"
                },
                {
                    "internalType": "uint256",
                    "name": "tokenId",
                    "type": "uint256"
                }
            ],
            "name": "getListing",
            "outputs": [
                {
                    "components": [
                        {
                            "internalType": "uint256",
                            "name": "price",
                            "type": "uint256"
                        },
                        {
                            "internalType": "address",
                            "name": "seller",
                            "type": "address"
                        }
                    ],
                    "internalType": "struct NFTMarketplace.Listing",
                    "name": "",
                    "type": "tuple"
                }
            ],
            "stateMutability": "view",
            "type": "function"
        },
        {
            "inputs": [
                {
                    "internalType": "address",
                    "name": "seller",
                    "type": "address"
                }
            ],
            "name": "getProceeds",
            "outputs": [
                {
                    "internalType": "uint256",
                    "name": "",
                    "type": "uint256"
                }
            ],
            "stateMutability": "view",
            "type": "function"
        },
        {
            "inputs": [],
            "name": "getCollectionCount",
            "outputs": [
                {
                    "internalType": "uint256",
                    "name": "count",
                    "type": "uint256"
                }
            ],
            "stateMutability": "view",
            "type": "function"
        },
        {
            "inputs": [
                {
                    "internalType": "uint256",
                    "name": "index",
                    "type": "uint256"
                }
            ],
            "name": "getCollectionAtIndex",
            "outputs": [
                {
                    "components": [
                        {
                            "internalType": "string",
                            "name": "name",
                            "type": "string"
                        },
                        {
                            "internalType": "string",
                            "name": "description",
                            "type": "string"
                        },
                        {
                            "internalType": "address",
                            "name": "nftAddress",
                            "type": "address"
                        },
                        {
                            "internalType": "string",
                            "name": "authorName",
                            "type": "string"
                        },
                        {
                            "internalType": "address",
                            "name": "authorAddress",
                            "type": "address"
                        },
                        {
                            "internalType": "uint256",
                            "name": "index",
                            "type": "uint256"
                        },
                        {
                            "internalType": "bool",
                            "name": "custom",
                            "type": "bool"
                        }
                    ],
                    "internalType": "struct NFTMarketplace.Collection",
                    "name": "",
                    "type": "tuple"
                }
            ],
            "stateMutability": "view",
            "type": "function"
        },
        {
            "inputs": [
                {
                    "internalType": "address",
                    "name": "contractAddress",
                    "type": "address"
                }
            ],
            "name": "getCollectionByAddress",
            "outputs": [
                {
                    "components": [
                        {
                            "internalType": "string",
                            "name": "name",
                            "type": "string"
                        },
                        {
                            "internalType": "string",
                            "name": "description",
                            "type": "string"
                        },
                        {
                            "internalType": "address",
                            "name": "nftAddress",
                            "type": "address"
                        },
                        {
                            "internalType": "string",
                            "name": "authorName",
                            "type": "string"
                        },
                        {
                            "internalType": "address",
                            "name": "authorAddress",
                            "type": "address"
                        },
                        {
                            "internalType": "uint256",
                            "name": "index",
                            "type": "uint256"
                        },
                        {
                            "internalType": "bool",
                            "name": "custom",
                            "type": "bool"
                        }
                    ],
                    "internalType": "struct NFTMarketplace.Collection",
                    "name": "",
                    "type": "tuple"
                }
            ],
            "stateMutability": "view",
            "type": "function"
        }
    ],
    "bytecode": "0x60806040523480156200001157600080fd5b5060016000819055506200003a6200002e6200004060201b60201c565b6200004860201b60201c565b6200010e565b600033905090565b6000600160009054906101000a900473ffffffffffffffffffffffffffffffffffffffff16905081600160006101000a81548173ffffffffffffffffffffffffffffffffffffffff021916908373ffffffffffffffffffffffffffffffffffffffff1602179055508173ffffffffffffffffffffffffffffffffffffffff168173ffffffffffffffffffffffffffffffffffffffff167f8be0079c531659141344cd1fd0a4f28419497f9722a3daafe3b4186f6b6457e060405160405180910390a35050565b61344f806200011e6000396000f3fe6080604052600436106100e85760003560e01c80638da5cb5b1161008a578063b9828c5911610059578063b9828c59146102ab578063f002804a146102e8578063f2fde38b14610325578063f772adf11461034e576100e8565b80638da5cb5b146102245780639038e6931461024f5780639f37092a14610266578063b2ddee0614610282576100e8565b8063496b2a56116100c6578063496b2a561461017e578063715018a6146101a757806388700d1c146101be57806389bfd38f146101fb576100e8565b8063181cb0b4146100ed5780631c10106f1461011657806330cfeda914610141575b600080fd5b3480156100f957600080fd5b50610114600480360381019061010f919061291c565b610377565b005b34801561012257600080fd5b5061012b610857565b60405161013891906129f0565b60405180910390f35b34801561014d57600080fd5b5061016860048036038101906101639190612a0b565b610864565b60405161017591906129f0565b60405180910390f35b34801561018a57600080fd5b506101a560048036038101906101a0919061291c565b6108ad565b005b3480156101b357600080fd5b506101bc610d8d565b005b3480156101ca57600080fd5b506101e560048036038101906101e09190612a64565b610e15565b6040516101f29190612af1565b60405180910390f35b34801561020757600080fd5b50610222600480360381019061021d9190612b0c565b610ee0565b005b34801561023057600080fd5b5061023961133a565b6040516102469190612b6e565b60405180910390f35b34801561025b57600080fd5b50610264611364565b005b610280600480360381019061027b9190612a64565b6114d7565b005b34801561028e57600080fd5b506102a960048036038101906102a49190612a64565b611909565b005b3480156102b757600080fd5b506102d260048036038101906102cd9190612b89565b611be9565b6040516102df9190612cfa565b60405180910390f35b3480156102f457600080fd5b5061030f600480360381019061030a9190612a0b565b611f0d565b60405161031c9190612cfa565b60405180910390f35b34801561033157600080fd5b5061034c60048036038101906103479190612a0b565b6121ed565b005b34801561035a57600080fd5b5061037560048036038101906103709190612b0c565b6122e4565b005b81600060028054905011801561041a57508073ffffffffffffffffffffffffffffffffffffffff16600460008373ffffffffffffffffffffffffffffffffffffffff1673ffffffffffffffffffffffffffffffffffffffff16815260200190815260200160002060020160009054906101000a900473ffffffffffffffffffffffffffffffffffffffff1673ffffffffffffffffffffffffffffffffffffffff16145b1561045c57806040517f5359f0090000000000000000000000000000000000000000000000000000000081526004016104539190612b6e565b60405180910390fd5b6104646125fb565b73ffffffffffffffffffffffffffffffffffffffff1661048261133a565b73ffffffffffffffffffffffffffffffffffffffff16146104d8576040517f08c379a00000000000000000000000000000000000000000000000000000000081526004016104cf90612d79565b60405180910390fd5b6002839080600181540180825580915050600190039060005260206000200160009091909190916101000a81548173ffffffffffffffffffffffffffffffffffffffff021916908373ffffffffffffffffffffffffffffffffffffffff16021790555084600460008573ffffffffffffffffffffffffffffffffffffffff1673ffffffffffffffffffffffffffffffffffffffff168152602001908152602001600020600001908161058a9190612fa5565b5083600460008573ffffffffffffffffffffffffffffffffffffffff1673ffffffffffffffffffffffffffffffffffffffff16815260200190815260200160002060010190816105da9190612fa5565b5082600460008573ffffffffffffffffffffffffffffffffffffffff1673ffffffffffffffffffffffffffffffffffffffff16815260200190815260200160002060020160006101000a81548173ffffffffffffffffffffffffffffffffffffffff021916908373ffffffffffffffffffffffffffffffffffffffff16021790555081600460008573ffffffffffffffffffffffffffffffffffffffff1673ffffffffffffffffffffffffffffffffffffffff16815260200190815260200160002060030190816106ab9190612fa5565b5033600460008573ffffffffffffffffffffffffffffffffffffffff1673ffffffffffffffffffffffffffffffffffffffff16815260200190815260200160002060040160006101000a81548173ffffffffffffffffffffffffffffffffffffffff021916908373ffffffffffffffffffffffffffffffffffffffff160217905550600160028054905061073f91906130a6565b600460008573ffffffffffffffffffffffffffffffffffffffff1673ffffffffffffffffffffffffffffffffffffffff168152602001908152602001600020600501819055506001600460008573ffffffffffffffffffffffffffffffffffffffff1673ffffffffffffffffffffffffffffffffffffffff16815260200190815260200160002060060160006101000a81548160ff0219169083151502179055503373ffffffffffffffffffffffffffffffffffffffff168373ffffffffffffffffffffffffffffffffffffffff168660405161081c9190613116565b60405180910390207f3a0c95a7b8facdb0043f0c59befe4db667cc20b17843f4b091ece39c4a801aba60405160405180910390a45050505050565b6000600280549050905090565b6000600760008373ffffffffffffffffffffffffffffffffffffffff1673ffffffffffffffffffffffffffffffffffffffff168152602001908152602001600020549050919050565b81600060038054905011801561095057508073ffffffffffffffffffffffffffffffffffffffff16600460008373ffffffffffffffffffffffffffffffffffffffff1673ffffffffffffffffffffffffffffffffffffffff16815260200190815260200160002060020160009054906101000a900473ffffffffffffffffffffffffffffffffffffffff1673ffffffffffffffffffffffffffffffffffffffff16145b1561099257806040517f5359f0090000000000000000000000000000000000000000000000000000000081526004016109899190612b6e565b60405180910390fd5b61099a6125fb565b73ffffffffffffffffffffffffffffffffffffffff166109b861133a565b73ffffffffffffffffffffffffffffffffffffffff1614610a0e576040517f08c379a0000000000000000000000000000000000000000000000000000000008152600401610a0590612d79565b60405180910390fd5b6002839080600181540180825580915050600190039060005260206000200160009091909190916101000a81548173ffffffffffffffffffffffffffffffffffffffff021916908373ffffffffffffffffffffffffffffffffffffffff16021790555084600460008573ffffffffffffffffffffffffffffffffffffffff1673ffffffffffffffffffffffffffffffffffffffff1681526020019081526020016000206000019081610ac09190612fa5565b5083600460008573ffffffffffffffffffffffffffffffffffffffff1673ffffffffffffffffffffffffffffffffffffffff1681526020019081526020016000206001019081610b109190612fa5565b5082600460008573ffffffffffffffffffffffffffffffffffffffff1673ffffffffffffffffffffffffffffffffffffffff16815260200190815260200160002060020160006101000a81548173ffffffffffffffffffffffffffffffffffffffff021916908373ffffffffffffffffffffffffffffffffffffffff16021790555081600460008573ffffffffffffffffffffffffffffffffffffffff1673ffffffffffffffffffffffffffffffffffffffff1681526020019081526020016000206003019081610be19190612fa5565b5033600460008573ffffffffffffffffffffffffffffffffffffffff1673ffffffffffffffffffffffffffffffffffffffff16815260200190815260200160002060040160006101000a81548173ffffffffffffffffffffffffffffffffffffffff021916908373ffffffffffffffffffffffffffffffffffffffff1602179055506001600380549050610c7591906130a6565b600460008573ffffffffffffffffffffffffffffffffffffffff1673ffffffffffffffffffffffffffffffffffffffff168152602001908152602001600020600501819055506000600460008573ffffffffffffffffffffffffffffffffffffffff1673ffffffffffffffffffffffffffffffffffffffff16815260200190815260200160002060060160006101000a81548160ff0219169083151502179055503373ffffffffffffffffffffffffffffffffffffffff168373ffffffffffffffffffffffffffffffffffffffff1686604051610d529190613116565b60405180910390207f3a0c95a7b8facdb0043f0c59befe4db667cc20b17843f4b091ece39c4a801aba60405160405180910390a45050505050565b610d956125fb565b73ffffffffffffffffffffffffffffffffffffffff16610db361133a565b73ffffffffffffffffffffffffffffffffffffffff1614610e09576040517f08c379a0000000000000000000000000000000000000000000000000000000008152600401610e0090612d79565b60405180910390fd5b610e136000612603565b565b610e1d6126c9565b600660008473ffffffffffffffffffffffffffffffffffffffff1673ffffffffffffffffffffffffffffffffffffffff1681526020019081526020016000206000838152602001908152602001600020604051806040016040529081600082015481526020016001820160009054906101000a900473ffffffffffffffffffffffffffffffffffffffff1673ffffffffffffffffffffffffffffffffffffffff1673ffffffffffffffffffffffffffffffffffffffff1681525050905092915050565b8282336000600660008573ffffffffffffffffffffffffffffffffffffffff1673ffffffffffffffffffffffffffffffffffffffff1681526020019081526020016000206000848152602001908152602001600020604051806040016040529081600082015481526020016001820160009054906101000a900473ffffffffffffffffffffffffffffffffffffffff1673ffffffffffffffffffffffffffffffffffffffff1673ffffffffffffffffffffffffffffffffffffffff16815250509050600081600001511115610fee5783836040517f4a5568d5000000000000000000000000000000000000000000000000000000008152600401610fe592919061312d565b60405180910390fd5b868633600083905060008173ffffffffffffffffffffffffffffffffffffffff16636352211e856040518263ffffffff1660e01b815260040161103191906129f0565b602060405180830381865afa15801561104e573d6000803e3d6000fd5b505050506040513d601f19601f82011682018060405250810190611072919061316b565b90508073ffffffffffffffffffffffffffffffffffffffff168373ffffffffffffffffffffffffffffffffffffffff16146110d9576040517f30cd747100000000000000000000000000000000000000000000000000000000815260040160405180910390fd5b60008a11611113576040517fe1abbfc500000000000000000000000000000000000000000000000000000000815260040160405180910390fd5b60008c90503073ffffffffffffffffffffffffffffffffffffffff168173ffffffffffffffffffffffffffffffffffffffff1663081812fc8e6040518263ffffffff1660e01b815260040161116891906129f0565b602060405180830381865afa158015611185573d6000803e3d6000fd5b505050506040513d601f19601f820116820180604052508101906111a9919061316b565b73ffffffffffffffffffffffffffffffffffffffff16146111f6576040517f4be3a2c500000000000000000000000000000000000000000000000000000000815260040160405180910390fd5b60405180604001604052808c81526020013373ffffffffffffffffffffffffffffffffffffffff16815250600660008f73ffffffffffffffffffffffffffffffffffffffff1673ffffffffffffffffffffffffffffffffffffffff16815260200190815260200160002060008e81526020019081526020016000206000820151816000015560208201518160010160006101000a81548173ffffffffffffffffffffffffffffffffffffffff021916908373ffffffffffffffffffffffffffffffffffffffff1602179055509050503373ffffffffffffffffffffffffffffffffffffffff168d73ffffffffffffffffffffffffffffffffffffffff168d7facaa5c216c6ad9851cb7b94d17731f463389bc61f8fd846c2de5a758ed9239668e60405161132391906129f0565b60405180910390a450505050505050505050505050565b6000600160009054906101000a900473ffffffffffffffffffffffffffffffffffffffff16905090565b6000600760003373ffffffffffffffffffffffffffffffffffffffff1673ffffffffffffffffffffffffffffffffffffffff168152602001908152602001600020549050600081116113e2576040517fc4d8fa8700000000000000000000000000000000000000000000000000000000815260040160405180910390fd5b6000600760003373ffffffffffffffffffffffffffffffffffffffff1673ffffffffffffffffffffffffffffffffffffffff1681526020019081526020016000208190555060003373ffffffffffffffffffffffffffffffffffffffff168260405161144d906131c9565b60006040518083038185875af1925050503d806000811461148a576040519150601f19603f3d011682016040523d82523d6000602084013e61148f565b606091505b50509050806114d3576040517f08c379a00000000000000000000000000000000000000000000000000000000081526004016114ca9061322a565b60405180910390fd5b5050565b81816000600660008473ffffffffffffffffffffffffffffffffffffffff1673ffffffffffffffffffffffffffffffffffffffff1681526020019081526020016000206000838152602001908152602001600020604051806040016040529081600082015481526020016001820160009054906101000a900473ffffffffffffffffffffffffffffffffffffffff1673ffffffffffffffffffffffffffffffffffffffff1673ffffffffffffffffffffffffffffffffffffffff1681525050905060008160000151116115e35782826040517f6831488c0000000000000000000000000000000000000000000000000000000081526004016115da92919061312d565b60405180910390fd5b600260005403611628576040517f08c379a000000000000000000000000000000000000000000000000000000000815260040161161f90613296565b60405180910390fd5b60026000819055506000600660008773ffffffffffffffffffffffffffffffffffffffff1673ffffffffffffffffffffffffffffffffffffffff1681526020019081526020016000206000868152602001908152602001600020604051806040016040529081600082015481526020016001820160009054906101000a900473ffffffffffffffffffffffffffffffffffffffff1673ffffffffffffffffffffffffffffffffffffffff1673ffffffffffffffffffffffffffffffffffffffff16815250509050806000015134101561174057858582600001516040517f7c934565000000000000000000000000000000000000000000000000000000008152600401611737939291906132b6565b60405180910390fd5b3460076000836020015173ffffffffffffffffffffffffffffffffffffffff1673ffffffffffffffffffffffffffffffffffffffff168152602001908152602001600020600082825461179391906132ed565b92505081905550600660008773ffffffffffffffffffffffffffffffffffffffff1673ffffffffffffffffffffffffffffffffffffffff16815260200190815260200160002060008681526020019081526020016000206000808201600090556001820160006101000a81549073ffffffffffffffffffffffffffffffffffffffff021916905550508573ffffffffffffffffffffffffffffffffffffffff166342842e0e826020015133886040518463ffffffff1660e01b815260040161185d93929190613321565b600060405180830381600087803b15801561187757600080fd5b505af115801561188b573d6000803e3d6000fd5b505050503373ffffffffffffffffffffffffffffffffffffffff168673ffffffffffffffffffffffffffffffffffffffff16867f2aa91d32ed82c3bc263c0523e6d7ac2d014506daca62bf306caea7e0e497c2d484600001516040516118f191906129f0565b60405180910390a45060016000819055505050505050565b818133600083905060008173ffffffffffffffffffffffffffffffffffffffff16636352211e856040518263ffffffff1660e01b815260040161194c91906129f0565b602060405180830381865afa158015611969573d6000803e3d6000fd5b505050506040513d601f19601f8201168201806040525081019061198d919061316b565b90508073ffffffffffffffffffffffffffffffffffffffff168373ffffffffffffffffffffffffffffffffffffffff16146119f4576040517f30cd747100000000000000000000000000000000000000000000000000000000815260040160405180910390fd5b86866000600660008473ffffffffffffffffffffffffffffffffffffffff1673ffffffffffffffffffffffffffffffffffffffff1681526020019081526020016000206000838152602001908152602001600020604051806040016040529081600082015481526020016001820160009054906101000a900473ffffffffffffffffffffffffffffffffffffffff1673ffffffffffffffffffffffffffffffffffffffff1673ffffffffffffffffffffffffffffffffffffffff168152505090506000816000015111611b005782826040517f6831488c000000000000000000000000000000000000000000000000000000008152600401611af792919061312d565b60405180910390fd5b600660008b73ffffffffffffffffffffffffffffffffffffffff1673ffffffffffffffffffffffffffffffffffffffff16815260200190815260200160002060008a81526020019081526020016000206000808201600090556001820160006101000a81549073ffffffffffffffffffffffffffffffffffffffff021916905550503373ffffffffffffffffffffffffffffffffffffffff168a73ffffffffffffffffffffffffffffffffffffffff168a7f60551fe5e7cde8226569d012bcbb2265a4f33bcf36668fd36d94c7e0744fe69560405160405180910390a450505050505050505050565b611bf16126f9565b600060028381548110611c0757611c06613358565b5b9060005260206000200160009054906101000a900473ffffffffffffffffffffffffffffffffffffffff169050600460008273ffffffffffffffffffffffffffffffffffffffff1673ffffffffffffffffffffffffffffffffffffffff1681526020019081526020016000206040518060e0016040529081600082018054611c8e90612dc8565b80601f0160208091040260200160405190810160405280929190818152602001828054611cba90612dc8565b8015611d075780601f10611cdc57610100808354040283529160200191611d07565b820191906000526020600020905b815481529060010190602001808311611cea57829003601f168201915b50505050508152602001600182018054611d2090612dc8565b80601f0160208091040260200160405190810160405280929190818152602001828054611d4c90612dc8565b8015611d995780601f10611d6e57610100808354040283529160200191611d99565b820191906000526020600020905b815481529060010190602001808311611d7c57829003601f168201915b505050505081526020016002820160009054906101000a900473ffffffffffffffffffffffffffffffffffffffff1673ffffffffffffffffffffffffffffffffffffffff1673ffffffffffffffffffffffffffffffffffffffff168152602001600382018054611e0890612dc8565b80601f0160208091040260200160405190810160405280929190818152602001828054611e3490612dc8565b8015611e815780601f10611e5657610100808354040283529160200191611e81565b820191906000526020600020905b815481529060010190602001808311611e6457829003601f168201915b505050505081526020016004820160009054906101000a900473ffffffffffffffffffffffffffffffffffffffff1673ffffffffffffffffffffffffffffffffffffffff1673ffffffffffffffffffffffffffffffffffffffff168152602001600582015481526020016006820160009054906101000a900460ff161515151581525050915050919050565b611f156126f9565b600460008373ffffffffffffffffffffffffffffffffffffffff1673ffffffffffffffffffffffffffffffffffffffff1681526020019081526020016000206040518060e0016040529081600082018054611f6f90612dc8565b80601f0160208091040260200160405190810160405280929190818152602001828054611f9b90612dc8565b8015611fe85780601f10611fbd57610100808354040283529160200191611fe8565b820191906000526020600020905b815481529060010190602001808311611fcb57829003601f168201915b5050505050815260200160018201805461200190612dc8565b80601f016020809104026020016040519081016040528092919081815260200182805461202d90612dc8565b801561207a5780601f1061204f5761010080835404028352916020019161207a565b820191906000526020600020905b81548152906001019060200180831161205d57829003601f168201915b505050505081526020016002820160009054906101000a900473ffffffffffffffffffffffffffffffffffffffff1673ffffffffffffffffffffffffffffffffffffffff1673ffffffffffffffffffffffffffffffffffffffff1681526020016003820180546120e990612dc8565b80601f016020809104026020016040519081016040528092919081815260200182805461211590612dc8565b80156121625780601f1061213757610100808354040283529160200191612162565b820191906000526020600020905b81548152906001019060200180831161214557829003601f168201915b505050505081526020016004820160009054906101000a900473ffffffffffffffffffffffffffffffffffffffff1673ffffffffffffffffffffffffffffffffffffffff1673ffffffffffffffffffffffffffffffffffffffff168152602001600582015481526020016006820160009054906101000a900460ff1615151515815250509050919050565b6121f56125fb565b73ffffffffffffffffffffffffffffffffffffffff1661221361133a565b73ffffffffffffffffffffffffffffffffffffffff1614612269576040517f08c379a000000000000000000000000000000000000000000000000000000000815260040161226090612d79565b60405180910390fd5b600073ffffffffffffffffffffffffffffffffffffffff168173ffffffffffffffffffffffffffffffffffffffff16036122d8576040517f08c379a00000000000000000000000000000000000000000000000000000000081526004016122cf906133f9565b60405180910390fd5b6122e181612603565b50565b82826000600660008473ffffffffffffffffffffffffffffffffffffffff1673ffffffffffffffffffffffffffffffffffffffff1681526020019081526020016000206000838152602001908152602001600020604051806040016040529081600082015481526020016001820160009054906101000a900473ffffffffffffffffffffffffffffffffffffffff1673ffffffffffffffffffffffffffffffffffffffff1673ffffffffffffffffffffffffffffffffffffffff1681525050905060008160000151116123f05782826040517f6831488c0000000000000000000000000000000000000000000000000000000081526004016123e792919061312d565b60405180910390fd5b600260005403612435576040517f08c379a000000000000000000000000000000000000000000000000000000000815260040161242c90613296565b60405180910390fd5b6002600081905550858533600083905060008173ffffffffffffffffffffffffffffffffffffffff16636352211e856040518263ffffffff1660e01b815260040161248091906129f0565b602060405180830381865afa15801561249d573d6000803e3d6000fd5b505050506040513d601f19601f820116820180604052508101906124c1919061316b565b90508073ffffffffffffffffffffffffffffffffffffffff168373ffffffffffffffffffffffffffffffffffffffff1614612528576040517f30cd747100000000000000000000000000000000000000000000000000000000815260040160405180910390fd5b88600660008d73ffffffffffffffffffffffffffffffffffffffff1673ffffffffffffffffffffffffffffffffffffffff16815260200190815260200160002060008c8152602001908152602001600020600001819055503373ffffffffffffffffffffffffffffffffffffffff168b73ffffffffffffffffffffffffffffffffffffffff168b7facaa5c216c6ad9851cb7b94d17731f463389bc61f8fd846c2de5a758ed9239668c6040516125de91906129f0565b60405180910390a450505050506001600081905550505050505050565b600033905090565b6000600160009054906101000a900473ffffffffffffffffffffffffffffffffffffffff16905081600160006101000a81548173ffffffffffffffffffffffffffffffffffffffff021916908373ffffffffffffffffffffffffffffffffffffffff1602179055508173ffffffffffffffffffffffffffffffffffffffff168173ffffffffffffffffffffffffffffffffffffffff167f8be0079c531659141344cd1fd0a4f28419497f9722a3daafe3b4186f6b6457e060405160405180910390a35050565b604051806040016040528060008152602001600073ffffffffffffffffffffffffffffffffffffffff1681525090565b6040518060e001604052806060815260200160608152602001600073ffffffffffffffffffffffffffffffffffffffff16815260200160608152602001600073ffffffffffffffffffffffffffffffffffffffff168152602001600081526020016000151581525090565b6000604051905090565b600080fd5b600080fd5b600080fd5b600080fd5b6000601f19601f8301169050919050565b7f4e487b7100000000000000000000000000000000000000000000000000000000600052604160045260246000fd5b6127cb82612782565b810181811067ffffffffffffffff821117156127ea576127e9612793565b5b80604052505050565b60006127fd612764565b905061280982826127c2565b919050565b600067ffffffffffffffff82111561282957612828612793565b5b61283282612782565b9050602081019050919050565b82818337600083830152505050565b600061286161285c8461280e565b6127f3565b90508281526020810184848401111561287d5761287c61277d565b5b61288884828561283f565b509392505050565b600082601f8301126128a5576128a4612778565b5b81356128b584826020860161284e565b91505092915050565b600073ffffffffffffffffffffffffffffffffffffffff82169050919050565b60006128e9826128be565b9050919050565b6128f9816128de565b811461290457600080fd5b50565b600081359050612916816128f0565b92915050565b600080600080608085870312156129365761293561276e565b5b600085013567ffffffffffffffff81111561295457612953612773565b5b61296087828801612890565b945050602085013567ffffffffffffffff81111561298157612980612773565b5b61298d87828801612890565b935050604061299e87828801612907565b925050606085013567ffffffffffffffff8111156129bf576129be612773565b5b6129cb87828801612890565b91505092959194509250565b6000819050919050565b6129ea816129d7565b82525050565b6000602082019050612a0560008301846129e1565b92915050565b600060208284031215612a2157612a2061276e565b5b6000612a2f84828501612907565b91505092915050565b612a41816129d7565b8114612a4c57600080fd5b50565b600081359050612a5e81612a38565b92915050565b60008060408385031215612a7b57612a7a61276e565b5b6000612a8985828601612907565b9250506020612a9a85828601612a4f565b9150509250929050565b612aad816129d7565b82525050565b612abc816128de565b82525050565b604082016000820151612ad86000850182612aa4565b506020820151612aeb6020850182612ab3565b50505050565b6000604082019050612b066000830184612ac2565b92915050565b600080600060608486031215612b2557612b2461276e565b5b6000612b3386828701612907565b9350506020612b4486828701612a4f565b9250506040612b5586828701612a4f565b9150509250925092565b612b68816128de565b82525050565b6000602082019050612b836000830184612b5f565b92915050565b600060208284031215612b9f57612b9e61276e565b5b6000612bad84828501612a4f565b91505092915050565b600081519050919050565b600082825260208201905092915050565b60005b83811015612bf0578082015181840152602081019050612bd5565b60008484015250505050565b6000612c0782612bb6565b612c118185612bc1565b9350612c21818560208601612bd2565b612c2a81612782565b840191505092915050565b60008115159050919050565b612c4a81612c35565b82525050565b600060e0830160008301518482036000860152612c6d8282612bfc565b91505060208301518482036020860152612c878282612bfc565b9150506040830151612c9c6040860182612ab3565b5060608301518482036060860152612cb48282612bfc565b9150506080830151612cc96080860182612ab3565b5060a0830151612cdc60a0860182612aa4565b5060c0830151612cef60c0860182612c41565b508091505092915050565b60006020820190508181036000830152612d148184612c50565b905092915050565b600082825260208201905092915050565b7f4f776e61626c653a2063616c6c6572206973206e6f7420746865206f776e6572600082015250565b6000612d63602083612d1c565b9150612d6e82612d2d565b602082019050919050565b60006020820190508181036000830152612d9281612d56565b9050919050565b7f4e487b7100000000000000000000000000000000000000000000000000000000600052602260045260246000fd5b60006002820490506001821680612de057607f821691505b602082108103612df357612df2612d99565b5b50919050565b60008190508160005260206000209050919050565b60006020601f8301049050919050565b600082821b905092915050565b600060088302612e5b7fffffffffffffffffffffffffffffffffffffffffffffffffffffffffffffffff82612e1e565b612e658683612e1e565b95508019841693508086168417925050509392505050565b6000819050919050565b6000612ea2612e9d612e98846129d7565b612e7d565b6129d7565b9050919050565b6000819050919050565b612ebc83612e87565b612ed0612ec882612ea9565b848454612e2b565b825550505050565b600090565b612ee5612ed8565b612ef0818484612eb3565b505050565b5b81811015612f1457612f09600082612edd565b600181019050612ef6565b5050565b601f821115612f5957612f2a81612df9565b612f3384612e0e565b81016020851015612f42578190505b612f56612f4e85612e0e565b830182612ef5565b50505b505050565b600082821c905092915050565b6000612f7c60001984600802612f5e565b1980831691505092915050565b6000612f958383612f6b565b9150826002028217905092915050565b612fae82612bb6565b67ffffffffffffffff811115612fc757612fc6612793565b5b612fd18254612dc8565b612fdc828285612f18565b600060209050601f83116001811461300f5760008415612ffd578287015190505b6130078582612f89565b86555061306f565b601f19841661301d86612df9565b60005b8281101561304557848901518255600182019150602085019450602081019050613020565b86831015613062578489015161305e601f891682612f6b565b8355505b6001600288020188555050505b505050505050565b7f4e487b7100000000000000000000000000000000000000000000000000000000600052601160045260246000fd5b60006130b1826129d7565b91506130bc836129d7565b92508282039050818111156130d4576130d3613077565b5b92915050565b600081905092915050565b60006130f082612bb6565b6130fa81856130da565b935061310a818560208601612bd2565b80840191505092915050565b600061312282846130e5565b915081905092915050565b60006040820190506131426000830185612b5f565b61314f60208301846129e1565b9392505050565b600081519050613165816128f0565b92915050565b6000602082840312156131815761318061276e565b5b600061318f84828501613156565b91505092915050565b600081905092915050565b50565b60006131b3600083613198565b91506131be826131a3565b600082019050919050565b60006131d4826131a6565b9150819050919050565b7f5472616e73666572206661696c65640000000000000000000000000000000000600082015250565b6000613214600f83612d1c565b915061321f826131de565b602082019050919050565b6000602082019050818103600083015261324381613207565b9050919050565b7f5265656e7472616e637947756172643a207265656e7472616e742063616c6c00600082015250565b6000613280601f83612d1c565b915061328b8261324a565b602082019050919050565b600060208201905081810360008301526132af81613273565b9050919050565b60006060820190506132cb6000830186612b5f565b6132d860208301856129e1565b6132e560408301846129e1565b949350505050565b60006132f8826129d7565b9150613303836129d7565b925082820190508082111561331b5761331a613077565b5b92915050565b60006060820190506133366000830186612b5f565b6133436020830185612b5f565b61335060408301846129e1565b949350505050565b7f4e487b7100000000000000000000000000000000000000000000000000000000600052603260045260246000fd5b7f4f776e61626c653a206e6577206f776e657220697320746865207a65726f206160008201527f6464726573730000000000000000000000000000000000000000000000000000602082015250565b60006133e3602683612d1c565b91506133ee82613387565b604082019050919050565b60006020820190508181036000830152613412816133d6565b905091905056fea2646970667358221220ba3ed0eb925b3692c36a644ae30a851c3e0c316734b8187fdb58bd916a9573eb64736f6c63430008100033",
    "immutableReferences": {},
    "source": "// SPDX-License-Identifier: MIT\npragma solidity ^0.8.14;\n\nimport \"@openzeppelin/contracts/token/ERC721/IERC721.sol\";\nimport \"@openzeppelin/contracts/security/ReentrancyGuard.sol\";\nimport \"@openzeppelin/contracts/access/Ownable.sol\";\n\nerror CollectionAlreadyRegistered(address nftAddress);\nerror AlreadyListed(address nftAddress, uint256 tokenId);\nerror NotListed(address nftAddress, uint256 tokenId);\nerror PriceMustBeAboveZero();\nerror PriceNotMet(address nftAddress, uint256 tokenId, uint256 price);\nerror NoProceeds();\nerror NotApprovedForMarketplace();\nerror NotOwner();\n\ncontract NFTMarketplace is ReentrancyGuard, Ownable {\n    struct Listing {\n        uint256 price;\n        address seller;\n    }\n\n    struct Collection {\n        string name;\n        string description;\n        address nftAddress;\n        string authorName;\n        address authorAddress;\n        uint index;\n        bool custom;\n    }\n\n    event CollectionRegistered(\n        string indexed name,\n        address indexed nftAddress,\n        address indexed from\n    );\n\n    event ItemListed(\n        uint256 indexed tokenId,\n        address indexed nftAddress,\n        address indexed seller,\n        uint256 price\n    );\n\n    event ItemCanceled(\n        uint256 indexed tokenId,\n        address indexed nftAddress,\n        address indexed seller\n    );\n\n    event ItemBought(\n        uint256 indexed tokenId,\n        address indexed nftAddress,\n        address indexed buyer,\n        uint256 price\n    );\n\n    address[] private collectionIndex;\n    address[] private privateCollectionIndex;\n\n    /// @notice NFT address -> Collection\n    mapping(address => Collection) private collections;\n    /// @notice NFT address -> Private collection (created by users)\n    mapping(address => Collection) private privateCollections;\n    /// @notice NFT address -> Token ID -> Listing\n    mapping(address => mapping(uint256 => Listing)) private listings;\n    /// @notice Seller address -> ETH amount from sales\n    mapping(address => uint256) private profits;\n\n    //////////////////////////\n    // Modifiers Functions //\n    /////////////////////////\n\n    modifier notRegistered(\n        address nftAddress\n    ) {\n        if (collectionIndex.length > 0 && collections[nftAddress].nftAddress == nftAddress) {\n            revert CollectionAlreadyRegistered(nftAddress);\n        }\n\n        _;\n    }\n\n    modifier notRegisteredPrivate(\n        address nftAddress\n    ) {\n        if (privateCollectionIndex.length > 0 && collections[nftAddress].nftAddress == nftAddress) {\n            revert CollectionAlreadyRegistered(nftAddress);\n        }\n\n        _;\n    }\n\n    modifier notListed(\n        address nftAddress,\n        uint256 tokenId,\n        address owner\n    ) {\n        Listing memory listing = listings[nftAddress][tokenId];\n\n        if (listing.price > 0) {\n            revert AlreadyListed(nftAddress, tokenId);\n        }\n\n        _;\n    }\n\n    modifier isListed(address nftAddress, uint256 tokenId) {\n        Listing memory listing = listings[nftAddress][tokenId];\n\n        if (listing.price <= 0) {\n            revert NotListed(nftAddress, tokenId);\n        }\n\n        _;\n    }\n\n    modifier isOwner(\n        address nftAddress,\n        uint256 tokenId,\n        address spender\n    ) {\n        IERC721 nft = IERC721(nftAddress);\n        address owner = nft.ownerOf(tokenId);\n\n        if (spender != owner) {\n            revert NotOwner();\n        }\n\n        _;\n    }\n\n    /////////////////////\n    // Main Functions //\n    /////////////////////\n\n    /*\n     * @notice Method for listing NFT\n     *\n     * @param nftAddress Address of NFT contract\n     * @param tokenId Token ID of NFT\n     * @param price sale price for the token\n     *\n     * @dev We approve the marketplace to operate it on behalf of the owner and then the owner lists it on the marketplace.\n     */\n    function listItem(\n        address nftAddress,\n        uint256 tokenId,\n        uint256 price\n    )\n    external\n    notListed(nftAddress, tokenId, msg.sender)\n    isOwner(nftAddress, tokenId, msg.sender)\n    {\n        if (price <= 0) {\n            revert PriceMustBeAboveZero();\n        }\n\n        IERC721 nft = IERC721(nftAddress);\n\n        if (nft.getApproved(tokenId) != address(this)) {\n            revert NotApprovedForMarketplace();\n        }\n\n        listings[nftAddress][tokenId] = Listing(price, msg.sender);\n\n        emit ItemListed(tokenId, nftAddress, msg.sender, price);\n    }\n\n    /*\n     * @notice Method for updating listing\n     *\n     * @param nftAddress Address of NFT contract\n     * @param tokenId Token ID of NFT\n     * @param newPrice Price in Wei of the item\n     */\n    function updateListing(\n        address nftAddress,\n        uint256 tokenId,\n        uint256 newPrice\n    )\n    external\n    isListed(nftAddress, tokenId)\n    nonReentrant\n    isOwner(nftAddress, tokenId, msg.sender)\n    {\n        listings[nftAddress][tokenId].price = newPrice;\n        emit ItemListed(tokenId, nftAddress, msg.sender, newPrice);\n    }\n\n    /*\n     * @notice Method for cancelling listing\n     *\n     * @param nftAddress Address of NFT contract\n     * @param tokenId Token ID of NFT\n     */\n    function cancelListing(address nftAddress, uint256 tokenId)\n    external\n    isOwner(nftAddress, tokenId, msg.sender)\n    isListed(nftAddress, tokenId)\n    {\n        delete (listings[nftAddress][tokenId]);\n        emit ItemCanceled(tokenId, nftAddress, msg.sender);\n    }\n\n    /*\n     * @notice Method for buying a listed token\n     *\n     * @param nftAddress Address of NFT contract\n     * @param tokenId Token ID of NFT\n     *\n     * @dev The owner of an NFT could unapproved the marketplace, which would cause this function to fail.\n     * @dev Check https://fravoll.github.io/solidity-patterns/pull_over_push.html\n     */\n    function buyItem(address nftAddress, uint256 tokenId)\n    external\n    payable\n    isListed(nftAddress, tokenId)\n    nonReentrant\n    {\n        Listing memory listedItem = listings[nftAddress][tokenId];\n\n        if (msg.value < listedItem.price) {\n            revert PriceNotMet(nftAddress, tokenId, listedItem.price);\n        }\n\n        profits[listedItem.seller] += msg.value;\n        // Could just send the money...\n        // https://fravoll.github.io/solidity-patterns/pull_over_push.html\n        delete (listings[nftAddress][tokenId]);\n\n        IERC721(nftAddress).safeTransferFrom(listedItem.seller, msg.sender, tokenId);\n\n        emit ItemBought(tokenId, nftAddress, msg.sender, listedItem.price);\n    }\n\n    /*\n     * @notice Method for withdrawing proceeds from sales\n     */\n    function withdrawProceeds() external {\n        uint256 proceeds = profits[msg.sender];\n\n        if (proceeds <= 0) {\n            revert NoProceeds();\n        }\n\n        profits[msg.sender] = 0;\n\n        (bool success,) = payable(msg.sender).call{value : proceeds}(\"\");\n\n        require(success, \"Transfer failed\");\n    }\n\n    /*\n     * @notice Method for registering a NFT collection\n     *\n     * @param name Name of NFT collection\n     * @param description Description of NFT collection\n     * @param nftAddress Address of NFT contract\n     * @param authorName Author name of NFT collection\n     */\n    function addCollection(string memory name, string memory description, address nftAddress, string memory authorName)\n    public\n    notRegistered(nftAddress)\n    onlyOwner {\n        collectionIndex.push(nftAddress);\n\n        collections[nftAddress].name = name;\n        collections[nftAddress].description = description;\n        collections[nftAddress].nftAddress = nftAddress;\n        collections[nftAddress].authorName = authorName;\n        collections[nftAddress].authorAddress = msg.sender;\n        collections[nftAddress].index = collectionIndex.length - 1;\n        collections[nftAddress].custom = true;\n\n        emit CollectionRegistered(name, nftAddress, msg.sender);\n    }\n\n    /*\n     * @notice Method for registering a private NFT collection (created manually by the user)\n     *\n     * @param name Name of NFT collection\n     * @param description Description of NFT collection\n     * @param nftAddress Address of NFT contract\n     * @param authorName Author name of NFT collection\n     */\n    function addPrivateCollection(string memory name, string memory description, address nftAddress, string memory authorName)\n    external\n    notRegisteredPrivate(nftAddress)\n    onlyOwner {\n        collectionIndex.push(nftAddress);\n\n        collections[nftAddress].name = name;\n        collections[nftAddress].description = description;\n        collections[nftAddress].nftAddress = nftAddress;\n        collections[nftAddress].authorName = authorName;\n        collections[nftAddress].authorAddress = msg.sender;\n        collections[nftAddress].index = privateCollectionIndex.length - 1;\n        collections[nftAddress].custom = false;\n\n        emit CollectionRegistered(name, nftAddress, msg.sender);\n    }\n\n    //////////////////////\n    // Getter Functions //\n    //////////////////////\n\n    /*\n     * @notice Returns all listing for a given token\n     */\n    function getListing(address nftAddress, uint256 tokenId)\n    external\n    view\n    returns (Listing memory)\n    {\n        return listings[nftAddress][tokenId];\n    }\n\n    /*\n     * @notice Returns all proceeds for a given address\n     */\n    function getProceeds(address seller) external view returns (uint256) {\n        return profits[seller];\n    }\n\n    /*\n     * @notice Returns count of registered NFT collection\n     */\n    function getCollectionCount() external view returns (uint count) {\n        return collectionIndex.length;\n    }\n\n    /*\n     * @notice Returns the desired NFT collection metadata by index\n     */\n    function getCollectionAtIndex(uint index)\n    external\n    view\n    returns (Collection memory)\n    {\n        address contractAddress = collectionIndex[index];\n\n        return collections[contractAddress];\n    }\n\n    /*\n     * @notice Returns the desired NFT collection metadata by index\n     */\n    function getCollectionByAddress(address contractAddress)\n    external\n    view\n    returns (Collection memory)\n    {\n        return collections[contractAddress];\n    }\n}\n",
    "sourcePath": "/Users/adrien/Alyra/opensea-clone/contracts/NFTMarketplace.sol",
    "compiler": {
        "name": "solc",
        "version": "0.8.16+commit.07a7930e.Emscripten.clang"
    },
    "schemaVersion": "3.4.3",
    "updatedAt": "2022-08-11T13:16:23.305Z",
    "devdoc": {
        "kind": "dev",
        "methods": {
            "owner()": {
                "details": "Returns the address of the current owner."
            },
            "renounceOwnership()": {
                "details": "Leaves the contract without owner. It will not be possible to call `onlyOwner` functions anymore. Can only be called by the current owner. NOTE: Renouncing ownership will leave the contract without an owner, thereby removing any functionality that is only available to the owner."
            },
            "transferOwnership(address)": {
                "details": "Transfers ownership of the contract to a new account (`newOwner`). Can only be called by the current owner."
            }
        },
        "version": 1
    },
    "userdoc": {
        "kind": "user",
        "methods": {},
        "version": 1
    }
}