{
    "contractName": "NFTMinter",
    "abi": [
        {
            "inputs": [
                {
                    "internalType": "string",
                    "name": "tokenName",
                    "type": "string"
                },
                {
                    "internalType": "string",
                    "name": "symbol",
                    "type": "string"
                }
            ],
            "stateMutability": "nonpayable",
            "type": "constructor"
        },
        {
            "anonymous": false,
            "inputs": [
                {
                    "indexed": true,
                    "internalType": "address",
                    "name": "owner",
                    "type": "address"
                },
                {
                    "indexed": true,
                    "internalType": "address",
                    "name": "approved",
                    "type": "address"
                },
                {
                    "indexed": true,
                    "internalType": "uint256",
                    "name": "tokenId",
                    "type": "uint256"
                }
            ],
            "name": "Approval",
            "type": "event"
        },
        {
            "anonymous": false,
            "inputs": [
                {
                    "indexed": true,
                    "internalType": "address",
                    "name": "owner",
                    "type": "address"
                },
                {
                    "indexed": true,
                    "internalType": "address",
                    "name": "operator",
                    "type": "address"
                },
                {
                    "indexed": false,
                    "internalType": "bool",
                    "name": "approved",
                    "type": "bool"
                }
            ],
            "name": "ApprovalForAll",
            "type": "event"
        },
        {
            "anonymous": false,
            "inputs": [
                {
                    "indexed": true,
                    "internalType": "address",
                    "name": "from",
                    "type": "address"
                },
                {
                    "indexed": true,
                    "internalType": "address",
                    "name": "to",
                    "type": "address"
                },
                {
                    "indexed": true,
                    "internalType": "uint256",
                    "name": "tokenId",
                    "type": "uint256"
                }
            ],
            "name": "Transfer",
            "type": "event"
        },
        {
            "inputs": [
                {
                    "internalType": "address",
                    "name": "to",
                    "type": "address"
                },
                {
                    "internalType": "uint256",
                    "name": "tokenId",
                    "type": "uint256"
                }
            ],
            "name": "approve",
            "outputs": [],
            "stateMutability": "nonpayable",
            "type": "function"
        },
        {
            "inputs": [
                {
                    "internalType": "address",
                    "name": "owner",
                    "type": "address"
                }
            ],
            "name": "balanceOf",
            "outputs": [
                {
                    "internalType": "uint256",
                    "name": "",
                    "type": "uint256"
                }
            ],
            "stateMutability": "view",
            "type": "function",
            "constant": true
        },
        {
            "inputs": [
                {
                    "internalType": "uint256",
                    "name": "tokenId",
                    "type": "uint256"
                }
            ],
            "name": "getApproved",
            "outputs": [
                {
                    "internalType": "address",
                    "name": "",
                    "type": "address"
                }
            ],
            "stateMutability": "view",
            "type": "function",
            "constant": true
        },
        {
            "inputs": [
                {
                    "internalType": "address",
                    "name": "owner",
                    "type": "address"
                },
                {
                    "internalType": "address",
                    "name": "operator",
                    "type": "address"
                }
            ],
            "name": "isApprovedForAll",
            "outputs": [
                {
                    "internalType": "bool",
                    "name": "",
                    "type": "bool"
                }
            ],
            "stateMutability": "view",
            "type": "function",
            "constant": true
        },
        {
            "inputs": [],
            "name": "name",
            "outputs": [
                {
                    "internalType": "string",
                    "name": "",
                    "type": "string"
                }
            ],
            "stateMutability": "view",
            "type": "function",
            "constant": true
        },
        {
            "inputs": [
                {
                    "internalType": "uint256",
                    "name": "tokenId",
                    "type": "uint256"
                }
            ],
            "name": "ownerOf",
            "outputs": [
                {
                    "internalType": "address",
                    "name": "",
                    "type": "address"
                }
            ],
            "stateMutability": "view",
            "type": "function",
            "constant": true
        },
        {
            "inputs": [
                {
                    "internalType": "address",
                    "name": "from",
                    "type": "address"
                },
                {
                    "internalType": "address",
                    "name": "to",
                    "type": "address"
                },
                {
                    "internalType": "uint256",
                    "name": "tokenId",
                    "type": "uint256"
                }
            ],
            "name": "safeTransferFrom",
            "outputs": [],
            "stateMutability": "nonpayable",
            "type": "function"
        },
        {
            "inputs": [
                {
                    "internalType": "address",
                    "name": "from",
                    "type": "address"
                },
                {
                    "internalType": "address",
                    "name": "to",
                    "type": "address"
                },
                {
                    "internalType": "uint256",
                    "name": "tokenId",
                    "type": "uint256"
                },
                {
                    "internalType": "bytes",
                    "name": "_data",
                    "type": "bytes"
                }
            ],
            "name": "safeTransferFrom",
            "outputs": [],
            "stateMutability": "nonpayable",
            "type": "function"
        },
        {
            "inputs": [
                {
                    "internalType": "address",
                    "name": "operator",
                    "type": "address"
                },
                {
                    "internalType": "bool",
                    "name": "approved",
                    "type": "bool"
                }
            ],
            "name": "setApprovalForAll",
            "outputs": [],
            "stateMutability": "nonpayable",
            "type": "function"
        },
        {
            "inputs": [],
            "name": "symbol",
            "outputs": [
                {
                    "internalType": "string",
                    "name": "",
                    "type": "string"
                }
            ],
            "stateMutability": "view",
            "type": "function",
            "constant": true
        },
        {
            "inputs": [
                {
                    "internalType": "uint256",
                    "name": "index",
                    "type": "uint256"
                }
            ],
            "name": "tokenByIndex",
            "outputs": [
                {
                    "internalType": "uint256",
                    "name": "",
                    "type": "uint256"
                }
            ],
            "stateMutability": "view",
            "type": "function",
            "constant": true
        },
        {
            "inputs": [
                {
                    "internalType": "address",
                    "name": "owner",
                    "type": "address"
                },
                {
                    "internalType": "uint256",
                    "name": "index",
                    "type": "uint256"
                }
            ],
            "name": "tokenOfOwnerByIndex",
            "outputs": [
                {
                    "internalType": "uint256",
                    "name": "",
                    "type": "uint256"
                }
            ],
            "stateMutability": "view",
            "type": "function",
            "constant": true
        },
        {
            "inputs": [],
            "name": "totalSupply",
            "outputs": [
                {
                    "internalType": "uint256",
                    "name": "",
                    "type": "uint256"
                }
            ],
            "stateMutability": "view",
            "type": "function",
            "constant": true
        },
        {
            "inputs": [
                {
                    "internalType": "address",
                    "name": "from",
                    "type": "address"
                },
                {
                    "internalType": "address",
                    "name": "to",
                    "type": "address"
                },
                {
                    "internalType": "uint256",
                    "name": "tokenId",
                    "type": "uint256"
                }
            ],
            "name": "transferFrom",
            "outputs": [],
            "stateMutability": "nonpayable",
            "type": "function"
        },
        {
            "inputs": [
                {
                    "internalType": "address",
                    "name": "to",
                    "type": "address"
                },
                {
                    "internalType": "string",
                    "name": "uri",
                    "type": "string"
                }
            ],
            "name": "safeMint",
            "outputs": [],
            "stateMutability": "nonpayable",
            "type": "function"
        },
        {
            "inputs": [
                {
                    "internalType": "uint256",
                    "name": "tokenId",
                    "type": "uint256"
                }
            ],
            "name": "tokenURI",
            "outputs": [
                {
                    "internalType": "string",
                    "name": "",
                    "type": "string"
                }
            ],
            "stateMutability": "view",
            "type": "function",
            "constant": true
        },
        {
            "inputs": [
                {
                    "internalType": "bytes4",
                    "name": "interfaceId",
                    "type": "bytes4"
                }
            ],
            "name": "supportsInterface",
            "outputs": [
                {
                    "internalType": "bool",
                    "name": "",
                    "type": "bool"
                }
            ],
            "stateMutability": "view",
            "type": "function",
            "constant": true
        }
    ],
    "bytecode": "0x60806040523480156200001157600080fd5b5060405162003b8f38038062003b8f833981810160405281019062000037919062000204565b818181600090816200004a9190620004d4565b5080600190816200005c9190620004d4565b5050505050620005bb565b6000604051905090565b600080fd5b600080fd5b600080fd5b600080fd5b6000601f19601f8301169050919050565b7f4e487b7100000000000000000000000000000000000000000000000000000000600052604160045260246000fd5b620000d08262000085565b810181811067ffffffffffffffff82111715620000f257620000f162000096565b5b80604052505050565b60006200010762000067565b9050620001158282620000c5565b919050565b600067ffffffffffffffff82111562000138576200013762000096565b5b620001438262000085565b9050602081019050919050565b60005b838110156200017057808201518184015260208101905062000153565b8381111562000180576000848401525b50505050565b60006200019d62000197846200011a565b620000fb565b905082815260208101848484011115620001bc57620001bb62000080565b5b620001c984828562000150565b509392505050565b600082601f830112620001e957620001e86200007b565b5b8151620001fb84826020860162000186565b91505092915050565b600080604083850312156200021e576200021d62000071565b5b600083015167ffffffffffffffff8111156200023f576200023e62000076565b5b6200024d85828601620001d1565b925050602083015167ffffffffffffffff81111562000271576200027062000076565b5b6200027f85828601620001d1565b9150509250929050565b600081519050919050565b7f4e487b7100000000000000000000000000000000000000000000000000000000600052602260045260246000fd5b60006002820490506001821680620002dc57607f821691505b602082108103620002f257620002f162000294565b5b50919050565b60008190508160005260206000209050919050565b60006020601f8301049050919050565b600082821b905092915050565b6000600883026200035c7fffffffffffffffffffffffffffffffffffffffffffffffffffffffffffffffff826200031d565b6200036886836200031d565b95508019841693508086168417925050509392505050565b6000819050919050565b6000819050919050565b6000620003b5620003af620003a98462000380565b6200038a565b62000380565b9050919050565b6000819050919050565b620003d18362000394565b620003e9620003e082620003bc565b8484546200032a565b825550505050565b600090565b62000400620003f1565b6200040d818484620003c6565b505050565b5b81811015620004355762000429600082620003f6565b60018101905062000413565b5050565b601f82111562000484576200044e81620002f8565b62000459846200030d565b8101602085101562000469578190505b6200048162000478856200030d565b83018262000412565b50505b505050565b600082821c905092915050565b6000620004a96000198460080262000489565b1980831691505092915050565b6000620004c4838362000496565b9150826002028217905092915050565b620004df8262000289565b67ffffffffffffffff811115620004fb57620004fa62000096565b5b620005078254620002c3565b6200051482828562000439565b600060209050601f8311600181146200054c576000841562000537578287015190505b620005438582620004b6565b865550620005b3565b601f1984166200055c86620002f8565b60005b8281101562000586578489015182556001820191506020850194506020810190506200055f565b86831015620005a65784890151620005a2601f89168262000496565b8355505b6001600288020188555050505b505050505050565b6135c480620005cb6000396000f3fe608060405234801561001057600080fd5b506004361061010b5760003560e01c80634f6ccce7116100a2578063a22cb46511610071578063a22cb465146102de578063b88d4fde146102fa578063c87b56dd14610316578063d204c45e14610346578063e985e9c5146103625761010b565b80634f6ccce7146102305780636352211e1461026057806370a082311461029057806395d89b41146102c05761010b565b806318160ddd116100de57806318160ddd146101aa57806323b872dd146101c85780632f745c59146101e457806342842e0e146102145761010b565b806301ffc9a71461011057806306fdde0314610140578063081812fc1461015e578063095ea7b31461018e575b600080fd5b61012a60048036038101906101259190611f57565b610392565b6040516101379190611f9f565b60405180910390f35b6101486103a4565b6040516101559190612053565b60405180910390f35b610178600480360381019061017391906120ab565b610436565b6040516101859190612119565b60405180910390f35b6101a860048036038101906101a39190612160565b6104bb565b005b6101b26105d2565b6040516101bf91906121af565b60405180910390f35b6101e260048036038101906101dd91906121ca565b6105df565b005b6101fe60048036038101906101f99190612160565b61063f565b60405161020b91906121af565b60405180910390f35b61022e600480360381019061022991906121ca565b6106e4565b005b61024a600480360381019061024591906120ab565b610704565b60405161025791906121af565b60405180910390f35b61027a600480360381019061027591906120ab565b610775565b6040516102879190612119565b60405180910390f35b6102aa60048036038101906102a5919061221d565b610826565b6040516102b791906121af565b60405180910390f35b6102c86108dd565b6040516102d59190612053565b60405180910390f35b6102f860048036038101906102f39190612276565b61096f565b005b610314600480360381019061030f91906123eb565b610985565b005b610330600480360381019061032b91906120ab565b6109e7565b60405161033d9190612053565b60405180910390f35b610360600480360381019061035b919061250f565b6109f9565b005b61037c6004803603810190610377919061256b565b610a2a565b6040516103899190611f9f565b60405180910390f35b600061039d82610abe565b9050919050565b6060600080546103b3906125da565b80601f01602080910402602001604051908101604052809291908181526020018280546103df906125da565b801561042c5780601f106104015761010080835404028352916020019161042c565b820191906000526020600020905b81548152906001019060200180831161040f57829003601f168201915b5050505050905090565b600061044182610b38565b610480576040517f08c379a00000000000000000000000000000000000000000000000000000000081526004016104779061267d565b60405180910390fd5b6004600083815260200190815260200160002060009054906101000a900473ffffffffffffffffffffffffffffffffffffffff169050919050565b60006104c682610775565b90508073ffffffffffffffffffffffffffffffffffffffff168373ffffffffffffffffffffffffffffffffffffffff1603610536576040517f08c379a000000000000000000000000000000000000000000000000000000000815260040161052d9061270f565b60405180910390fd5b8073ffffffffffffffffffffffffffffffffffffffff16610555610ba4565b73ffffffffffffffffffffffffffffffffffffffff16148061058457506105838161057e610ba4565b610a2a565b5b6105c3576040517f08c379a00000000000000000000000000000000000000000000000000000000081526004016105ba906127a1565b60405180910390fd5b6105cd8383610bac565b505050565b6000600880549050905090565b6105f06105ea610ba4565b82610c65565b61062f576040517f08c379a000000000000000000000000000000000000000000000000000000000815260040161062690612833565b60405180910390fd5b61063a838383610d43565b505050565b600061064a83610826565b821061068b576040517f08c379a0000000000000000000000000000000000000000000000000000000008152600401610682906128c5565b60405180910390fd5b600660008473ffffffffffffffffffffffffffffffffffffffff1673ffffffffffffffffffffffffffffffffffffffff168152602001908152602001600020600083815260200190815260200160002054905092915050565b6106ff83838360405180602001604052806000815250610985565b505050565b600061070e6105d2565b821061074f576040517f08c379a000000000000000000000000000000000000000000000000000000000815260040161074690612957565b60405180910390fd5b6008828154811061076357610762612977565b5b90600052602060002001549050919050565b6000806002600084815260200190815260200160002060009054906101000a900473ffffffffffffffffffffffffffffffffffffffff169050600073ffffffffffffffffffffffffffffffffffffffff168173ffffffffffffffffffffffffffffffffffffffff160361081d576040517f08c379a000000000000000000000000000000000000000000000000000000000815260040161081490612a18565b60405180910390fd5b80915050919050565b60008073ffffffffffffffffffffffffffffffffffffffff168273ffffffffffffffffffffffffffffffffffffffff1603610896576040517f08c379a000000000000000000000000000000000000000000000000000000000815260040161088d90612aaa565b60405180910390fd5b600360008373ffffffffffffffffffffffffffffffffffffffff1673ffffffffffffffffffffffffffffffffffffffff168152602001908152602001600020549050919050565b6060600180546108ec906125da565b80601f0160208091040260200160405190810160405280929190818152602001828054610918906125da565b80156109655780601f1061093a57610100808354040283529160200191610965565b820191906000526020600020905b81548152906001019060200180831161094857829003601f168201915b5050505050905090565b61098161097a610ba4565b8383610fa9565b5050565b610996610990610ba4565b83610c65565b6109d5576040517f08c379a00000000000000000000000000000000000000000000000000000000081526004016109cc90612833565b60405180910390fd5b6109e184848484611115565b50505050565b60606109f282611171565b9050919050565b6000610a05600b6112c2565b9050610a11600b6112d0565b610a1b83826112e6565b610a258183611304565b505050565b6000600560008473ffffffffffffffffffffffffffffffffffffffff1673ffffffffffffffffffffffffffffffffffffffff16815260200190815260200160002060008373ffffffffffffffffffffffffffffffffffffffff1673ffffffffffffffffffffffffffffffffffffffff16815260200190815260200160002060009054906101000a900460ff16905092915050565b60007f780e9d63000000000000000000000000000000000000000000000000000000007bffffffffffffffffffffffffffffffffffffffffffffffffffffffff1916827bffffffffffffffffffffffffffffffffffffffffffffffffffffffff19161480610b315750610b3082611371565b5b9050919050565b60008073ffffffffffffffffffffffffffffffffffffffff166002600084815260200190815260200160002060009054906101000a900473ffffffffffffffffffffffffffffffffffffffff1673ffffffffffffffffffffffffffffffffffffffff1614159050919050565b600033905090565b816004600083815260200190815260200160002060006101000a81548173ffffffffffffffffffffffffffffffffffffffff021916908373ffffffffffffffffffffffffffffffffffffffff160217905550808273ffffffffffffffffffffffffffffffffffffffff16610c1f83610775565b73ffffffffffffffffffffffffffffffffffffffff167f8c5be1e5ebec7d5bd14f71427d1e84f3dd0314c0f7b2291e5b200ac8c7c3b92560405160405180910390a45050565b6000610c7082610b38565b610caf576040517f08c379a0000000000000000000000000000000000000000000000000000000008152600401610ca690612b3c565b60405180910390fd5b6000610cba83610775565b90508073ffffffffffffffffffffffffffffffffffffffff168473ffffffffffffffffffffffffffffffffffffffff161480610cfc5750610cfb8185610a2a565b5b80610d3a57508373ffffffffffffffffffffffffffffffffffffffff16610d2284610436565b73ffffffffffffffffffffffffffffffffffffffff16145b91505092915050565b8273ffffffffffffffffffffffffffffffffffffffff16610d6382610775565b73ffffffffffffffffffffffffffffffffffffffff1614610db9576040517f08c379a0000000000000000000000000000000000000000000000000000000008152600401610db090612bce565b60405180910390fd5b600073ffffffffffffffffffffffffffffffffffffffff168273ffffffffffffffffffffffffffffffffffffffff1603610e28576040517f08c379a0000000000000000000000000000000000000000000000000000000008152600401610e1f90612c60565b60405180910390fd5b610e33838383611453565b610e3e600082610bac565b6001600360008573ffffffffffffffffffffffffffffffffffffffff1673ffffffffffffffffffffffffffffffffffffffff1681526020019081526020016000206000828254610e8e9190612caf565b925050819055506001600360008473ffffffffffffffffffffffffffffffffffffffff1673ffffffffffffffffffffffffffffffffffffffff1681526020019081526020016000206000828254610ee59190612ce3565b92505081905550816002600083815260200190815260200160002060006101000a81548173ffffffffffffffffffffffffffffffffffffffff021916908373ffffffffffffffffffffffffffffffffffffffff160217905550808273ffffffffffffffffffffffffffffffffffffffff168473ffffffffffffffffffffffffffffffffffffffff167fddf252ad1be2c89b69c2b068fc378daa952ba7f163c4a11628f55a4df523b3ef60405160405180910390a4610fa4838383611463565b505050565b8173ffffffffffffffffffffffffffffffffffffffff168373ffffffffffffffffffffffffffffffffffffffff1603611017576040517f08c379a000000000000000000000000000000000000000000000000000000000815260040161100e90612d85565b60405180910390fd5b80600560008573ffffffffffffffffffffffffffffffffffffffff1673ffffffffffffffffffffffffffffffffffffffff16815260200190815260200160002060008473ffffffffffffffffffffffffffffffffffffffff1673ffffffffffffffffffffffffffffffffffffffff16815260200190815260200160002060006101000a81548160ff0219169083151502179055508173ffffffffffffffffffffffffffffffffffffffff168373ffffffffffffffffffffffffffffffffffffffff167f17307eab39ab6107e8899845ad3d59bd9653f200f220920489ca2b5937696c31836040516111089190611f9f565b60405180910390a3505050565b611120848484610d43565b61112c84848484611468565b61116b576040517f08c379a000000000000000000000000000000000000000000000000000000000815260040161116290612e17565b60405180910390fd5b50505050565b606061117c82610b38565b6111bb576040517f08c379a00000000000000000000000000000000000000000000000000000000081526004016111b290612ea9565b60405180910390fd5b6000600a600084815260200190815260200160002080546111db906125da565b80601f0160208091040260200160405190810160405280929190818152602001828054611207906125da565b80156112545780601f1061122957610100808354040283529160200191611254565b820191906000526020600020905b81548152906001019060200180831161123757829003601f168201915b5050505050905060006112656115ef565b9050600081510361127a5781925050506112bd565b6000825111156112af578082604051602001611297929190612f05565b604051602081830303815290604052925050506112bd565b6112b884611606565b925050505b919050565b600081600001549050919050565b6001816000016000828254019250508190555050565b6113008282604051806020016040528060008152506116ad565b5050565b61130d82610b38565b61134c576040517f08c379a000000000000000000000000000000000000000000000000000000000815260040161134390612f9b565b60405180910390fd5b80600a6000848152602001908152602001600020908161136c9190613167565b505050565b60007f80ac58cd000000000000000000000000000000000000000000000000000000007bffffffffffffffffffffffffffffffffffffffffffffffffffffffff1916827bffffffffffffffffffffffffffffffffffffffffffffffffffffffff1916148061143c57507f5b5e139f000000000000000000000000000000000000000000000000000000007bffffffffffffffffffffffffffffffffffffffffffffffffffffffff1916827bffffffffffffffffffffffffffffffffffffffffffffffffffffffff1916145b8061144c575061144b82611708565b5b9050919050565b61145e838383611772565b505050565b505050565b60006114898473ffffffffffffffffffffffffffffffffffffffff16611884565b156115e2578373ffffffffffffffffffffffffffffffffffffffff1663150b7a026114b2610ba4565b8786866040518563ffffffff1660e01b81526004016114d4949392919061328e565b6020604051808303816000875af192505050801561151057506040513d601f19601f8201168201806040525081019061150d91906132ef565b60015b611592573d8060008114611540576040519150601f19603f3d011682016040523d82523d6000602084013e611545565b606091505b50600081510361158a576040517f08c379a000000000000000000000000000000000000000000000000000000000815260040161158190612e17565b60405180910390fd5b805181602001fd5b63150b7a0260e01b7bffffffffffffffffffffffffffffffffffffffffffffffffffffffff1916817bffffffffffffffffffffffffffffffffffffffffffffffffffffffff1916149150506115e7565b600190505b949350505050565b606060405180602001604052806000815250905090565b606061161182610b38565b611650576040517f08c379a00000000000000000000000000000000000000000000000000000000081526004016116479061338e565b60405180910390fd5b600061165a6115ef565b9050600081511161167a57604051806020016040528060008152506116a5565b80611684846118a7565b604051602001611695929190612f05565b6040516020818303038152906040525b915050919050565b6116b78383611a07565b6116c46000848484611468565b611703576040517f08c379a00000000000000000000000000000000000000000000000000000000081526004016116fa90612e17565b60405180910390fd5b505050565b60007f01ffc9a7000000000000000000000000000000000000000000000000000000007bffffffffffffffffffffffffffffffffffffffffffffffffffffffff1916827bffffffffffffffffffffffffffffffffffffffffffffffffffffffff1916149050919050565b61177d838383611be0565b600073ffffffffffffffffffffffffffffffffffffffff168373ffffffffffffffffffffffffffffffffffffffff16036117bf576117ba81611be5565b6117fe565b8173ffffffffffffffffffffffffffffffffffffffff168373ffffffffffffffffffffffffffffffffffffffff16146117fd576117fc8382611c2e565b5b5b600073ffffffffffffffffffffffffffffffffffffffff168273ffffffffffffffffffffffffffffffffffffffff16036118405761183b81611d9b565b61187f565b8273ffffffffffffffffffffffffffffffffffffffff168273ffffffffffffffffffffffffffffffffffffffff161461187e5761187d8282611e6c565b5b5b505050565b6000808273ffffffffffffffffffffffffffffffffffffffff163b119050919050565b6060600082036118ee576040518060400160405280600181526020017f30000000000000000000000000000000000000000000000000000000000000008152509050611a02565b600082905060005b60008214611920578080611909906133ae565b915050600a826119199190613425565b91506118f6565b60008167ffffffffffffffff81111561193c5761193b6122c0565b5b6040519080825280601f01601f19166020018201604052801561196e5781602001600182028036833780820191505090505b5090505b600085146119fb576001826119879190612caf565b9150600a856119969190613456565b60306119a29190612ce3565b60f81b8183815181106119b8576119b7612977565b5b60200101907effffffffffffffffffffffffffffffffffffffffffffffffffffffffffffff1916908160001a905350600a856119f49190613425565b9450611972565b8093505050505b919050565b600073ffffffffffffffffffffffffffffffffffffffff168273ffffffffffffffffffffffffffffffffffffffff1603611a76576040517f08c379a0000000000000000000000000000000000000000000000000000000008152600401611a6d906134d3565b60405180910390fd5b611a7f81610b38565b15611abf576040517f08c379a0000000000000000000000000000000000000000000000000000000008152600401611ab69061353f565b60405180910390fd5b611acb60008383611453565b6001600360008473ffffffffffffffffffffffffffffffffffffffff1673ffffffffffffffffffffffffffffffffffffffff1681526020019081526020016000206000828254611b1b9190612ce3565b92505081905550816002600083815260200190815260200160002060006101000a81548173ffffffffffffffffffffffffffffffffffffffff021916908373ffffffffffffffffffffffffffffffffffffffff160217905550808273ffffffffffffffffffffffffffffffffffffffff16600073ffffffffffffffffffffffffffffffffffffffff167fddf252ad1be2c89b69c2b068fc378daa952ba7f163c4a11628f55a4df523b3ef60405160405180910390a4611bdc60008383611463565b5050565b505050565b6008805490506009600083815260200190815260200160002081905550600881908060018154018082558091505060019003906000526020600020016000909190919091505550565b60006001611c3b84610826565b611c459190612caf565b9050600060076000848152602001908152602001600020549050818114611d2a576000600660008673ffffffffffffffffffffffffffffffffffffffff1673ffffffffffffffffffffffffffffffffffffffff168152602001908152602001600020600084815260200190815260200160002054905080600660008773ffffffffffffffffffffffffffffffffffffffff1673ffffffffffffffffffffffffffffffffffffffff168152602001908152602001600020600084815260200190815260200160002081905550816007600083815260200190815260200160002081905550505b6007600084815260200190815260200160002060009055600660008573ffffffffffffffffffffffffffffffffffffffff1673ffffffffffffffffffffffffffffffffffffffff16815260200190815260200160002060008381526020019081526020016000206000905550505050565b60006001600880549050611daf9190612caf565b9050600060096000848152602001908152602001600020549050600060088381548110611ddf57611dde612977565b5b906000526020600020015490508060088381548110611e0157611e00612977565b5b906000526020600020018190555081600960008381526020019081526020016000208190555060096000858152602001908152602001600020600090556008805480611e5057611e4f61355f565b5b6001900381819060005260206000200160009055905550505050565b6000611e7783610826565b905081600660008573ffffffffffffffffffffffffffffffffffffffff1673ffffffffffffffffffffffffffffffffffffffff168152602001908152602001600020600083815260200190815260200160002081905550806007600084815260200190815260200160002081905550505050565b6000604051905090565b600080fd5b600080fd5b60007fffffffff0000000000000000000000000000000000000000000000000000000082169050919050565b611f3481611eff565b8114611f3f57600080fd5b50565b600081359050611f5181611f2b565b92915050565b600060208284031215611f6d57611f6c611ef5565b5b6000611f7b84828501611f42565b91505092915050565b60008115159050919050565b611f9981611f84565b82525050565b6000602082019050611fb46000830184611f90565b92915050565b600081519050919050565b600082825260208201905092915050565b60005b83811015611ff4578082015181840152602081019050611fd9565b83811115612003576000848401525b50505050565b6000601f19601f8301169050919050565b600061202582611fba565b61202f8185611fc5565b935061203f818560208601611fd6565b61204881612009565b840191505092915050565b6000602082019050818103600083015261206d818461201a565b905092915050565b6000819050919050565b61208881612075565b811461209357600080fd5b50565b6000813590506120a58161207f565b92915050565b6000602082840312156120c1576120c0611ef5565b5b60006120cf84828501612096565b91505092915050565b600073ffffffffffffffffffffffffffffffffffffffff82169050919050565b6000612103826120d8565b9050919050565b612113816120f8565b82525050565b600060208201905061212e600083018461210a565b92915050565b61213d816120f8565b811461214857600080fd5b50565b60008135905061215a81612134565b92915050565b6000806040838503121561217757612176611ef5565b5b60006121858582860161214b565b925050602061219685828601612096565b9150509250929050565b6121a981612075565b82525050565b60006020820190506121c460008301846121a0565b92915050565b6000806000606084860312156121e3576121e2611ef5565b5b60006121f18682870161214b565b93505060206122028682870161214b565b925050604061221386828701612096565b9150509250925092565b60006020828403121561223357612232611ef5565b5b60006122418482850161214b565b91505092915050565b61225381611f84565b811461225e57600080fd5b50565b6000813590506122708161224a565b92915050565b6000806040838503121561228d5761228c611ef5565b5b600061229b8582860161214b565b92505060206122ac85828601612261565b9150509250929050565b600080fd5b600080fd5b7f4e487b7100000000000000000000000000000000000000000000000000000000600052604160045260246000fd5b6122f882612009565b810181811067ffffffffffffffff82111715612317576123166122c0565b5b80604052505050565b600061232a611eeb565b905061233682826122ef565b919050565b600067ffffffffffffffff821115612356576123556122c0565b5b61235f82612009565b9050602081019050919050565b82818337600083830152505050565b600061238e6123898461233b565b612320565b9050828152602081018484840111156123aa576123a96122bb565b5b6123b584828561236c565b509392505050565b600082601f8301126123d2576123d16122b6565b5b81356123e284826020860161237b565b91505092915050565b6000806000806080858703121561240557612404611ef5565b5b60006124138782880161214b565b94505060206124248782880161214b565b935050604061243587828801612096565b925050606085013567ffffffffffffffff81111561245657612455611efa565b5b612462878288016123bd565b91505092959194509250565b600067ffffffffffffffff821115612489576124886122c0565b5b61249282612009565b9050602081019050919050565b60006124b26124ad8461246e565b612320565b9050828152602081018484840111156124ce576124cd6122bb565b5b6124d984828561236c565b509392505050565b600082601f8301126124f6576124f56122b6565b5b813561250684826020860161249f565b91505092915050565b6000806040838503121561252657612525611ef5565b5b60006125348582860161214b565b925050602083013567ffffffffffffffff81111561255557612554611efa565b5b612561858286016124e1565b9150509250929050565b6000806040838503121561258257612581611ef5565b5b60006125908582860161214b565b92505060206125a18582860161214b565b9150509250929050565b7f4e487b7100000000000000000000000000000000000000000000000000000000600052602260045260246000fd5b600060028204905060018216806125f257607f821691505b602082108103612605576126046125ab565b5b50919050565b7f4552433732313a20617070726f76656420717565727920666f72206e6f6e657860008201527f697374656e7420746f6b656e0000000000000000000000000000000000000000602082015250565b6000612667602c83611fc5565b91506126728261260b565b604082019050919050565b600060208201905081810360008301526126968161265a565b9050919050565b7f4552433732313a20617070726f76616c20746f2063757272656e74206f776e6560008201527f7200000000000000000000000000000000000000000000000000000000000000602082015250565b60006126f9602183611fc5565b91506127048261269d565b604082019050919050565b60006020820190508181036000830152612728816126ec565b9050919050565b7f4552433732313a20617070726f76652063616c6c6572206973206e6f74206f7760008201527f6e6572206e6f7220617070726f76656420666f7220616c6c0000000000000000602082015250565b600061278b603883611fc5565b91506127968261272f565b604082019050919050565b600060208201905081810360008301526127ba8161277e565b9050919050565b7f4552433732313a207472616e736665722063616c6c6572206973206e6f74206f60008201527f776e6572206e6f7220617070726f766564000000000000000000000000000000602082015250565b600061281d603183611fc5565b9150612828826127c1565b604082019050919050565b6000602082019050818103600083015261284c81612810565b9050919050565b7f455243373231456e756d657261626c653a206f776e657220696e646578206f7560008201527f74206f6620626f756e6473000000000000000000000000000000000000000000602082015250565b60006128af602b83611fc5565b91506128ba82612853565b604082019050919050565b600060208201905081810360008301526128de816128a2565b9050919050565b7f455243373231456e756d657261626c653a20676c6f62616c20696e646578206f60008201527f7574206f6620626f756e64730000000000000000000000000000000000000000602082015250565b6000612941602c83611fc5565b915061294c826128e5565b604082019050919050565b6000602082019050818103600083015261297081612934565b9050919050565b7f4e487b7100000000000000000000000000000000000000000000000000000000600052603260045260246000fd5b7f4552433732313a206f776e657220717565727920666f72206e6f6e657869737460008201527f656e7420746f6b656e0000000000000000000000000000000000000000000000602082015250565b6000612a02602983611fc5565b9150612a0d826129a6565b604082019050919050565b60006020820190508181036000830152612a31816129f5565b9050919050565b7f4552433732313a2062616c616e636520717565727920666f7220746865207a6560008201527f726f206164647265737300000000000000000000000000000000000000000000602082015250565b6000612a94602a83611fc5565b9150612a9f82612a38565b604082019050919050565b60006020820190508181036000830152612ac381612a87565b9050919050565b7f4552433732313a206f70657261746f7220717565727920666f72206e6f6e657860008201527f697374656e7420746f6b656e0000000000000000000000000000000000000000602082015250565b6000612b26602c83611fc5565b9150612b3182612aca565b604082019050919050565b60006020820190508181036000830152612b5581612b19565b9050919050565b7f4552433732313a207472616e736665722066726f6d20696e636f72726563742060008201527f6f776e6572000000000000000000000000000000000000000000000000000000602082015250565b6000612bb8602583611fc5565b9150612bc382612b5c565b604082019050919050565b60006020820190508181036000830152612be781612bab565b9050919050565b7f4552433732313a207472616e7366657220746f20746865207a65726f2061646460008201527f7265737300000000000000000000000000000000000000000000000000000000602082015250565b6000612c4a602483611fc5565b9150612c5582612bee565b604082019050919050565b60006020820190508181036000830152612c7981612c3d565b9050919050565b7f4e487b7100000000000000000000000000000000000000000000000000000000600052601160045260246000fd5b6000612cba82612075565b9150612cc583612075565b925082821015612cd857612cd7612c80565b5b828203905092915050565b6000612cee82612075565b9150612cf983612075565b9250827fffffffffffffffffffffffffffffffffffffffffffffffffffffffffffffffff03821115612d2e57612d2d612c80565b5b828201905092915050565b7f4552433732313a20617070726f766520746f2063616c6c657200000000000000600082015250565b6000612d6f601983611fc5565b9150612d7a82612d39565b602082019050919050565b60006020820190508181036000830152612d9e81612d62565b9050919050565b7f4552433732313a207472616e7366657220746f206e6f6e20455243373231526560008201527f63656976657220696d706c656d656e7465720000000000000000000000000000602082015250565b6000612e01603283611fc5565b9150612e0c82612da5565b604082019050919050565b60006020820190508181036000830152612e3081612df4565b9050919050565b7f45524337323155524953746f726167653a2055524920717565727920666f722060008201527f6e6f6e6578697374656e7420746f6b656e000000000000000000000000000000602082015250565b6000612e93603183611fc5565b9150612e9e82612e37565b604082019050919050565b60006020820190508181036000830152612ec281612e86565b9050919050565b600081905092915050565b6000612edf82611fba565b612ee98185612ec9565b9350612ef9818560208601611fd6565b80840191505092915050565b6000612f118285612ed4565b9150612f1d8284612ed4565b91508190509392505050565b7f45524337323155524953746f726167653a2055524920736574206f66206e6f6e60008201527f6578697374656e7420746f6b656e000000000000000000000000000000000000602082015250565b6000612f85602e83611fc5565b9150612f9082612f29565b604082019050919050565b60006020820190508181036000830152612fb481612f78565b9050919050565b60008190508160005260206000209050919050565b60006020601f8301049050919050565b600082821b905092915050565b60006008830261301d7fffffffffffffffffffffffffffffffffffffffffffffffffffffffffffffffff82612fe0565b6130278683612fe0565b95508019841693508086168417925050509392505050565b6000819050919050565b600061306461305f61305a84612075565b61303f565b612075565b9050919050565b6000819050919050565b61307e83613049565b61309261308a8261306b565b848454612fed565b825550505050565b600090565b6130a761309a565b6130b2818484613075565b505050565b5b818110156130d6576130cb60008261309f565b6001810190506130b8565b5050565b601f82111561311b576130ec81612fbb565b6130f584612fd0565b81016020851015613104578190505b61311861311085612fd0565b8301826130b7565b50505b505050565b600082821c905092915050565b600061313e60001984600802613120565b1980831691505092915050565b6000613157838361312d565b9150826002028217905092915050565b61317082611fba565b67ffffffffffffffff811115613189576131886122c0565b5b61319382546125da565b61319e8282856130da565b600060209050601f8311600181146131d157600084156131bf578287015190505b6131c9858261314b565b865550613231565b601f1984166131df86612fbb565b60005b82811015613207578489015182556001820191506020850194506020810190506131e2565b868310156132245784890151613220601f89168261312d565b8355505b6001600288020188555050505b505050505050565b600081519050919050565b600082825260208201905092915050565b600061326082613239565b61326a8185613244565b935061327a818560208601611fd6565b61328381612009565b840191505092915050565b60006080820190506132a3600083018761210a565b6132b0602083018661210a565b6132bd60408301856121a0565b81810360608301526132cf8184613255565b905095945050505050565b6000815190506132e981611f2b565b92915050565b60006020828403121561330557613304611ef5565b5b6000613313848285016132da565b91505092915050565b7f4552433732314d657461646174613a2055524920717565727920666f72206e6f60008201527f6e6578697374656e7420746f6b656e0000000000000000000000000000000000602082015250565b6000613378602f83611fc5565b91506133838261331c565b604082019050919050565b600060208201905081810360008301526133a78161336b565b9050919050565b60006133b982612075565b91507fffffffffffffffffffffffffffffffffffffffffffffffffffffffffffffffff82036133eb576133ea612c80565b5b600182019050919050565b7f4e487b7100000000000000000000000000000000000000000000000000000000600052601260045260246000fd5b600061343082612075565b915061343b83612075565b92508261344b5761344a6133f6565b5b828204905092915050565b600061346182612075565b915061346c83612075565b92508261347c5761347b6133f6565b5b828206905092915050565b7f4552433732313a206d696e7420746f20746865207a65726f2061646472657373600082015250565b60006134bd602083611fc5565b91506134c882613487565b602082019050919050565b600060208201905081810360008301526134ec816134b0565b9050919050565b7f4552433732313a20746f6b656e20616c7265616479206d696e74656400000000600082015250565b6000613529601c83611fc5565b9150613534826134f3565b602082019050919050565b600060208201905081810360008301526135588161351c565b9050919050565b7f4e487b7100000000000000000000000000000000000000000000000000000000600052603160045260246000fdfea2646970667358221220bb54de5ac6336e8567b4747b2030dfa0ffe8c719c456d25f46b9fe621fe1677a64736f6c634300080f0033",
    "immutableReferences": {},
    "source": "// SPDX-License-Identifier: MIT\npragma solidity ^0.8.14;\n\nimport \"@openzeppelin/contracts/token/ERC721/ERC721.sol\";\nimport \"@openzeppelin/contracts/token/ERC721/extensions/ERC721URIStorage.sol\";\nimport \"@openzeppelin/contracts/token/ERC721/extensions/ERC721Enumerable.sol\";\nimport \"@openzeppelin/contracts/utils/Counters.sol\";\n\ncontract NFTMinter is ERC721, ERC721Enumerable, ERC721URIStorage {\n    using Counters for Counters.Counter;\n\n    Counters.Counter private _tokenIdCounter;\n\n    constructor(string memory tokenName, string memory symbol) ERC721(tokenName, symbol) {}\n\n    function safeMint(address to, string memory uri)\n    public\n    {\n        uint256 tokenId = _tokenIdCounter.current();\n        _tokenIdCounter.increment();\n        _safeMint(to, tokenId);\n        _setTokenURI(tokenId, uri);\n    }\n\n    // The following functions are overrides required by Solidity.\n\n    function _beforeTokenTransfer(address from, address to, uint256 tokenId)\n    internal\n    override(ERC721, ERC721Enumerable)\n    {\n        super._beforeTokenTransfer(from, to, tokenId);\n    }\n\n    function _burn(uint256 tokenId) internal override(ERC721, ERC721URIStorage) {\n        super._burn(tokenId);\n    }\n\n    function tokenURI(uint256 tokenId)\n    public\n    view\n    override(ERC721, ERC721URIStorage)\n    returns (string memory)\n    {\n        return super.tokenURI(tokenId);\n    }\n\n    function supportsInterface(bytes4 interfaceId)\n    public\n    view\n    override(ERC721, ERC721Enumerable)\n    returns (bool)\n    {\n        return super.supportsInterface(interfaceId);\n    }\n}\n",
    "sourcePath": "/Users/adrien/Alyra/opensea-clone/contracts/NFTMinter.sol",
    "compiler": {
        "name": "solc",
        "version": "0.8.15+commit.e14f2714.Emscripten.clang"
    },
    "schemaVersion": "3.4.3",
    "updatedAt": "2022-08-29T13:53:55.391Z",
    "networkType": "ethereum",
    "devdoc": {
        "kind": "dev",
        "methods": {
            "approve(address,uint256)": {
                "details": "See {IERC721-approve}."
            },
            "balanceOf(address)": {
                "details": "See {IERC721-balanceOf}."
            },
            "getApproved(uint256)": {
                "details": "See {IERC721-getApproved}."
            },
            "isApprovedForAll(address,address)": {
                "details": "See {IERC721-isApprovedForAll}."
            },
            "name()": {
                "details": "See {IERC721Metadata-name}."
            },
            "ownerOf(uint256)": {
                "details": "See {IERC721-ownerOf}."
            },
            "safeTransferFrom(address,address,uint256)": {
                "details": "See {IERC721-safeTransferFrom}."
            },
            "safeTransferFrom(address,address,uint256,bytes)": {
                "details": "See {IERC721-safeTransferFrom}."
            },
            "setApprovalForAll(address,bool)": {
                "details": "See {IERC721-setApprovalForAll}."
            },
            "symbol()": {
                "details": "See {IERC721Metadata-symbol}."
            },
            "tokenByIndex(uint256)": {
                "details": "See {IERC721Enumerable-tokenByIndex}."
            },
            "tokenOfOwnerByIndex(address,uint256)": {
                "details": "See {IERC721Enumerable-tokenOfOwnerByIndex}."
            },
            "totalSupply()": {
                "details": "See {IERC721Enumerable-totalSupply}."
            },
            "transferFrom(address,address,uint256)": {
                "details": "See {IERC721-transferFrom}."
            }
        },
        "version": 1
    },
    "userdoc": {
        "kind": "user",
        "methods": {},
        "version": 1
    }
}