{
  "contractName": "NFTMarketplace",
  "abi": [
    {
      "inputs": [
        {
          "internalType": "address",
          "name": "nftAddress",
          "type": "address"
        },
        {
          "internalType": "uint256",
          "name": "tokenId",
          "type": "uint256"
        }
      ],
      "name": "AlreadyListed",
      "type": "error"
    },
    {
      "inputs": [
        {
          "internalType": "address",
          "name": "nftAddress",
          "type": "address"
        }
      ],
      "name": "CollectionAlreadyRegistered",
      "type": "error"
    },
    {
      "inputs": [
        {
          "internalType": "address",
          "name": "nftAddress",
          "type": "address"
        }
      ],
      "name": "CollectionNotRegistered",
      "type": "error"
    },
    {
      "inputs": [],
      "name": "NoProfits",
      "type": "error"
    },
    {
      "inputs": [],
      "name": "NotApprovedForMarketplace",
      "type": "error"
    },
    {
      "inputs": [
        {
          "internalType": "address",
          "name": "nftAddress",
          "type": "address"
        },
        {
          "internalType": "uint256",
          "name": "tokenId",
          "type": "uint256"
        }
      ],
      "name": "NotListed",
      "type": "error"
    },
    {
      "inputs": [],
      "name": "NotOwner",
      "type": "error"
    },
    {
      "inputs": [],
      "name": "PriceMustBeAboveZero",
      "type": "error"
    },
    {
      "inputs": [
        {
          "internalType": "address",
          "name": "nftAddress",
          "type": "address"
        },
        {
          "internalType": "uint256",
          "name": "tokenId",
          "type": "uint256"
        },
        {
          "internalType": "uint256",
          "name": "price",
          "type": "uint256"
        }
      ],
      "name": "PriceNotMet",
      "type": "error"
    },
    {
      "anonymous": false,
      "inputs": [
        {
          "indexed": true,
          "internalType": "string",
          "name": "name",
          "type": "string"
        },
        {
          "indexed": true,
          "internalType": "address",
          "name": "nftAddress",
          "type": "address"
        },
        {
          "indexed": true,
          "internalType": "address",
          "name": "from",
          "type": "address"
        }
      ],
      "name": "CollectionRegistered",
      "type": "event"
    },
    {
      "anonymous": false,
      "inputs": [
        {
          "indexed": true,
          "internalType": "uint256",
          "name": "tokenId",
          "type": "uint256"
        },
        {
          "indexed": true,
          "internalType": "address",
          "name": "nftAddress",
          "type": "address"
        },
        {
          "indexed": true,
          "internalType": "address",
          "name": "buyer",
          "type": "address"
        },
        {
          "indexed": false,
          "internalType": "uint256",
          "name": "price",
          "type": "uint256"
        }
      ],
      "name": "ItemBought",
      "type": "event"
    },
    {
      "anonymous": false,
      "inputs": [
        {
          "indexed": true,
          "internalType": "uint256",
          "name": "tokenId",
          "type": "uint256"
        },
        {
          "indexed": true,
          "internalType": "address",
          "name": "nftAddress",
          "type": "address"
        },
        {
          "indexed": true,
          "internalType": "address",
          "name": "seller",
          "type": "address"
        }
      ],
      "name": "ItemCanceled",
      "type": "event"
    },
    {
      "anonymous": false,
      "inputs": [
        {
          "indexed": true,
          "internalType": "uint256",
          "name": "tokenId",
          "type": "uint256"
        },
        {
          "indexed": true,
          "internalType": "address",
          "name": "nftAddress",
          "type": "address"
        },
        {
          "indexed": true,
          "internalType": "address",
          "name": "seller",
          "type": "address"
        },
        {
          "indexed": false,
          "internalType": "uint256",
          "name": "price",
          "type": "uint256"
        }
      ],
      "name": "ItemListed",
      "type": "event"
    },
    {
      "anonymous": false,
      "inputs": [
        {
          "indexed": true,
          "internalType": "address",
          "name": "previousOwner",
          "type": "address"
        },
        {
          "indexed": true,
          "internalType": "address",
          "name": "newOwner",
          "type": "address"
        }
      ],
      "name": "OwnershipTransferred",
      "type": "event"
    },
    {
      "inputs": [],
      "name": "owner",
      "outputs": [
        {
          "internalType": "address",
          "name": "",
          "type": "address"
        }
      ],
      "stateMutability": "view",
      "type": "function",
      "constant": true
    },
    {
      "inputs": [],
      "name": "renounceOwnership",
      "outputs": [],
      "stateMutability": "nonpayable",
      "type": "function"
    },
    {
      "inputs": [
        {
          "internalType": "address",
          "name": "newOwner",
          "type": "address"
        }
      ],
      "name": "transferOwnership",
      "outputs": [],
      "stateMutability": "nonpayable",
      "type": "function"
    },
    {
      "inputs": [
        {
          "internalType": "address",
          "name": "nftAddress",
          "type": "address"
        },
        {
          "internalType": "uint256",
          "name": "tokenId",
          "type": "uint256"
        },
        {
          "internalType": "uint256",
          "name": "price",
          "type": "uint256"
        }
      ],
      "name": "listItem",
      "outputs": [],
      "stateMutability": "nonpayable",
      "type": "function"
    },
    {
      "inputs": [
        {
          "internalType": "address",
          "name": "nftAddress",
          "type": "address"
        },
        {
          "internalType": "uint256",
          "name": "tokenId",
          "type": "uint256"
        },
        {
          "internalType": "uint256",
          "name": "newPrice",
          "type": "uint256"
        }
      ],
      "name": "updateListing",
      "outputs": [],
      "stateMutability": "nonpayable",
      "type": "function"
    },
    {
      "inputs": [
        {
          "internalType": "address",
          "name": "nftAddress",
          "type": "address"
        },
        {
          "internalType": "uint256",
          "name": "tokenId",
          "type": "uint256"
        }
      ],
      "name": "cancelListing",
      "outputs": [],
      "stateMutability": "nonpayable",
      "type": "function"
    },
    {
      "inputs": [
        {
          "internalType": "address",
          "name": "nftAddress",
          "type": "address"
        },
        {
          "internalType": "uint256",
          "name": "tokenId",
          "type": "uint256"
        }
      ],
      "name": "buyItem",
      "outputs": [],
      "stateMutability": "payable",
      "type": "function",
      "payable": true
    },
    {
      "inputs": [],
      "name": "withdrawProfits",
      "outputs": [],
      "stateMutability": "nonpayable",
      "type": "function"
    },
    {
      "inputs": [
        {
          "internalType": "string",
          "name": "name",
          "type": "string"
        },
        {
          "internalType": "string",
          "name": "description",
          "type": "string"
        },
        {
          "internalType": "address",
          "name": "nftAddress",
          "type": "address"
        },
        {
          "internalType": "string",
          "name": "authorName",
          "type": "string"
        }
      ],
      "name": "addCollection",
      "outputs": [],
      "stateMutability": "nonpayable",
      "type": "function"
    },
    {
      "inputs": [
        {
          "internalType": "address",
          "name": "nftAddress",
          "type": "address"
        }
      ],
      "name": "verifyCollection",
      "outputs": [],
      "stateMutability": "nonpayable",
      "type": "function"
    },
    {
      "inputs": [
        {
          "internalType": "address",
          "name": "nftAddress",
          "type": "address"
        },
        {
          "internalType": "uint256",
          "name": "tokenId",
          "type": "uint256"
        }
      ],
      "name": "getListing",
      "outputs": [
        {
          "components": [
            {
              "internalType": "uint256",
              "name": "price",
              "type": "uint256"
            },
            {
              "internalType": "address",
              "name": "seller",
              "type": "address"
            }
          ],
          "internalType": "struct NFTMarketplace.Listing",
          "name": "",
          "type": "tuple"
        }
      ],
      "stateMutability": "view",
      "type": "function",
      "constant": true
    },
    {
      "inputs": [
        {
          "internalType": "address",
          "name": "seller",
          "type": "address"
        }
      ],
      "name": "getProfits",
      "outputs": [
        {
          "internalType": "uint256",
          "name": "",
          "type": "uint256"
        }
      ],
      "stateMutability": "view",
      "type": "function",
      "constant": true
    },
    {
      "inputs": [],
      "name": "getCollectionCount",
      "outputs": [
        {
          "internalType": "uint256",
          "name": "count",
          "type": "uint256"
        }
      ],
      "stateMutability": "view",
      "type": "function",
      "constant": true
    },
    {
      "inputs": [
        {
          "internalType": "uint256",
          "name": "index",
          "type": "uint256"
        }
      ],
      "name": "getCollectionAtIndex",
      "outputs": [
        {
          "components": [
            {
              "internalType": "string",
              "name": "name",
              "type": "string"
            },
            {
              "internalType": "string",
              "name": "description",
              "type": "string"
            },
            {
              "internalType": "address",
              "name": "nftAddress",
              "type": "address"
            },
            {
              "internalType": "string",
              "name": "authorName",
              "type": "string"
            },
            {
              "internalType": "address",
              "name": "authorAddress",
              "type": "address"
            },
            {
              "internalType": "uint256",
              "name": "index",
              "type": "uint256"
            },
            {
              "internalType": "bool",
              "name": "verified",
              "type": "bool"
            }
          ],
          "internalType": "struct NFTMarketplace.Collection",
          "name": "",
          "type": "tuple"
        }
      ],
      "stateMutability": "view",
      "type": "function",
      "constant": true
    },
    {
      "inputs": [
        {
          "internalType": "address",
          "name": "contractAddress",
          "type": "address"
        }
      ],
      "name": "getCollectionByAddress",
      "outputs": [
        {
          "components": [
            {
              "internalType": "string",
              "name": "name",
              "type": "string"
            },
            {
              "internalType": "string",
              "name": "description",
              "type": "string"
            },
            {
              "internalType": "address",
              "name": "nftAddress",
              "type": "address"
            },
            {
              "internalType": "string",
              "name": "authorName",
              "type": "string"
            },
            {
              "internalType": "address",
              "name": "authorAddress",
              "type": "address"
            },
            {
              "internalType": "uint256",
              "name": "index",
              "type": "uint256"
            },
            {
              "internalType": "bool",
              "name": "verified",
              "type": "bool"
            }
          ],
          "internalType": "struct NFTMarketplace.Collection",
          "name": "",
          "type": "tuple"
        }
      ],
      "stateMutability": "view",
      "type": "function",
      "constant": true
    }
  ],
  "bytecode": "0x60806040523480156200001157600080fd5b5060016000819055506200003a6200002e6200004060201b60201c565b6200004860201b60201c565b6200010e565b600033905090565b6000600160009054906101000a900473ffffffffffffffffffffffffffffffffffffffff16905081600160006101000a81548173ffffffffffffffffffffffffffffffffffffffff021916908373ffffffffffffffffffffffffffffffffffffffff1602179055508173ffffffffffffffffffffffffffffffffffffffff168173ffffffffffffffffffffffffffffffffffffffff167f8be0079c531659141344cd1fd0a4f28419497f9722a3daafe3b4186f6b6457e060405160405180910390a35050565b61305e806200011e6000396000f3fe6080604052600436106100e85760003560e01c806389bfd38f1161008a578063b9828c5911610059578063b9828c59146102ab578063f002804a146102e8578063f2fde38b14610325578063f772adf11461034e576100e8565b806389bfd38f146102125780638da5cb5b1461023b5780639f37092a14610266578063b2ddee0614610282576100e8565b806339913e09116100c657806339913e091461016a578063715018a61461018157806378df0fe11461019857806388700d1c146101d5576100e8565b8063181cb0b4146100ed5780631c10106f146101165780633908cc9314610141575b600080fd5b3480156100f957600080fd5b50610114600480360381019061010f919061252b565b610377565b005b34801561012257600080fd5b5061012b610780565b60405161013891906125ff565b60405180910390f35b34801561014d57600080fd5b506101686004803603810190610163919061261a565b61078d565b005b34801561017657600080fd5b5061017f610953565b005b34801561018d57600080fd5b50610196610ac6565b005b3480156101a457600080fd5b506101bf60048036038101906101ba919061261a565b610b4e565b6040516101cc91906125ff565b60405180910390f35b3480156101e157600080fd5b506101fc60048036038101906101f79190612673565b610b97565b6040516102099190612700565b60405180910390f35b34801561021e57600080fd5b506102396004803603810190610234919061271b565b610c62565b005b34801561024757600080fd5b506102506110bc565b60405161025d919061277d565b60405180910390f35b610280600480360381019061027b9190612673565b6110e6565b005b34801561028e57600080fd5b506102a960048036038101906102a49190612673565b611518565b005b3480156102b757600080fd5b506102d260048036038101906102cd9190612798565b6117f8565b6040516102df9190612909565b60405180910390f35b3480156102f457600080fd5b5061030f600480360381019061030a919061261a565b611b1c565b60405161031c9190612909565b60405180910390f35b34801561033157600080fd5b5061034c6004803603810190610347919061261a565b611dfc565b005b34801561035a57600080fd5b506103756004803603810190610370919061271b565b611ef3565b005b81600060028054905011801561041a57508073ffffffffffffffffffffffffffffffffffffffff16600460008373ffffffffffffffffffffffffffffffffffffffff1673ffffffffffffffffffffffffffffffffffffffff16815260200190815260200160002060020160009054906101000a900473ffffffffffffffffffffffffffffffffffffffff1673ffffffffffffffffffffffffffffffffffffffff16145b1561045c57806040517f5359f009000000000000000000000000000000000000000000000000000000008152600401610453919061277d565b60405180910390fd5b6002839080600181540180825580915050600190039060005260206000200160009091909190916101000a81548173ffffffffffffffffffffffffffffffffffffffff021916908373ffffffffffffffffffffffffffffffffffffffff16021790555084600460008573ffffffffffffffffffffffffffffffffffffffff1673ffffffffffffffffffffffffffffffffffffffff168152602001908152602001600020600001908161050e9190612b37565b5083600460008573ffffffffffffffffffffffffffffffffffffffff1673ffffffffffffffffffffffffffffffffffffffff168152602001908152602001600020600101908161055e9190612b37565b5082600460008573ffffffffffffffffffffffffffffffffffffffff1673ffffffffffffffffffffffffffffffffffffffff16815260200190815260200160002060020160006101000a81548173ffffffffffffffffffffffffffffffffffffffff021916908373ffffffffffffffffffffffffffffffffffffffff16021790555081600460008573ffffffffffffffffffffffffffffffffffffffff1673ffffffffffffffffffffffffffffffffffffffff168152602001908152602001600020600301908161062f9190612b37565b5033600460008573ffffffffffffffffffffffffffffffffffffffff1673ffffffffffffffffffffffffffffffffffffffff16815260200190815260200160002060040160006101000a81548173ffffffffffffffffffffffffffffffffffffffff021916908373ffffffffffffffffffffffffffffffffffffffff16021790555060016002805490506106c39190612c38565b600460008573ffffffffffffffffffffffffffffffffffffffff1673ffffffffffffffffffffffffffffffffffffffff168152602001908152602001600020600501819055503373ffffffffffffffffffffffffffffffffffffffff168373ffffffffffffffffffffffffffffffffffffffff16866040516107459190612ca8565b60405180910390207f3a0c95a7b8facdb0043f0c59befe4db667cc20b17843f4b091ece39c4a801aba60405160405180910390a45050505050565b6000600280549050905090565b806000600280549050148061083057508073ffffffffffffffffffffffffffffffffffffffff16600460008373ffffffffffffffffffffffffffffffffffffffff1673ffffffffffffffffffffffffffffffffffffffff16815260200190815260200160002060020160009054906101000a900473ffffffffffffffffffffffffffffffffffffffff1673ffffffffffffffffffffffffffffffffffffffff1614155b1561087257806040517fb1561162000000000000000000000000000000000000000000000000000000008152600401610869919061277d565b60405180910390fd5b61087a61220a565b73ffffffffffffffffffffffffffffffffffffffff166108986110bc565b73ffffffffffffffffffffffffffffffffffffffff16146108ee576040517f08c379a00000000000000000000000000000000000000000000000000000000081526004016108e590612d1c565b60405180910390fd5b6000600460008473ffffffffffffffffffffffffffffffffffffffff1673ffffffffffffffffffffffffffffffffffffffff168152602001908152602001600020905060018160060160006101000a81548160ff021916908315150217905550505050565b6000600760003373ffffffffffffffffffffffffffffffffffffffff1673ffffffffffffffffffffffffffffffffffffffff168152602001908152602001600020549050600081116109d1576040517fa2fe08cf00000000000000000000000000000000000000000000000000000000815260040160405180910390fd5b6000600760003373ffffffffffffffffffffffffffffffffffffffff1673ffffffffffffffffffffffffffffffffffffffff1681526020019081526020016000208190555060003373ffffffffffffffffffffffffffffffffffffffff1682604051610a3c90612d6d565b60006040518083038185875af1925050503d8060008114610a79576040519150601f19603f3d011682016040523d82523d6000602084013e610a7e565b606091505b5050905080610ac2576040517f08c379a0000000000000000000000000000000000000000000000000000000008152600401610ab990612dce565b60405180910390fd5b5050565b610ace61220a565b73ffffffffffffffffffffffffffffffffffffffff16610aec6110bc565b73ffffffffffffffffffffffffffffffffffffffff1614610b42576040517f08c379a0000000000000000000000000000000000000000000000000000000008152600401610b3990612d1c565b60405180910390fd5b610b4c6000612212565b565b6000600760008373ffffffffffffffffffffffffffffffffffffffff1673ffffffffffffffffffffffffffffffffffffffff168152602001908152602001600020549050919050565b610b9f6122d8565b600660008473ffffffffffffffffffffffffffffffffffffffff1673ffffffffffffffffffffffffffffffffffffffff1681526020019081526020016000206000838152602001908152602001600020604051806040016040529081600082015481526020016001820160009054906101000a900473ffffffffffffffffffffffffffffffffffffffff1673ffffffffffffffffffffffffffffffffffffffff1673ffffffffffffffffffffffffffffffffffffffff1681525050905092915050565b8282336000600660008573ffffffffffffffffffffffffffffffffffffffff1673ffffffffffffffffffffffffffffffffffffffff1681526020019081526020016000206000848152602001908152602001600020604051806040016040529081600082015481526020016001820160009054906101000a900473ffffffffffffffffffffffffffffffffffffffff1673ffffffffffffffffffffffffffffffffffffffff1673ffffffffffffffffffffffffffffffffffffffff16815250509050600081600001511115610d705783836040517f4a5568d5000000000000000000000000000000000000000000000000000000008152600401610d67929190612dee565b60405180910390fd5b868633600083905060008173ffffffffffffffffffffffffffffffffffffffff16636352211e856040518263ffffffff1660e01b8152600401610db391906125ff565b602060405180830381865afa158015610dd0573d6000803e3d6000fd5b505050506040513d601f19601f82011682018060405250810190610df49190612e2c565b90508073ffffffffffffffffffffffffffffffffffffffff168373ffffffffffffffffffffffffffffffffffffffff1614610e5b576040517f30cd747100000000000000000000000000000000000000000000000000000000815260040160405180910390fd5b60008a11610e95576040517fe1abbfc500000000000000000000000000000000000000000000000000000000815260040160405180910390fd5b60008c90503073ffffffffffffffffffffffffffffffffffffffff168173ffffffffffffffffffffffffffffffffffffffff1663081812fc8e6040518263ffffffff1660e01b8152600401610eea91906125ff565b602060405180830381865afa158015610f07573d6000803e3d6000fd5b505050506040513d601f19601f82011682018060405250810190610f2b9190612e2c565b73ffffffffffffffffffffffffffffffffffffffff1614610f78576040517f4be3a2c500000000000000000000000000000000000000000000000000000000815260040160405180910390fd5b60405180604001604052808c81526020013373ffffffffffffffffffffffffffffffffffffffff16815250600660008f73ffffffffffffffffffffffffffffffffffffffff1673ffffffffffffffffffffffffffffffffffffffff16815260200190815260200160002060008e81526020019081526020016000206000820151816000015560208201518160010160006101000a81548173ffffffffffffffffffffffffffffffffffffffff021916908373ffffffffffffffffffffffffffffffffffffffff1602179055509050503373ffffffffffffffffffffffffffffffffffffffff168d73ffffffffffffffffffffffffffffffffffffffff168d7facaa5c216c6ad9851cb7b94d17731f463389bc61f8fd846c2de5a758ed9239668e6040516110a591906125ff565b60405180910390a450505050505050505050505050565b6000600160009054906101000a900473ffffffffffffffffffffffffffffffffffffffff16905090565b81816000600660008473ffffffffffffffffffffffffffffffffffffffff1673ffffffffffffffffffffffffffffffffffffffff1681526020019081526020016000206000838152602001908152602001600020604051806040016040529081600082015481526020016001820160009054906101000a900473ffffffffffffffffffffffffffffffffffffffff1673ffffffffffffffffffffffffffffffffffffffff1673ffffffffffffffffffffffffffffffffffffffff1681525050905060008160000151116111f25782826040517f6831488c0000000000000000000000000000000000000000000000000000000081526004016111e9929190612dee565b60405180910390fd5b600260005403611237576040517f08c379a000000000000000000000000000000000000000000000000000000000815260040161122e90612ea5565b60405180910390fd5b60026000819055506000600660008773ffffffffffffffffffffffffffffffffffffffff1673ffffffffffffffffffffffffffffffffffffffff1681526020019081526020016000206000868152602001908152602001600020604051806040016040529081600082015481526020016001820160009054906101000a900473ffffffffffffffffffffffffffffffffffffffff1673ffffffffffffffffffffffffffffffffffffffff1673ffffffffffffffffffffffffffffffffffffffff16815250509050806000015134101561134f57858582600001516040517f7c93456500000000000000000000000000000000000000000000000000000000815260040161134693929190612ec5565b60405180910390fd5b3460076000836020015173ffffffffffffffffffffffffffffffffffffffff1673ffffffffffffffffffffffffffffffffffffffff16815260200190815260200160002060008282546113a29190612efc565b92505081905550600660008773ffffffffffffffffffffffffffffffffffffffff1673ffffffffffffffffffffffffffffffffffffffff16815260200190815260200160002060008681526020019081526020016000206000808201600090556001820160006101000a81549073ffffffffffffffffffffffffffffffffffffffff021916905550508573ffffffffffffffffffffffffffffffffffffffff166342842e0e826020015133886040518463ffffffff1660e01b815260040161146c93929190612f30565b600060405180830381600087803b15801561148657600080fd5b505af115801561149a573d6000803e3d6000fd5b505050503373ffffffffffffffffffffffffffffffffffffffff168673ffffffffffffffffffffffffffffffffffffffff16867f2aa91d32ed82c3bc263c0523e6d7ac2d014506daca62bf306caea7e0e497c2d4846000015160405161150091906125ff565b60405180910390a45060016000819055505050505050565b818133600083905060008173ffffffffffffffffffffffffffffffffffffffff16636352211e856040518263ffffffff1660e01b815260040161155b91906125ff565b602060405180830381865afa158015611578573d6000803e3d6000fd5b505050506040513d601f19601f8201168201806040525081019061159c9190612e2c565b90508073ffffffffffffffffffffffffffffffffffffffff168373ffffffffffffffffffffffffffffffffffffffff1614611603576040517f30cd747100000000000000000000000000000000000000000000000000000000815260040160405180910390fd5b86866000600660008473ffffffffffffffffffffffffffffffffffffffff1673ffffffffffffffffffffffffffffffffffffffff1681526020019081526020016000206000838152602001908152602001600020604051806040016040529081600082015481526020016001820160009054906101000a900473ffffffffffffffffffffffffffffffffffffffff1673ffffffffffffffffffffffffffffffffffffffff1673ffffffffffffffffffffffffffffffffffffffff16815250509050600081600001511161170f5782826040517f6831488c000000000000000000000000000000000000000000000000000000008152600401611706929190612dee565b60405180910390fd5b600660008b73ffffffffffffffffffffffffffffffffffffffff1673ffffffffffffffffffffffffffffffffffffffff16815260200190815260200160002060008a81526020019081526020016000206000808201600090556001820160006101000a81549073ffffffffffffffffffffffffffffffffffffffff021916905550503373ffffffffffffffffffffffffffffffffffffffff168a73ffffffffffffffffffffffffffffffffffffffff168a7f60551fe5e7cde8226569d012bcbb2265a4f33bcf36668fd36d94c7e0744fe69560405160405180910390a450505050505050505050565b611800612308565b60006002838154811061181657611815612f67565b5b9060005260206000200160009054906101000a900473ffffffffffffffffffffffffffffffffffffffff169050600460008273ffffffffffffffffffffffffffffffffffffffff1673ffffffffffffffffffffffffffffffffffffffff1681526020019081526020016000206040518060e001604052908160008201805461189d9061295a565b80601f01602080910402602001604051908101604052809291908181526020018280546118c99061295a565b80156119165780601f106118eb57610100808354040283529160200191611916565b820191906000526020600020905b8154815290600101906020018083116118f957829003601f168201915b5050505050815260200160018201805461192f9061295a565b80601f016020809104026020016040519081016040528092919081815260200182805461195b9061295a565b80156119a85780601f1061197d576101008083540402835291602001916119a8565b820191906000526020600020905b81548152906001019060200180831161198b57829003601f168201915b505050505081526020016002820160009054906101000a900473ffffffffffffffffffffffffffffffffffffffff1673ffffffffffffffffffffffffffffffffffffffff1673ffffffffffffffffffffffffffffffffffffffff168152602001600382018054611a179061295a565b80601f0160208091040260200160405190810160405280929190818152602001828054611a439061295a565b8015611a905780601f10611a6557610100808354040283529160200191611a90565b820191906000526020600020905b815481529060010190602001808311611a7357829003601f168201915b505050505081526020016004820160009054906101000a900473ffffffffffffffffffffffffffffffffffffffff1673ffffffffffffffffffffffffffffffffffffffff1673ffffffffffffffffffffffffffffffffffffffff168152602001600582015481526020016006820160009054906101000a900460ff161515151581525050915050919050565b611b24612308565b600460008373ffffffffffffffffffffffffffffffffffffffff1673ffffffffffffffffffffffffffffffffffffffff1681526020019081526020016000206040518060e0016040529081600082018054611b7e9061295a565b80601f0160208091040260200160405190810160405280929190818152602001828054611baa9061295a565b8015611bf75780601f10611bcc57610100808354040283529160200191611bf7565b820191906000526020600020905b815481529060010190602001808311611bda57829003601f168201915b50505050508152602001600182018054611c109061295a565b80601f0160208091040260200160405190810160405280929190818152602001828054611c3c9061295a565b8015611c895780601f10611c5e57610100808354040283529160200191611c89565b820191906000526020600020905b815481529060010190602001808311611c6c57829003601f168201915b505050505081526020016002820160009054906101000a900473ffffffffffffffffffffffffffffffffffffffff1673ffffffffffffffffffffffffffffffffffffffff1673ffffffffffffffffffffffffffffffffffffffff168152602001600382018054611cf89061295a565b80601f0160208091040260200160405190810160405280929190818152602001828054611d249061295a565b8015611d715780601f10611d4657610100808354040283529160200191611d71565b820191906000526020600020905b815481529060010190602001808311611d5457829003601f168201915b505050505081526020016004820160009054906101000a900473ffffffffffffffffffffffffffffffffffffffff1673ffffffffffffffffffffffffffffffffffffffff1673ffffffffffffffffffffffffffffffffffffffff168152602001600582015481526020016006820160009054906101000a900460ff1615151515815250509050919050565b611e0461220a565b73ffffffffffffffffffffffffffffffffffffffff16611e226110bc565b73ffffffffffffffffffffffffffffffffffffffff1614611e78576040517f08c379a0000000000000000000000000000000000000000000000000000000008152600401611e6f90612d1c565b60405180910390fd5b600073ffffffffffffffffffffffffffffffffffffffff168173ffffffffffffffffffffffffffffffffffffffff1603611ee7576040517f08c379a0000000000000000000000000000000000000000000000000000000008152600401611ede90613008565b60405180910390fd5b611ef081612212565b50565b82826000600660008473ffffffffffffffffffffffffffffffffffffffff1673ffffffffffffffffffffffffffffffffffffffff1681526020019081526020016000206000838152602001908152602001600020604051806040016040529081600082015481526020016001820160009054906101000a900473ffffffffffffffffffffffffffffffffffffffff1673ffffffffffffffffffffffffffffffffffffffff1673ffffffffffffffffffffffffffffffffffffffff168152505090506000816000015111611fff5782826040517f6831488c000000000000000000000000000000000000000000000000000000008152600401611ff6929190612dee565b60405180910390fd5b600260005403612044576040517f08c379a000000000000000000000000000000000000000000000000000000000815260040161203b90612ea5565b60405180910390fd5b6002600081905550858533600083905060008173ffffffffffffffffffffffffffffffffffffffff16636352211e856040518263ffffffff1660e01b815260040161208f91906125ff565b602060405180830381865afa1580156120ac573d6000803e3d6000fd5b505050506040513d601f19601f820116820180604052508101906120d09190612e2c565b90508073ffffffffffffffffffffffffffffffffffffffff168373ffffffffffffffffffffffffffffffffffffffff1614612137576040517f30cd747100000000000000000000000000000000000000000000000000000000815260040160405180910390fd5b88600660008d73ffffffffffffffffffffffffffffffffffffffff1673ffffffffffffffffffffffffffffffffffffffff16815260200190815260200160002060008c8152602001908152602001600020600001819055503373ffffffffffffffffffffffffffffffffffffffff168b73ffffffffffffffffffffffffffffffffffffffff168b7facaa5c216c6ad9851cb7b94d17731f463389bc61f8fd846c2de5a758ed9239668c6040516121ed91906125ff565b60405180910390a450505050506001600081905550505050505050565b600033905090565b6000600160009054906101000a900473ffffffffffffffffffffffffffffffffffffffff16905081600160006101000a81548173ffffffffffffffffffffffffffffffffffffffff021916908373ffffffffffffffffffffffffffffffffffffffff1602179055508173ffffffffffffffffffffffffffffffffffffffff168173ffffffffffffffffffffffffffffffffffffffff167f8be0079c531659141344cd1fd0a4f28419497f9722a3daafe3b4186f6b6457e060405160405180910390a35050565b604051806040016040528060008152602001600073ffffffffffffffffffffffffffffffffffffffff1681525090565b6040518060e001604052806060815260200160608152602001600073ffffffffffffffffffffffffffffffffffffffff16815260200160608152602001600073ffffffffffffffffffffffffffffffffffffffff168152602001600081526020016000151581525090565b6000604051905090565b600080fd5b600080fd5b600080fd5b600080fd5b6000601f19601f8301169050919050565b7f4e487b7100000000000000000000000000000000000000000000000000000000600052604160045260246000fd5b6123da82612391565b810181811067ffffffffffffffff821117156123f9576123f86123a2565b5b80604052505050565b600061240c612373565b905061241882826123d1565b919050565b600067ffffffffffffffff821115612438576124376123a2565b5b61244182612391565b9050602081019050919050565b82818337600083830152505050565b600061247061246b8461241d565b612402565b90508281526020810184848401111561248c5761248b61238c565b5b61249784828561244e565b509392505050565b600082601f8301126124b4576124b3612387565b5b81356124c484826020860161245d565b91505092915050565b600073ffffffffffffffffffffffffffffffffffffffff82169050919050565b60006124f8826124cd565b9050919050565b612508816124ed565b811461251357600080fd5b50565b600081359050612525816124ff565b92915050565b600080600080608085870312156125455761254461237d565b5b600085013567ffffffffffffffff81111561256357612562612382565b5b61256f8782880161249f565b945050602085013567ffffffffffffffff8111156125905761258f612382565b5b61259c8782880161249f565b93505060406125ad87828801612516565b925050606085013567ffffffffffffffff8111156125ce576125cd612382565b5b6125da8782880161249f565b91505092959194509250565b6000819050919050565b6125f9816125e6565b82525050565b600060208201905061261460008301846125f0565b92915050565b6000602082840312156126305761262f61237d565b5b600061263e84828501612516565b91505092915050565b612650816125e6565b811461265b57600080fd5b50565b60008135905061266d81612647565b92915050565b6000806040838503121561268a5761268961237d565b5b600061269885828601612516565b92505060206126a98582860161265e565b9150509250929050565b6126bc816125e6565b82525050565b6126cb816124ed565b82525050565b6040820160008201516126e760008501826126b3565b5060208201516126fa60208501826126c2565b50505050565b600060408201905061271560008301846126d1565b92915050565b6000806000606084860312156127345761273361237d565b5b600061274286828701612516565b93505060206127538682870161265e565b92505060406127648682870161265e565b9150509250925092565b612777816124ed565b82525050565b6000602082019050612792600083018461276e565b92915050565b6000602082840312156127ae576127ad61237d565b5b60006127bc8482850161265e565b91505092915050565b600081519050919050565b600082825260208201905092915050565b60005b838110156127ff5780820151818401526020810190506127e4565b60008484015250505050565b6000612816826127c5565b61282081856127d0565b93506128308185602086016127e1565b61283981612391565b840191505092915050565b60008115159050919050565b61285981612844565b82525050565b600060e083016000830151848203600086015261287c828261280b565b91505060208301518482036020860152612896828261280b565b91505060408301516128ab60408601826126c2565b50606083015184820360608601526128c3828261280b565b91505060808301516128d860808601826126c2565b5060a08301516128eb60a08601826126b3565b5060c08301516128fe60c0860182612850565b508091505092915050565b60006020820190508181036000830152612923818461285f565b905092915050565b7f4e487b7100000000000000000000000000000000000000000000000000000000600052602260045260246000fd5b6000600282049050600182168061297257607f821691505b6020821081036129855761298461292b565b5b50919050565b60008190508160005260206000209050919050565b60006020601f8301049050919050565b600082821b905092915050565b6000600883026129ed7fffffffffffffffffffffffffffffffffffffffffffffffffffffffffffffffff826129b0565b6129f786836129b0565b95508019841693508086168417925050509392505050565b6000819050919050565b6000612a34612a2f612a2a846125e6565b612a0f565b6125e6565b9050919050565b6000819050919050565b612a4e83612a19565b612a62612a5a82612a3b565b8484546129bd565b825550505050565b600090565b612a77612a6a565b612a82818484612a45565b505050565b5b81811015612aa657612a9b600082612a6f565b600181019050612a88565b5050565b601f821115612aeb57612abc8161298b565b612ac5846129a0565b81016020851015612ad4578190505b612ae8612ae0856129a0565b830182612a87565b50505b505050565b600082821c905092915050565b6000612b0e60001984600802612af0565b1980831691505092915050565b6000612b278383612afd565b9150826002028217905092915050565b612b40826127c5565b67ffffffffffffffff811115612b5957612b586123a2565b5b612b63825461295a565b612b6e828285612aaa565b600060209050601f831160018114612ba15760008415612b8f578287015190505b612b998582612b1b565b865550612c01565b601f198416612baf8661298b565b60005b82811015612bd757848901518255600182019150602085019450602081019050612bb2565b86831015612bf45784890151612bf0601f891682612afd565b8355505b6001600288020188555050505b505050505050565b7f4e487b7100000000000000000000000000000000000000000000000000000000600052601160045260246000fd5b6000612c43826125e6565b9150612c4e836125e6565b9250828203905081811115612c6657612c65612c09565b5b92915050565b600081905092915050565b6000612c82826127c5565b612c8c8185612c6c565b9350612c9c8185602086016127e1565b80840191505092915050565b6000612cb48284612c77565b915081905092915050565b600082825260208201905092915050565b7f4f776e61626c653a2063616c6c6572206973206e6f7420746865206f776e6572600082015250565b6000612d06602083612cbf565b9150612d1182612cd0565b602082019050919050565b60006020820190508181036000830152612d3581612cf9565b9050919050565b600081905092915050565b50565b6000612d57600083612d3c565b9150612d6282612d47565b600082019050919050565b6000612d7882612d4a565b9150819050919050565b7f5472616e73666572206661696c65640000000000000000000000000000000000600082015250565b6000612db8600f83612cbf565b9150612dc382612d82565b602082019050919050565b60006020820190508181036000830152612de781612dab565b9050919050565b6000604082019050612e03600083018561276e565b612e1060208301846125f0565b9392505050565b600081519050612e26816124ff565b92915050565b600060208284031215612e4257612e4161237d565b5b6000612e5084828501612e17565b91505092915050565b7f5265656e7472616e637947756172643a207265656e7472616e742063616c6c00600082015250565b6000612e8f601f83612cbf565b9150612e9a82612e59565b602082019050919050565b60006020820190508181036000830152612ebe81612e82565b9050919050565b6000606082019050612eda600083018661276e565b612ee760208301856125f0565b612ef460408301846125f0565b949350505050565b6000612f07826125e6565b9150612f12836125e6565b9250828201905080821115612f2a57612f29612c09565b5b92915050565b6000606082019050612f45600083018661276e565b612f52602083018561276e565b612f5f60408301846125f0565b949350505050565b7f4e487b7100000000000000000000000000000000000000000000000000000000600052603260045260246000fd5b7f4f776e61626c653a206e6577206f776e657220697320746865207a65726f206160008201527f6464726573730000000000000000000000000000000000000000000000000000602082015250565b6000612ff2602683612cbf565b9150612ffd82612f96565b604082019050919050565b6000602082019050818103600083015261302181612fe5565b905091905056fea26469706673582212205a6f3f2411b60a27f821a75a84fbc6748e9a86c04d2e34319295264b0d5ea1f464736f6c63430008100033",
  "immutableReferences": {},
  "source": "// SPDX-License-Identifier: MIT\npragma solidity ^0.8.14;\n\nimport \"@openzeppelin/contracts/token/ERC721/IERC721.sol\";\nimport \"@openzeppelin/contracts/security/ReentrancyGuard.sol\";\nimport \"@openzeppelin/contracts/access/Ownable.sol\";\n\nerror CollectionAlreadyRegistered(address nftAddress);\nerror CollectionNotRegistered(address nftAddress);\nerror AlreadyListed(address nftAddress, uint256 tokenId);\nerror NotListed(address nftAddress, uint256 tokenId);\nerror PriceMustBeAboveZero();\nerror PriceNotMet(address nftAddress, uint256 tokenId, uint256 price);\nerror NoProfits();\nerror NotApprovedForMarketplace();\nerror NotOwner();\n\ncontract NFTMarketplace is ReentrancyGuard, Ownable {\n    struct Listing {\n        uint256 price;\n        address seller;\n    }\n\n    struct Collection {\n        string name;\n        string description;\n        address nftAddress;\n        string authorName;\n        address authorAddress;\n        uint index;\n        bool verified;\n    }\n\n    event CollectionRegistered(\n        string indexed name,\n        address indexed nftAddress,\n        address indexed from\n    );\n\n    event ItemListed(\n        uint256 indexed tokenId,\n        address indexed nftAddress,\n        address indexed seller,\n        uint256 price\n    );\n\n    event ItemCanceled(\n        uint256 indexed tokenId,\n        address indexed nftAddress,\n        address indexed seller\n    );\n\n    event ItemBought(\n        uint256 indexed tokenId,\n        address indexed nftAddress,\n        address indexed buyer,\n        uint256 price\n    );\n\n    address[] private collectionIndex;\n    address[] private privateCollectionIndex;\n\n    /// @notice NFT address -> Collection\n    mapping(address => Collection) private collections;\n    /// @notice NFT address -> Private collection (created by users)\n    mapping(address => Collection) private privateCollections;\n    /// @notice NFT address -> Token ID -> Listing\n    mapping(address => mapping(uint256 => Listing)) private listings;\n    /// @notice Seller address -> ETH amount from sales\n    mapping(address => uint256) private profits;\n\n    //////////////////////////\n    // Modifiers Functions //\n    /////////////////////////\n\n    modifier notRegistered(\n        address nftAddress\n    ) {\n        if (collectionIndex.length > 0 && collections[nftAddress].nftAddress == nftAddress) {\n            revert CollectionAlreadyRegistered(nftAddress);\n        }\n\n        _;\n    }\n\n    modifier registered(\n        address nftAddress\n    ) {\n        if (collectionIndex.length == 0 || collections[nftAddress].nftAddress != nftAddress) {\n            revert CollectionNotRegistered(nftAddress);\n        }\n\n        _;\n    }\n\n    modifier notListed(\n        address nftAddress,\n        uint256 tokenId,\n        address owner\n    ) {\n        Listing memory listing = listings[nftAddress][tokenId];\n\n        if (listing.price > 0) {\n            revert AlreadyListed(nftAddress, tokenId);\n        }\n\n        _;\n    }\n\n    modifier isListed(address nftAddress, uint256 tokenId) {\n        Listing memory listing = listings[nftAddress][tokenId];\n\n        if (listing.price <= 0) {\n            revert NotListed(nftAddress, tokenId);\n        }\n\n        _;\n    }\n\n    modifier isOwner(\n        address nftAddress,\n        uint256 tokenId,\n        address spender\n    ) {\n        IERC721 nft = IERC721(nftAddress);\n        address owner = nft.ownerOf(tokenId);\n\n        if (spender != owner) {\n            revert NotOwner();\n        }\n\n        _;\n    }\n\n    /////////////////////\n    // Main Functions //\n    /////////////////////\n\n    /*\n     * @notice Method for listing NFT\n     *\n     * @param nftAddress Address of NFT contract\n     * @param tokenId Token ID of NFT\n     * @param price sale price for the token\n     *\n     * @dev We approve the marketplace to operate it on behalf of the owner and then the owner lists it on the marketplace.\n     */\n    function listItem(\n        address nftAddress,\n        uint256 tokenId,\n        uint256 price\n    )\n    external\n    notListed(nftAddress, tokenId, msg.sender)\n    isOwner(nftAddress, tokenId, msg.sender)\n    {\n        if (price <= 0) {\n            revert PriceMustBeAboveZero();\n        }\n\n        IERC721 nft = IERC721(nftAddress);\n\n        if (nft.getApproved(tokenId) != address(this)) {\n            revert NotApprovedForMarketplace();\n        }\n\n        listings[nftAddress][tokenId] = Listing(price, msg.sender);\n\n        emit ItemListed(tokenId, nftAddress, msg.sender, price);\n    }\n\n    /*\n     * @notice Method for updating listing\n     *\n     * @param nftAddress Address of NFT contract\n     * @param tokenId Token ID of NFT\n     * @param newPrice Price in Wei of the item\n     */\n    function updateListing(\n        address nftAddress,\n        uint256 tokenId,\n        uint256 newPrice\n    )\n    external\n    isListed(nftAddress, tokenId)\n    nonReentrant\n    isOwner(nftAddress, tokenId, msg.sender)\n    {\n        listings[nftAddress][tokenId].price = newPrice;\n        emit ItemListed(tokenId, nftAddress, msg.sender, newPrice);\n    }\n\n    /*\n     * @notice Method for cancelling listing\n     *\n     * @param nftAddress Address of NFT contract\n     * @param tokenId Token ID of NFT\n     */\n    function cancelListing(address nftAddress, uint256 tokenId)\n    external\n    isOwner(nftAddress, tokenId, msg.sender)\n    isListed(nftAddress, tokenId)\n    {\n        delete (listings[nftAddress][tokenId]);\n        emit ItemCanceled(tokenId, nftAddress, msg.sender);\n    }\n\n    /*\n     * @notice Method for buying a listed token\n     *\n     * @param nftAddress Address of NFT contract\n     * @param tokenId Token ID of NFT\n     *\n     * @dev The owner of an NFT could unapproved the marketplace, which would cause this function to fail.\n     * @dev Check https://fravoll.github.io/solidity-patterns/pull_over_push.html\n     */\n    function buyItem(address nftAddress, uint256 tokenId)\n    external\n    payable\n    isListed(nftAddress, tokenId)\n    nonReentrant\n    {\n        Listing memory listedItem = listings[nftAddress][tokenId];\n\n        if (msg.value < listedItem.price) {\n            revert PriceNotMet(nftAddress, tokenId, listedItem.price);\n        }\n\n        profits[listedItem.seller] += msg.value;\n        // Could just send the money...\n        // https://fravoll.github.io/solidity-patterns/pull_over_push.html\n        delete (listings[nftAddress][tokenId]);\n\n        IERC721(nftAddress).safeTransferFrom(listedItem.seller, msg.sender, tokenId);\n\n        emit ItemBought(tokenId, nftAddress, msg.sender, listedItem.price);\n    }\n\n    /*\n     * @notice Method for withdrawing profits from sales\n     */\n    function withdrawProfits() external {\n        uint256 accountProfits = profits[msg.sender];\n\n        if (accountProfits <= 0) {\n            revert NoProfits();\n        }\n\n        profits[msg.sender] = 0;\n\n        (bool success,) = payable(msg.sender).call{value : accountProfits}(\"\");\n\n        require(success, \"Transfer failed\");\n    }\n\n    /*\n     * @notice Method for registering a NFT collection\n     *\n     * @param name Name of NFT collection\n     * @param description Description of NFT collection\n     * @param nftAddress Address of NFT contract\n     * @param authorName Author name of NFT collection\n     */\n    function addCollection(string memory name, string memory description, address nftAddress, string memory authorName)\n    public\n    notRegistered(nftAddress) {\n        collectionIndex.push(nftAddress);\n\n        collections[nftAddress].name = name;\n        collections[nftAddress].description = description;\n        collections[nftAddress].nftAddress = nftAddress;\n        collections[nftAddress].authorName = authorName;\n        collections[nftAddress].authorAddress = msg.sender;\n        collections[nftAddress].index = collectionIndex.length - 1;\n\n        emit CollectionRegistered(name, nftAddress, msg.sender);\n    }\n\n    /*\n     * @notice Method for verifying a NFT collection so it can appeared on the DAPP\n     *\n     * @param nftAddress Address of NFT contract\n     */\n    function verifyCollection(address nftAddress)\n    public\n    registered(nftAddress)\n    onlyOwner {\n        Collection storage collection = collections[nftAddress];\n\n        collection.verified = true;\n    }\n\n    //////////////////////\n    // Getter Functions //\n    //////////////////////\n\n    /*\n     * @notice Returns all listing for a given token\n     */\n    function getListing(address nftAddress, uint256 tokenId)\n    external\n    view\n    returns (Listing memory)\n    {\n        return listings[nftAddress][tokenId];\n    }\n\n    /*\n     * @notice Returns all profits for a given address\n     */\n    function getProfits(address seller) external view returns (uint256) {\n        return profits[seller];\n    }\n\n    /*\n     * @notice Returns count of registered NFT collection\n     */\n    function getCollectionCount() external view returns (uint count) {\n        return collectionIndex.length;\n    }\n\n    /*\n     * @notice Returns the desired NFT collection metadata by index\n     */\n    function getCollectionAtIndex(uint index)\n    external\n    view\n    returns (Collection memory)\n    {\n        address contractAddress = collectionIndex[index];\n\n        return collections[contractAddress];\n    }\n\n    /*\n     * @notice Returns the desired NFT collection metadata by index\n     */\n    function getCollectionByAddress(address contractAddress)\n    external\n    view\n    returns (Collection memory)\n    {\n        return collections[contractAddress];\n    }\n}\n",
  "sourcePath": "/Users/adrien/Alyra/opensea-clone/contracts/NFTMarketplace.sol",
  "compiler": {
    "name": "solc",
    "version": "0.8.16+commit.07a7930e.Emscripten.clang"
  },
  "schemaVersion": "3.4.3",
  "updatedAt": "2022-08-29T13:54:25.033Z",
  "networkType": "ethereum",
  "devdoc": {
    "kind": "dev",
    "methods": {
      "owner()": {
        "details": "Returns the address of the current owner."
      },
      "renounceOwnership()": {
        "details": "Leaves the contract without owner. It will not be possible to call `onlyOwner` functions anymore. Can only be called by the current owner. NOTE: Renouncing ownership will leave the contract without an owner, thereby removing any functionality that is only available to the owner."
      },
      "transferOwnership(address)": {
        "details": "Transfers ownership of the contract to a new account (`newOwner`). Can only be called by the current owner."
      }
    },
    "version": 1
  },
  "userdoc": {
    "kind": "user",
    "methods": {},
    "version": 1
  }
}