{
    "contractName": "PokemonNFT",
    "abi": [
        {
            "inputs": [],
            "stateMutability": "nonpayable",
            "type": "constructor"
        },
        {
            "anonymous": false,
            "inputs": [
                {
                    "indexed": true,
                    "internalType": "address",
                    "name": "owner",
                    "type": "address"
                },
                {
                    "indexed": true,
                    "internalType": "address",
                    "name": "approved",
                    "type": "address"
                },
                {
                    "indexed": true,
                    "internalType": "uint256",
                    "name": "tokenId",
                    "type": "uint256"
                }
            ],
            "name": "Approval",
            "type": "event"
        },
        {
            "anonymous": false,
            "inputs": [
                {
                    "indexed": true,
                    "internalType": "address",
                    "name": "owner",
                    "type": "address"
                },
                {
                    "indexed": true,
                    "internalType": "address",
                    "name": "operator",
                    "type": "address"
                },
                {
                    "indexed": false,
                    "internalType": "bool",
                    "name": "approved",
                    "type": "bool"
                }
            ],
            "name": "ApprovalForAll",
            "type": "event"
        },
        {
            "anonymous": false,
            "inputs": [
                {
                    "indexed": true,
                    "internalType": "address",
                    "name": "previousOwner",
                    "type": "address"
                },
                {
                    "indexed": true,
                    "internalType": "address",
                    "name": "newOwner",
                    "type": "address"
                }
            ],
            "name": "OwnershipTransferred",
            "type": "event"
        },
        {
            "anonymous": false,
            "inputs": [
                {
                    "indexed": true,
                    "internalType": "address",
                    "name": "from",
                    "type": "address"
                },
                {
                    "indexed": true,
                    "internalType": "address",
                    "name": "to",
                    "type": "address"
                },
                {
                    "indexed": true,
                    "internalType": "uint256",
                    "name": "tokenId",
                    "type": "uint256"
                }
            ],
            "name": "Transfer",
            "type": "event"
        },
        {
            "inputs": [
                {
                    "internalType": "address",
                    "name": "to",
                    "type": "address"
                },
                {
                    "internalType": "uint256",
                    "name": "tokenId",
                    "type": "uint256"
                }
            ],
            "name": "approve",
            "outputs": [],
            "stateMutability": "nonpayable",
            "type": "function"
        },
        {
            "inputs": [
                {
                    "internalType": "address",
                    "name": "owner",
                    "type": "address"
                }
            ],
            "name": "balanceOf",
            "outputs": [
                {
                    "internalType": "uint256",
                    "name": "",
                    "type": "uint256"
                }
            ],
            "stateMutability": "view",
            "type": "function",
            "constant": true
        },
        {
            "inputs": [
                {
                    "internalType": "uint256",
                    "name": "tokenId",
                    "type": "uint256"
                }
            ],
            "name": "getApproved",
            "outputs": [
                {
                    "internalType": "address",
                    "name": "",
                    "type": "address"
                }
            ],
            "stateMutability": "view",
            "type": "function",
            "constant": true
        },
        {
            "inputs": [
                {
                    "internalType": "address",
                    "name": "owner",
                    "type": "address"
                },
                {
                    "internalType": "address",
                    "name": "operator",
                    "type": "address"
                }
            ],
            "name": "isApprovedForAll",
            "outputs": [
                {
                    "internalType": "bool",
                    "name": "",
                    "type": "bool"
                }
            ],
            "stateMutability": "view",
            "type": "function",
            "constant": true
        },
        {
            "inputs": [],
            "name": "name",
            "outputs": [
                {
                    "internalType": "string",
                    "name": "",
                    "type": "string"
                }
            ],
            "stateMutability": "view",
            "type": "function",
            "constant": true
        },
        {
            "inputs": [],
            "name": "owner",
            "outputs": [
                {
                    "internalType": "address",
                    "name": "",
                    "type": "address"
                }
            ],
            "stateMutability": "view",
            "type": "function",
            "constant": true
        },
        {
            "inputs": [
                {
                    "internalType": "uint256",
                    "name": "tokenId",
                    "type": "uint256"
                }
            ],
            "name": "ownerOf",
            "outputs": [
                {
                    "internalType": "address",
                    "name": "",
                    "type": "address"
                }
            ],
            "stateMutability": "view",
            "type": "function",
            "constant": true
        },
        {
            "inputs": [],
            "name": "renounceOwnership",
            "outputs": [],
            "stateMutability": "nonpayable",
            "type": "function"
        },
        {
            "inputs": [
                {
                    "internalType": "address",
                    "name": "to",
                    "type": "address"
                },
                {
                    "internalType": "string",
                    "name": "uri",
                    "type": "string"
                }
            ],
            "name": "safeMint",
            "outputs": [],
            "stateMutability": "nonpayable",
            "type": "function"
        },
        {
            "inputs": [
                {
                    "internalType": "address",
                    "name": "from",
                    "type": "address"
                },
                {
                    "internalType": "address",
                    "name": "to",
                    "type": "address"
                },
                {
                    "internalType": "uint256",
                    "name": "tokenId",
                    "type": "uint256"
                }
            ],
            "name": "safeTransferFrom",
            "outputs": [],
            "stateMutability": "nonpayable",
            "type": "function"
        },
        {
            "inputs": [
                {
                    "internalType": "address",
                    "name": "from",
                    "type": "address"
                },
                {
                    "internalType": "address",
                    "name": "to",
                    "type": "address"
                },
                {
                    "internalType": "uint256",
                    "name": "tokenId",
                    "type": "uint256"
                },
                {
                    "internalType": "bytes",
                    "name": "_data",
                    "type": "bytes"
                }
            ],
            "name": "safeTransferFrom",
            "outputs": [],
            "stateMutability": "nonpayable",
            "type": "function"
        },
        {
            "inputs": [
                {
                    "internalType": "address",
                    "name": "operator",
                    "type": "address"
                },
                {
                    "internalType": "bool",
                    "name": "approved",
                    "type": "bool"
                }
            ],
            "name": "setApprovalForAll",
            "outputs": [],
            "stateMutability": "nonpayable",
            "type": "function"
        },
        {
            "inputs": [
                {
                    "internalType": "bytes4",
                    "name": "interfaceId",
                    "type": "bytes4"
                }
            ],
            "name": "supportsInterface",
            "outputs": [
                {
                    "internalType": "bool",
                    "name": "",
                    "type": "bool"
                }
            ],
            "stateMutability": "view",
            "type": "function",
            "constant": true
        },
        {
            "inputs": [],
            "name": "symbol",
            "outputs": [
                {
                    "internalType": "string",
                    "name": "",
                    "type": "string"
                }
            ],
            "stateMutability": "view",
            "type": "function",
            "constant": true
        },
        {
            "inputs": [
                {
                    "internalType": "uint256",
                    "name": "index",
                    "type": "uint256"
                }
            ],
            "name": "tokenByIndex",
            "outputs": [
                {
                    "internalType": "uint256",
                    "name": "",
                    "type": "uint256"
                }
            ],
            "stateMutability": "view",
            "type": "function",
            "constant": true
        },
        {
            "inputs": [
                {
                    "internalType": "address",
                    "name": "owner",
                    "type": "address"
                },
                {
                    "internalType": "uint256",
                    "name": "index",
                    "type": "uint256"
                }
            ],
            "name": "tokenOfOwnerByIndex",
            "outputs": [
                {
                    "internalType": "uint256",
                    "name": "",
                    "type": "uint256"
                }
            ],
            "stateMutability": "view",
            "type": "function",
            "constant": true
        },
        {
            "inputs": [
                {
                    "internalType": "uint256",
                    "name": "tokenId",
                    "type": "uint256"
                }
            ],
            "name": "tokenURI",
            "outputs": [
                {
                    "internalType": "string",
                    "name": "",
                    "type": "string"
                }
            ],
            "stateMutability": "view",
            "type": "function",
            "constant": true
        },
        {
            "inputs": [],
            "name": "totalSupply",
            "outputs": [
                {
                    "internalType": "uint256",
                    "name": "",
                    "type": "uint256"
                }
            ],
            "stateMutability": "view",
            "type": "function",
            "constant": true
        },
        {
            "inputs": [
                {
                    "internalType": "address",
                    "name": "from",
                    "type": "address"
                },
                {
                    "internalType": "address",
                    "name": "to",
                    "type": "address"
                },
                {
                    "internalType": "uint256",
                    "name": "tokenId",
                    "type": "uint256"
                }
            ],
            "name": "transferFrom",
            "outputs": [],
            "stateMutability": "nonpayable",
            "type": "function"
        },
        {
            "inputs": [
                {
                    "internalType": "address",
                    "name": "newOwner",
                    "type": "address"
                }
            ],
            "name": "transferOwnership",
            "outputs": [],
            "stateMutability": "nonpayable",
            "type": "function"
        }
    ],
    "bytecode": "0x60806040523480156200001157600080fd5b506040518060400160405280600a81526020017f506f6b656d6f6e4e4654000000000000000000000000000000000000000000008152506040518060400160405280600781526020017f506f6b654e4654000000000000000000000000000000000000000000000000008152508181816000908162000091919062000416565b508060019081620000a3919062000416565b505050620000c6620000ba620000ce60201b60201c565b620000d660201b60201c565b5050620004fd565b600033905090565b6000600b60009054906101000a900473ffffffffffffffffffffffffffffffffffffffff16905081600b60006101000a81548173ffffffffffffffffffffffffffffffffffffffff021916908373ffffffffffffffffffffffffffffffffffffffff1602179055508173ffffffffffffffffffffffffffffffffffffffff168173ffffffffffffffffffffffffffffffffffffffff167f8be0079c531659141344cd1fd0a4f28419497f9722a3daafe3b4186f6b6457e060405160405180910390a35050565b600081519050919050565b7f4e487b7100000000000000000000000000000000000000000000000000000000600052604160045260246000fd5b7f4e487b7100000000000000000000000000000000000000000000000000000000600052602260045260246000fd5b600060028204905060018216806200021e57607f821691505b602082108103620002345762000233620001d6565b5b50919050565b60008190508160005260206000209050919050565b60006020601f8301049050919050565b600082821b905092915050565b6000600883026200029e7fffffffffffffffffffffffffffffffffffffffffffffffffffffffffffffffff826200025f565b620002aa86836200025f565b95508019841693508086168417925050509392505050565b6000819050919050565b6000819050919050565b6000620002f7620002f1620002eb84620002c2565b620002cc565b620002c2565b9050919050565b6000819050919050565b6200031383620002d6565b6200032b6200032282620002fe565b8484546200026c565b825550505050565b600090565b6200034262000333565b6200034f81848462000308565b505050565b5b8181101562000377576200036b60008262000338565b60018101905062000355565b5050565b601f821115620003c65762000390816200023a565b6200039b846200024f565b81016020851015620003ab578190505b620003c3620003ba856200024f565b83018262000354565b50505b505050565b600082821c905092915050565b6000620003eb60001984600802620003cb565b1980831691505092915050565b6000620004068383620003d8565b9150826002028217905092915050565b62000421826200019c565b67ffffffffffffffff8111156200043d576200043c620001a7565b5b62000449825462000205565b620004568282856200037b565b600060209050601f8311600181146200048e576000841562000479578287015190505b620004858582620003f8565b865550620004f5565b601f1984166200049e866200023a565b60005b82811015620004c857848901518255600182019150602085019450602081019050620004a1565b86831015620004e85784890151620004e4601f891682620003d8565b8355505b6001600288020188555050505b505050505050565b6139e7806200050d6000396000f3fe608060405234801561001057600080fd5b506004361061012c5760003560e01c806370a08231116100ad578063b88d4fde11610071578063b88d4fde14610343578063c87b56dd1461035f578063d204c45e1461038f578063e985e9c5146103ab578063f2fde38b146103db5761012c565b806370a08231146102b1578063715018a6146102e15780638da5cb5b146102eb57806395d89b4114610309578063a22cb465146103275761012c565b806323b872dd116100f457806323b872dd146101e95780632f745c591461020557806342842e0e146102355780634f6ccce7146102515780636352211e146102815761012c565b806301ffc9a71461013157806306fdde0314610161578063081812fc1461017f578063095ea7b3146101af57806318160ddd146101cb575b600080fd5b61014b600480360381019061014691906122a7565b6103f7565b60405161015891906122ef565b60405180910390f35b610169610409565b604051610176919061239a565b60405180910390f35b610199600480360381019061019491906123f2565b61049b565b6040516101a69190612460565b60405180910390f35b6101c960048036038101906101c491906124a7565b610520565b005b6101d3610637565b6040516101e091906124f6565b60405180910390f35b61020360048036038101906101fe9190612511565b610644565b005b61021f600480360381019061021a91906124a7565b6106a4565b60405161022c91906124f6565b60405180910390f35b61024f600480360381019061024a9190612511565b610749565b005b61026b600480360381019061026691906123f2565b610769565b60405161027891906124f6565b60405180910390f35b61029b600480360381019061029691906123f2565b6107da565b6040516102a89190612460565b60405180910390f35b6102cb60048036038101906102c69190612564565b61088b565b6040516102d891906124f6565b60405180910390f35b6102e9610942565b005b6102f36109ca565b6040516103009190612460565b60405180910390f35b6103116109f4565b60405161031e919061239a565b60405180910390f35b610341600480360381019061033c91906125bd565b610a86565b005b61035d60048036038101906103589190612732565b610a9c565b005b610379600480360381019061037491906123f2565b610afe565b604051610386919061239a565b60405180910390f35b6103a960048036038101906103a49190612856565b610b10565b005b6103c560048036038101906103c091906128b2565b610bbd565b6040516103d291906122ef565b60405180910390f35b6103f560048036038101906103f09190612564565b610c51565b005b600061040282610d48565b9050919050565b60606000805461041890612921565b80601f016020809104026020016040519081016040528092919081815260200182805461044490612921565b80156104915780601f1061046657610100808354040283529160200191610491565b820191906000526020600020905b81548152906001019060200180831161047457829003601f168201915b5050505050905090565b60006104a682610dc2565b6104e5576040517f08c379a00000000000000000000000000000000000000000000000000000000081526004016104dc906129c4565b60405180910390fd5b6004600083815260200190815260200160002060009054906101000a900473ffffffffffffffffffffffffffffffffffffffff169050919050565b600061052b826107da565b90508073ffffffffffffffffffffffffffffffffffffffff168373ffffffffffffffffffffffffffffffffffffffff160361059b576040517f08c379a000000000000000000000000000000000000000000000000000000000815260040161059290612a56565b60405180910390fd5b8073ffffffffffffffffffffffffffffffffffffffff166105ba610e2e565b73ffffffffffffffffffffffffffffffffffffffff1614806105e957506105e8816105e3610e2e565b610bbd565b5b610628576040517f08c379a000000000000000000000000000000000000000000000000000000000815260040161061f90612ae8565b60405180910390fd5b6106328383610e36565b505050565b6000600880549050905090565b61065561064f610e2e565b82610eef565b610694576040517f08c379a000000000000000000000000000000000000000000000000000000000815260040161068b90612b7a565b60405180910390fd5b61069f838383610fcd565b505050565b60006106af8361088b565b82106106f0576040517f08c379a00000000000000000000000000000000000000000000000000000000081526004016106e790612c0c565b60405180910390fd5b600660008473ffffffffffffffffffffffffffffffffffffffff1673ffffffffffffffffffffffffffffffffffffffff168152602001908152602001600020600083815260200190815260200160002054905092915050565b61076483838360405180602001604052806000815250610a9c565b505050565b6000610773610637565b82106107b4576040517f08c379a00000000000000000000000000000000000000000000000000000000081526004016107ab90612c9e565b60405180910390fd5b600882815481106107c8576107c7612cbe565b5b90600052602060002001549050919050565b6000806002600084815260200190815260200160002060009054906101000a900473ffffffffffffffffffffffffffffffffffffffff169050600073ffffffffffffffffffffffffffffffffffffffff168173ffffffffffffffffffffffffffffffffffffffff1603610882576040517f08c379a000000000000000000000000000000000000000000000000000000000815260040161087990612d5f565b60405180910390fd5b80915050919050565b60008073ffffffffffffffffffffffffffffffffffffffff168273ffffffffffffffffffffffffffffffffffffffff16036108fb576040517f08c379a00000000000000000000000000000000000000000000000000000000081526004016108f290612df1565b60405180910390fd5b600360008373ffffffffffffffffffffffffffffffffffffffff1673ffffffffffffffffffffffffffffffffffffffff168152602001908152602001600020549050919050565b61094a610e2e565b73ffffffffffffffffffffffffffffffffffffffff166109686109ca565b73ffffffffffffffffffffffffffffffffffffffff16146109be576040517f08c379a00000000000000000000000000000000000000000000000000000000081526004016109b590612e5d565b60405180910390fd5b6109c86000611233565b565b6000600b60009054906101000a900473ffffffffffffffffffffffffffffffffffffffff16905090565b606060018054610a0390612921565b80601f0160208091040260200160405190810160405280929190818152602001828054610a2f90612921565b8015610a7c5780601f10610a5157610100808354040283529160200191610a7c565b820191906000526020600020905b815481529060010190602001808311610a5f57829003601f168201915b5050505050905090565b610a98610a91610e2e565b83836112f9565b5050565b610aad610aa7610e2e565b83610eef565b610aec576040517f08c379a0000000000000000000000000000000000000000000000000000000008152600401610ae390612b7a565b60405180910390fd5b610af884848484611465565b50505050565b6060610b09826114c1565b9050919050565b610b18610e2e565b73ffffffffffffffffffffffffffffffffffffffff16610b366109ca565b73ffffffffffffffffffffffffffffffffffffffff1614610b8c576040517f08c379a0000000000000000000000000000000000000000000000000000000008152600401610b8390612e5d565b60405180910390fd5b6000610b98600c611612565b9050610ba4600c611620565b610bae8382611636565b610bb88183611654565b505050565b6000600560008473ffffffffffffffffffffffffffffffffffffffff1673ffffffffffffffffffffffffffffffffffffffff16815260200190815260200160002060008373ffffffffffffffffffffffffffffffffffffffff1673ffffffffffffffffffffffffffffffffffffffff16815260200190815260200160002060009054906101000a900460ff16905092915050565b610c59610e2e565b73ffffffffffffffffffffffffffffffffffffffff16610c776109ca565b73ffffffffffffffffffffffffffffffffffffffff1614610ccd576040517f08c379a0000000000000000000000000000000000000000000000000000000008152600401610cc490612e5d565b60405180910390fd5b600073ffffffffffffffffffffffffffffffffffffffff168173ffffffffffffffffffffffffffffffffffffffff1603610d3c576040517f08c379a0000000000000000000000000000000000000000000000000000000008152600401610d3390612eef565b60405180910390fd5b610d4581611233565b50565b60007f780e9d63000000000000000000000000000000000000000000000000000000007bffffffffffffffffffffffffffffffffffffffffffffffffffffffff1916827bffffffffffffffffffffffffffffffffffffffffffffffffffffffff19161480610dbb5750610dba826116c1565b5b9050919050565b60008073ffffffffffffffffffffffffffffffffffffffff166002600084815260200190815260200160002060009054906101000a900473ffffffffffffffffffffffffffffffffffffffff1673ffffffffffffffffffffffffffffffffffffffff1614159050919050565b600033905090565b816004600083815260200190815260200160002060006101000a81548173ffffffffffffffffffffffffffffffffffffffff021916908373ffffffffffffffffffffffffffffffffffffffff160217905550808273ffffffffffffffffffffffffffffffffffffffff16610ea9836107da565b73ffffffffffffffffffffffffffffffffffffffff167f8c5be1e5ebec7d5bd14f71427d1e84f3dd0314c0f7b2291e5b200ac8c7c3b92560405160405180910390a45050565b6000610efa82610dc2565b610f39576040517f08c379a0000000000000000000000000000000000000000000000000000000008152600401610f3090612f81565b60405180910390fd5b6000610f44836107da565b90508073ffffffffffffffffffffffffffffffffffffffff168473ffffffffffffffffffffffffffffffffffffffff161480610f865750610f858185610bbd565b5b80610fc457508373ffffffffffffffffffffffffffffffffffffffff16610fac8461049b565b73ffffffffffffffffffffffffffffffffffffffff16145b91505092915050565b8273ffffffffffffffffffffffffffffffffffffffff16610fed826107da565b73ffffffffffffffffffffffffffffffffffffffff1614611043576040517f08c379a000000000000000000000000000000000000000000000000000000000815260040161103a90613013565b60405180910390fd5b600073ffffffffffffffffffffffffffffffffffffffff168273ffffffffffffffffffffffffffffffffffffffff16036110b2576040517f08c379a00000000000000000000000000000000000000000000000000000000081526004016110a9906130a5565b60405180910390fd5b6110bd8383836117a3565b6110c8600082610e36565b6001600360008573ffffffffffffffffffffffffffffffffffffffff1673ffffffffffffffffffffffffffffffffffffffff168152602001908152602001600020600082825461111891906130f4565b925050819055506001600360008473ffffffffffffffffffffffffffffffffffffffff1673ffffffffffffffffffffffffffffffffffffffff168152602001908152602001600020600082825461116f9190613128565b92505081905550816002600083815260200190815260200160002060006101000a81548173ffffffffffffffffffffffffffffffffffffffff021916908373ffffffffffffffffffffffffffffffffffffffff160217905550808273ffffffffffffffffffffffffffffffffffffffff168473ffffffffffffffffffffffffffffffffffffffff167fddf252ad1be2c89b69c2b068fc378daa952ba7f163c4a11628f55a4df523b3ef60405160405180910390a461122e8383836117b3565b505050565b6000600b60009054906101000a900473ffffffffffffffffffffffffffffffffffffffff16905081600b60006101000a81548173ffffffffffffffffffffffffffffffffffffffff021916908373ffffffffffffffffffffffffffffffffffffffff1602179055508173ffffffffffffffffffffffffffffffffffffffff168173ffffffffffffffffffffffffffffffffffffffff167f8be0079c531659141344cd1fd0a4f28419497f9722a3daafe3b4186f6b6457e060405160405180910390a35050565b8173ffffffffffffffffffffffffffffffffffffffff168373ffffffffffffffffffffffffffffffffffffffff1603611367576040517f08c379a000000000000000000000000000000000000000000000000000000000815260040161135e906131a8565b60405180910390fd5b80600560008573ffffffffffffffffffffffffffffffffffffffff1673ffffffffffffffffffffffffffffffffffffffff16815260200190815260200160002060008473ffffffffffffffffffffffffffffffffffffffff1673ffffffffffffffffffffffffffffffffffffffff16815260200190815260200160002060006101000a81548160ff0219169083151502179055508173ffffffffffffffffffffffffffffffffffffffff168373ffffffffffffffffffffffffffffffffffffffff167f17307eab39ab6107e8899845ad3d59bd9653f200f220920489ca2b5937696c318360405161145891906122ef565b60405180910390a3505050565b611470848484610fcd565b61147c848484846117b8565b6114bb576040517f08c379a00000000000000000000000000000000000000000000000000000000081526004016114b29061323a565b60405180910390fd5b50505050565b60606114cc82610dc2565b61150b576040517f08c379a0000000000000000000000000000000000000000000000000000000008152600401611502906132cc565b60405180910390fd5b6000600a6000848152602001908152602001600020805461152b90612921565b80601f016020809104026020016040519081016040528092919081815260200182805461155790612921565b80156115a45780601f10611579576101008083540402835291602001916115a4565b820191906000526020600020905b81548152906001019060200180831161158757829003601f168201915b5050505050905060006115b561193f565b905060008151036115ca57819250505061160d565b6000825111156115ff5780826040516020016115e7929190613328565b6040516020818303038152906040529250505061160d565b61160884611956565b925050505b919050565b600081600001549050919050565b6001816000016000828254019250508190555050565b6116508282604051806020016040528060008152506119fd565b5050565b61165d82610dc2565b61169c576040517f08c379a0000000000000000000000000000000000000000000000000000000008152600401611693906133be565b60405180910390fd5b80600a600084815260200190815260200160002090816116bc919061358a565b505050565b60007f80ac58cd000000000000000000000000000000000000000000000000000000007bffffffffffffffffffffffffffffffffffffffffffffffffffffffff1916827bffffffffffffffffffffffffffffffffffffffffffffffffffffffff1916148061178c57507f5b5e139f000000000000000000000000000000000000000000000000000000007bffffffffffffffffffffffffffffffffffffffffffffffffffffffff1916827bffffffffffffffffffffffffffffffffffffffffffffffffffffffff1916145b8061179c575061179b82611a58565b5b9050919050565b6117ae838383611ac2565b505050565b505050565b60006117d98473ffffffffffffffffffffffffffffffffffffffff16611bd4565b15611932578373ffffffffffffffffffffffffffffffffffffffff1663150b7a02611802610e2e565b8786866040518563ffffffff1660e01b815260040161182494939291906136b1565b6020604051808303816000875af192505050801561186057506040513d601f19601f8201168201806040525081019061185d9190613712565b60015b6118e2573d8060008114611890576040519150601f19603f3d011682016040523d82523d6000602084013e611895565b606091505b5060008151036118da576040517f08c379a00000000000000000000000000000000000000000000000000000000081526004016118d19061323a565b60405180910390fd5b805181602001fd5b63150b7a0260e01b7bffffffffffffffffffffffffffffffffffffffffffffffffffffffff1916817bffffffffffffffffffffffffffffffffffffffffffffffffffffffff191614915050611937565b600190505b949350505050565b606060405180602001604052806000815250905090565b606061196182610dc2565b6119a0576040517f08c379a0000000000000000000000000000000000000000000000000000000008152600401611997906137b1565b60405180910390fd5b60006119aa61193f565b905060008151116119ca57604051806020016040528060008152506119f5565b806119d484611bf7565b6040516020016119e5929190613328565b6040516020818303038152906040525b915050919050565b611a078383611d57565b611a1460008484846117b8565b611a53576040517f08c379a0000000000000000000000000000000000000000000000000000000008152600401611a4a9061323a565b60405180910390fd5b505050565b60007f01ffc9a7000000000000000000000000000000000000000000000000000000007bffffffffffffffffffffffffffffffffffffffffffffffffffffffff1916827bffffffffffffffffffffffffffffffffffffffffffffffffffffffff1916149050919050565b611acd838383611f30565b600073ffffffffffffffffffffffffffffffffffffffff168373ffffffffffffffffffffffffffffffffffffffff1603611b0f57611b0a81611f35565b611b4e565b8173ffffffffffffffffffffffffffffffffffffffff168373ffffffffffffffffffffffffffffffffffffffff1614611b4d57611b4c8382611f7e565b5b5b600073ffffffffffffffffffffffffffffffffffffffff168273ffffffffffffffffffffffffffffffffffffffff1603611b9057611b8b816120eb565b611bcf565b8273ffffffffffffffffffffffffffffffffffffffff168273ffffffffffffffffffffffffffffffffffffffff1614611bce57611bcd82826121bc565b5b5b505050565b6000808273ffffffffffffffffffffffffffffffffffffffff163b119050919050565b606060008203611c3e576040518060400160405280600181526020017f30000000000000000000000000000000000000000000000000000000000000008152509050611d52565b600082905060005b60008214611c70578080611c59906137d1565b915050600a82611c699190613848565b9150611c46565b60008167ffffffffffffffff811115611c8c57611c8b612607565b5b6040519080825280601f01601f191660200182016040528015611cbe5781602001600182028036833780820191505090505b5090505b60008514611d4b57600182611cd791906130f4565b9150600a85611ce69190613879565b6030611cf29190613128565b60f81b818381518110611d0857611d07612cbe565b5b60200101907effffffffffffffffffffffffffffffffffffffffffffffffffffffffffffff1916908160001a905350600a85611d449190613848565b9450611cc2565b8093505050505b919050565b600073ffffffffffffffffffffffffffffffffffffffff168273ffffffffffffffffffffffffffffffffffffffff1603611dc6576040517f08c379a0000000000000000000000000000000000000000000000000000000008152600401611dbd906138f6565b60405180910390fd5b611dcf81610dc2565b15611e0f576040517f08c379a0000000000000000000000000000000000000000000000000000000008152600401611e0690613962565b60405180910390fd5b611e1b600083836117a3565b6001600360008473ffffffffffffffffffffffffffffffffffffffff1673ffffffffffffffffffffffffffffffffffffffff1681526020019081526020016000206000828254611e6b9190613128565b92505081905550816002600083815260200190815260200160002060006101000a81548173ffffffffffffffffffffffffffffffffffffffff021916908373ffffffffffffffffffffffffffffffffffffffff160217905550808273ffffffffffffffffffffffffffffffffffffffff16600073ffffffffffffffffffffffffffffffffffffffff167fddf252ad1be2c89b69c2b068fc378daa952ba7f163c4a11628f55a4df523b3ef60405160405180910390a4611f2c600083836117b3565b5050565b505050565b6008805490506009600083815260200190815260200160002081905550600881908060018154018082558091505060019003906000526020600020016000909190919091505550565b60006001611f8b8461088b565b611f9591906130f4565b905060006007600084815260200190815260200160002054905081811461207a576000600660008673ffffffffffffffffffffffffffffffffffffffff1673ffffffffffffffffffffffffffffffffffffffff168152602001908152602001600020600084815260200190815260200160002054905080600660008773ffffffffffffffffffffffffffffffffffffffff1673ffffffffffffffffffffffffffffffffffffffff168152602001908152602001600020600084815260200190815260200160002081905550816007600083815260200190815260200160002081905550505b6007600084815260200190815260200160002060009055600660008573ffffffffffffffffffffffffffffffffffffffff1673ffffffffffffffffffffffffffffffffffffffff16815260200190815260200160002060008381526020019081526020016000206000905550505050565b600060016008805490506120ff91906130f4565b905060006009600084815260200190815260200160002054905060006008838154811061212f5761212e612cbe565b5b90600052602060002001549050806008838154811061215157612150612cbe565b5b9060005260206000200181905550816009600083815260200190815260200160002081905550600960008581526020019081526020016000206000905560088054806121a05761219f613982565b5b6001900381819060005260206000200160009055905550505050565b60006121c78361088b565b905081600660008573ffffffffffffffffffffffffffffffffffffffff1673ffffffffffffffffffffffffffffffffffffffff168152602001908152602001600020600083815260200190815260200160002081905550806007600084815260200190815260200160002081905550505050565b6000604051905090565b600080fd5b600080fd5b60007fffffffff0000000000000000000000000000000000000000000000000000000082169050919050565b6122848161224f565b811461228f57600080fd5b50565b6000813590506122a18161227b565b92915050565b6000602082840312156122bd576122bc612245565b5b60006122cb84828501612292565b91505092915050565b60008115159050919050565b6122e9816122d4565b82525050565b600060208201905061230460008301846122e0565b92915050565b600081519050919050565b600082825260208201905092915050565b60005b83811015612344578082015181840152602081019050612329565b60008484015250505050565b6000601f19601f8301169050919050565b600061236c8261230a565b6123768185612315565b9350612386818560208601612326565b61238f81612350565b840191505092915050565b600060208201905081810360008301526123b48184612361565b905092915050565b6000819050919050565b6123cf816123bc565b81146123da57600080fd5b50565b6000813590506123ec816123c6565b92915050565b60006020828403121561240857612407612245565b5b6000612416848285016123dd565b91505092915050565b600073ffffffffffffffffffffffffffffffffffffffff82169050919050565b600061244a8261241f565b9050919050565b61245a8161243f565b82525050565b60006020820190506124756000830184612451565b92915050565b6124848161243f565b811461248f57600080fd5b50565b6000813590506124a18161247b565b92915050565b600080604083850312156124be576124bd612245565b5b60006124cc85828601612492565b92505060206124dd858286016123dd565b9150509250929050565b6124f0816123bc565b82525050565b600060208201905061250b60008301846124e7565b92915050565b60008060006060848603121561252a57612529612245565b5b600061253886828701612492565b935050602061254986828701612492565b925050604061255a868287016123dd565b9150509250925092565b60006020828403121561257a57612579612245565b5b600061258884828501612492565b91505092915050565b61259a816122d4565b81146125a557600080fd5b50565b6000813590506125b781612591565b92915050565b600080604083850312156125d4576125d3612245565b5b60006125e285828601612492565b92505060206125f3858286016125a8565b9150509250929050565b600080fd5b600080fd5b7f4e487b7100000000000000000000000000000000000000000000000000000000600052604160045260246000fd5b61263f82612350565b810181811067ffffffffffffffff8211171561265e5761265d612607565b5b80604052505050565b600061267161223b565b905061267d8282612636565b919050565b600067ffffffffffffffff82111561269d5761269c612607565b5b6126a682612350565b9050602081019050919050565b82818337600083830152505050565b60006126d56126d084612682565b612667565b9050828152602081018484840111156126f1576126f0612602565b5b6126fc8482856126b3565b509392505050565b600082601f830112612719576127186125fd565b5b81356127298482602086016126c2565b91505092915050565b6000806000806080858703121561274c5761274b612245565b5b600061275a87828801612492565b945050602061276b87828801612492565b935050604061277c878288016123dd565b925050606085013567ffffffffffffffff81111561279d5761279c61224a565b5b6127a987828801612704565b91505092959194509250565b600067ffffffffffffffff8211156127d0576127cf612607565b5b6127d982612350565b9050602081019050919050565b60006127f96127f4846127b5565b612667565b90508281526020810184848401111561281557612814612602565b5b6128208482856126b3565b509392505050565b600082601f83011261283d5761283c6125fd565b5b813561284d8482602086016127e6565b91505092915050565b6000806040838503121561286d5761286c612245565b5b600061287b85828601612492565b925050602083013567ffffffffffffffff81111561289c5761289b61224a565b5b6128a885828601612828565b9150509250929050565b600080604083850312156128c9576128c8612245565b5b60006128d785828601612492565b92505060206128e885828601612492565b9150509250929050565b7f4e487b7100000000000000000000000000000000000000000000000000000000600052602260045260246000fd5b6000600282049050600182168061293957607f821691505b60208210810361294c5761294b6128f2565b5b50919050565b7f4552433732313a20617070726f76656420717565727920666f72206e6f6e657860008201527f697374656e7420746f6b656e0000000000000000000000000000000000000000602082015250565b60006129ae602c83612315565b91506129b982612952565b604082019050919050565b600060208201905081810360008301526129dd816129a1565b9050919050565b7f4552433732313a20617070726f76616c20746f2063757272656e74206f776e6560008201527f7200000000000000000000000000000000000000000000000000000000000000602082015250565b6000612a40602183612315565b9150612a4b826129e4565b604082019050919050565b60006020820190508181036000830152612a6f81612a33565b9050919050565b7f4552433732313a20617070726f76652063616c6c6572206973206e6f74206f7760008201527f6e6572206e6f7220617070726f76656420666f7220616c6c0000000000000000602082015250565b6000612ad2603883612315565b9150612add82612a76565b604082019050919050565b60006020820190508181036000830152612b0181612ac5565b9050919050565b7f4552433732313a207472616e736665722063616c6c6572206973206e6f74206f60008201527f776e6572206e6f7220617070726f766564000000000000000000000000000000602082015250565b6000612b64603183612315565b9150612b6f82612b08565b604082019050919050565b60006020820190508181036000830152612b9381612b57565b9050919050565b7f455243373231456e756d657261626c653a206f776e657220696e646578206f7560008201527f74206f6620626f756e6473000000000000000000000000000000000000000000602082015250565b6000612bf6602b83612315565b9150612c0182612b9a565b604082019050919050565b60006020820190508181036000830152612c2581612be9565b9050919050565b7f455243373231456e756d657261626c653a20676c6f62616c20696e646578206f60008201527f7574206f6620626f756e64730000000000000000000000000000000000000000602082015250565b6000612c88602c83612315565b9150612c9382612c2c565b604082019050919050565b60006020820190508181036000830152612cb781612c7b565b9050919050565b7f4e487b7100000000000000000000000000000000000000000000000000000000600052603260045260246000fd5b7f4552433732313a206f776e657220717565727920666f72206e6f6e657869737460008201527f656e7420746f6b656e0000000000000000000000000000000000000000000000602082015250565b6000612d49602983612315565b9150612d5482612ced565b604082019050919050565b60006020820190508181036000830152612d7881612d3c565b9050919050565b7f4552433732313a2062616c616e636520717565727920666f7220746865207a6560008201527f726f206164647265737300000000000000000000000000000000000000000000602082015250565b6000612ddb602a83612315565b9150612de682612d7f565b604082019050919050565b60006020820190508181036000830152612e0a81612dce565b9050919050565b7f4f776e61626c653a2063616c6c6572206973206e6f7420746865206f776e6572600082015250565b6000612e47602083612315565b9150612e5282612e11565b602082019050919050565b60006020820190508181036000830152612e7681612e3a565b9050919050565b7f4f776e61626c653a206e6577206f776e657220697320746865207a65726f206160008201527f6464726573730000000000000000000000000000000000000000000000000000602082015250565b6000612ed9602683612315565b9150612ee482612e7d565b604082019050919050565b60006020820190508181036000830152612f0881612ecc565b9050919050565b7f4552433732313a206f70657261746f7220717565727920666f72206e6f6e657860008201527f697374656e7420746f6b656e0000000000000000000000000000000000000000602082015250565b6000612f6b602c83612315565b9150612f7682612f0f565b604082019050919050565b60006020820190508181036000830152612f9a81612f5e565b9050919050565b7f4552433732313a207472616e736665722066726f6d20696e636f72726563742060008201527f6f776e6572000000000000000000000000000000000000000000000000000000602082015250565b6000612ffd602583612315565b915061300882612fa1565b604082019050919050565b6000602082019050818103600083015261302c81612ff0565b9050919050565b7f4552433732313a207472616e7366657220746f20746865207a65726f2061646460008201527f7265737300000000000000000000000000000000000000000000000000000000602082015250565b600061308f602483612315565b915061309a82613033565b604082019050919050565b600060208201905081810360008301526130be81613082565b9050919050565b7f4e487b7100000000000000000000000000000000000000000000000000000000600052601160045260246000fd5b60006130ff826123bc565b915061310a836123bc565b9250828203905081811115613122576131216130c5565b5b92915050565b6000613133826123bc565b915061313e836123bc565b9250828201905080821115613156576131556130c5565b5b92915050565b7f4552433732313a20617070726f766520746f2063616c6c657200000000000000600082015250565b6000613192601983612315565b915061319d8261315c565b602082019050919050565b600060208201905081810360008301526131c181613185565b9050919050565b7f4552433732313a207472616e7366657220746f206e6f6e20455243373231526560008201527f63656976657220696d706c656d656e7465720000000000000000000000000000602082015250565b6000613224603283612315565b915061322f826131c8565b604082019050919050565b6000602082019050818103600083015261325381613217565b9050919050565b7f45524337323155524953746f726167653a2055524920717565727920666f722060008201527f6e6f6e6578697374656e7420746f6b656e000000000000000000000000000000602082015250565b60006132b6603183612315565b91506132c18261325a565b604082019050919050565b600060208201905081810360008301526132e5816132a9565b9050919050565b600081905092915050565b60006133028261230a565b61330c81856132ec565b935061331c818560208601612326565b80840191505092915050565b600061333482856132f7565b915061334082846132f7565b91508190509392505050565b7f45524337323155524953746f726167653a2055524920736574206f66206e6f6e60008201527f6578697374656e7420746f6b656e000000000000000000000000000000000000602082015250565b60006133a8602e83612315565b91506133b38261334c565b604082019050919050565b600060208201905081810360008301526133d78161339b565b9050919050565b60008190508160005260206000209050919050565b60006020601f8301049050919050565b600082821b905092915050565b6000600883026134407fffffffffffffffffffffffffffffffffffffffffffffffffffffffffffffffff82613403565b61344a8683613403565b95508019841693508086168417925050509392505050565b6000819050919050565b600061348761348261347d846123bc565b613462565b6123bc565b9050919050565b6000819050919050565b6134a18361346c565b6134b56134ad8261348e565b848454613410565b825550505050565b600090565b6134ca6134bd565b6134d5818484613498565b505050565b5b818110156134f9576134ee6000826134c2565b6001810190506134db565b5050565b601f82111561353e5761350f816133de565b613518846133f3565b81016020851015613527578190505b61353b613533856133f3565b8301826134da565b50505b505050565b600082821c905092915050565b600061356160001984600802613543565b1980831691505092915050565b600061357a8383613550565b9150826002028217905092915050565b6135938261230a565b67ffffffffffffffff8111156135ac576135ab612607565b5b6135b68254612921565b6135c18282856134fd565b600060209050601f8311600181146135f457600084156135e2578287015190505b6135ec858261356e565b865550613654565b601f198416613602866133de565b60005b8281101561362a57848901518255600182019150602085019450602081019050613605565b868310156136475784890151613643601f891682613550565b8355505b6001600288020188555050505b505050505050565b600081519050919050565b600082825260208201905092915050565b60006136838261365c565b61368d8185613667565b935061369d818560208601612326565b6136a681612350565b840191505092915050565b60006080820190506136c66000830187612451565b6136d36020830186612451565b6136e060408301856124e7565b81810360608301526136f28184613678565b905095945050505050565b60008151905061370c8161227b565b92915050565b60006020828403121561372857613727612245565b5b6000613736848285016136fd565b91505092915050565b7f4552433732314d657461646174613a2055524920717565727920666f72206e6f60008201527f6e6578697374656e7420746f6b656e0000000000000000000000000000000000602082015250565b600061379b602f83612315565b91506137a68261373f565b604082019050919050565b600060208201905081810360008301526137ca8161378e565b9050919050565b60006137dc826123bc565b91507fffffffffffffffffffffffffffffffffffffffffffffffffffffffffffffffff820361380e5761380d6130c5565b5b600182019050919050565b7f4e487b7100000000000000000000000000000000000000000000000000000000600052601260045260246000fd5b6000613853826123bc565b915061385e836123bc565b92508261386e5761386d613819565b5b828204905092915050565b6000613884826123bc565b915061388f836123bc565b92508261389f5761389e613819565b5b828206905092915050565b7f4552433732313a206d696e7420746f20746865207a65726f2061646472657373600082015250565b60006138e0602083612315565b91506138eb826138aa565b602082019050919050565b6000602082019050818103600083015261390f816138d3565b9050919050565b7f4552433732313a20746f6b656e20616c7265616479206d696e74656400000000600082015250565b600061394c601c83612315565b915061395782613916565b602082019050919050565b6000602082019050818103600083015261397b8161393f565b9050919050565b7f4e487b7100000000000000000000000000000000000000000000000000000000600052603160045260246000fdfea264697066735822122066d544e3c9c9b9108c69a37a4b264f2e53e39d289def2bb5b5c54b0e0c81e51f64736f6c63430008100033",
    "immutableReferences": {},
    "source": "// SPDX-License-Identifier: MIT\npragma solidity ^0.8.14;\n\nimport \"./GenericNFT.sol\";\n\ncontract PokemonNFT is GenericNFT {\n    constructor() GenericNFT(\"PokemonNFT\", \"PokeNFT\") {}\n}\n",
    "sourcePath": "/Users/adrien/Alyra/opensea-clone/contracts/NFT/PokemonNFT.sol",
    "compiler": {
        "name": "solc",
        "version": "0.8.16+commit.07a7930e.Emscripten.clang"
    },
    "schemaVersion": "3.4.3",
    "updatedAt": "2022-08-29T13:53:55.369Z",
    "networkType": "ethereum",
    "devdoc": {
        "kind": "dev",
        "methods": {
            "approve(address,uint256)": {
                "details": "See {IERC721-approve}."
            },
            "balanceOf(address)": {
                "details": "See {IERC721-balanceOf}."
            },
            "getApproved(uint256)": {
                "details": "See {IERC721-getApproved}."
            },
            "isApprovedForAll(address,address)": {
                "details": "See {IERC721-isApprovedForAll}."
            },
            "name()": {
                "details": "See {IERC721Metadata-name}."
            },
            "owner()": {
                "details": "Returns the address of the current owner."
            },
            "ownerOf(uint256)": {
                "details": "See {IERC721-ownerOf}."
            },
            "renounceOwnership()": {
                "details": "Leaves the contract without owner. It will not be possible to call `onlyOwner` functions anymore. Can only be called by the current owner. NOTE: Renouncing ownership will leave the contract without an owner, thereby removing any functionality that is only available to the owner."
            },
            "safeTransferFrom(address,address,uint256)": {
                "details": "See {IERC721-safeTransferFrom}."
            },
            "safeTransferFrom(address,address,uint256,bytes)": {
                "details": "See {IERC721-safeTransferFrom}."
            },
            "setApprovalForAll(address,bool)": {
                "details": "See {IERC721-setApprovalForAll}."
            },
            "symbol()": {
                "details": "See {IERC721Metadata-symbol}."
            },
            "tokenByIndex(uint256)": {
                "details": "See {IERC721Enumerable-tokenByIndex}."
            },
            "tokenOfOwnerByIndex(address,uint256)": {
                "details": "See {IERC721Enumerable-tokenOfOwnerByIndex}."
            },
            "totalSupply()": {
                "details": "See {IERC721Enumerable-totalSupply}."
            },
            "transferFrom(address,address,uint256)": {
                "details": "See {IERC721-transferFrom}."
            },
            "transferOwnership(address)": {
                "details": "Transfers ownership of the contract to a new account (`newOwner`). Can only be called by the current owner."
            }
        },
        "version": 1
    },
    "userdoc": {
        "kind": "user",
        "methods": {},
        "version": 1
    }
}