{
    "contractName": "UpgradableGenericNFT",
    "abi": [
        {
            "anonymous": false,
            "inputs": [
                {
                    "indexed": true,
                    "internalType": "address",
                    "name": "owner",
                    "type": "address"
                },
                {
                    "indexed": true,
                    "internalType": "address",
                    "name": "approved",
                    "type": "address"
                },
                {
                    "indexed": true,
                    "internalType": "uint256",
                    "name": "tokenId",
                    "type": "uint256"
                }
            ],
            "name": "Approval",
            "type": "event"
        },
        {
            "anonymous": false,
            "inputs": [
                {
                    "indexed": true,
                    "internalType": "address",
                    "name": "owner",
                    "type": "address"
                },
                {
                    "indexed": true,
                    "internalType": "address",
                    "name": "operator",
                    "type": "address"
                },
                {
                    "indexed": false,
                    "internalType": "bool",
                    "name": "approved",
                    "type": "bool"
                }
            ],
            "name": "ApprovalForAll",
            "type": "event"
        },
        {
            "anonymous": false,
            "inputs": [
                {
                    "indexed": false,
                    "internalType": "uint8",
                    "name": "version",
                    "type": "uint8"
                }
            ],
            "name": "Initialized",
            "type": "event"
        },
        {
            "anonymous": false,
            "inputs": [
                {
                    "indexed": true,
                    "internalType": "address",
                    "name": "previousOwner",
                    "type": "address"
                },
                {
                    "indexed": true,
                    "internalType": "address",
                    "name": "newOwner",
                    "type": "address"
                }
            ],
            "name": "OwnershipTransferred",
            "type": "event"
        },
        {
            "anonymous": false,
            "inputs": [
                {
                    "indexed": true,
                    "internalType": "address",
                    "name": "from",
                    "type": "address"
                },
                {
                    "indexed": true,
                    "internalType": "address",
                    "name": "to",
                    "type": "address"
                },
                {
                    "indexed": true,
                    "internalType": "uint256",
                    "name": "tokenId",
                    "type": "uint256"
                }
            ],
            "name": "Transfer",
            "type": "event"
        },
        {
            "inputs": [
                {
                    "internalType": "address",
                    "name": "to",
                    "type": "address"
                },
                {
                    "internalType": "uint256",
                    "name": "tokenId",
                    "type": "uint256"
                }
            ],
            "name": "approve",
            "outputs": [],
            "stateMutability": "nonpayable",
            "type": "function"
        },
        {
            "inputs": [
                {
                    "internalType": "address",
                    "name": "owner",
                    "type": "address"
                }
            ],
            "name": "balanceOf",
            "outputs": [
                {
                    "internalType": "uint256",
                    "name": "",
                    "type": "uint256"
                }
            ],
            "stateMutability": "view",
            "type": "function"
        },
        {
            "inputs": [
                {
                    "internalType": "uint256",
                    "name": "tokenId",
                    "type": "uint256"
                }
            ],
            "name": "getApproved",
            "outputs": [
                {
                    "internalType": "address",
                    "name": "",
                    "type": "address"
                }
            ],
            "stateMutability": "view",
            "type": "function"
        },
        {
            "inputs": [
                {
                    "internalType": "address",
                    "name": "owner",
                    "type": "address"
                },
                {
                    "internalType": "address",
                    "name": "operator",
                    "type": "address"
                }
            ],
            "name": "isApprovedForAll",
            "outputs": [
                {
                    "internalType": "bool",
                    "name": "",
                    "type": "bool"
                }
            ],
            "stateMutability": "view",
            "type": "function"
        },
        {
            "inputs": [],
            "name": "name",
            "outputs": [
                {
                    "internalType": "string",
                    "name": "",
                    "type": "string"
                }
            ],
            "stateMutability": "view",
            "type": "function"
        },
        {
            "inputs": [],
            "name": "owner",
            "outputs": [
                {
                    "internalType": "address",
                    "name": "",
                    "type": "address"
                }
            ],
            "stateMutability": "view",
            "type": "function"
        },
        {
            "inputs": [
                {
                    "internalType": "uint256",
                    "name": "tokenId",
                    "type": "uint256"
                }
            ],
            "name": "ownerOf",
            "outputs": [
                {
                    "internalType": "address",
                    "name": "",
                    "type": "address"
                }
            ],
            "stateMutability": "view",
            "type": "function"
        },
        {
            "inputs": [],
            "name": "renounceOwnership",
            "outputs": [],
            "stateMutability": "nonpayable",
            "type": "function"
        },
        {
            "inputs": [
                {
                    "internalType": "address",
                    "name": "from",
                    "type": "address"
                },
                {
                    "internalType": "address",
                    "name": "to",
                    "type": "address"
                },
                {
                    "internalType": "uint256",
                    "name": "tokenId",
                    "type": "uint256"
                }
            ],
            "name": "safeTransferFrom",
            "outputs": [],
            "stateMutability": "nonpayable",
            "type": "function"
        },
        {
            "inputs": [
                {
                    "internalType": "address",
                    "name": "from",
                    "type": "address"
                },
                {
                    "internalType": "address",
                    "name": "to",
                    "type": "address"
                },
                {
                    "internalType": "uint256",
                    "name": "tokenId",
                    "type": "uint256"
                },
                {
                    "internalType": "bytes",
                    "name": "data",
                    "type": "bytes"
                }
            ],
            "name": "safeTransferFrom",
            "outputs": [],
            "stateMutability": "nonpayable",
            "type": "function"
        },
        {
            "inputs": [
                {
                    "internalType": "address",
                    "name": "operator",
                    "type": "address"
                },
                {
                    "internalType": "bool",
                    "name": "approved",
                    "type": "bool"
                }
            ],
            "name": "setApprovalForAll",
            "outputs": [],
            "stateMutability": "nonpayable",
            "type": "function"
        },
        {
            "inputs": [],
            "name": "symbol",
            "outputs": [
                {
                    "internalType": "string",
                    "name": "",
                    "type": "string"
                }
            ],
            "stateMutability": "view",
            "type": "function"
        },
        {
            "inputs": [
                {
                    "internalType": "uint256",
                    "name": "index",
                    "type": "uint256"
                }
            ],
            "name": "tokenByIndex",
            "outputs": [
                {
                    "internalType": "uint256",
                    "name": "",
                    "type": "uint256"
                }
            ],
            "stateMutability": "view",
            "type": "function"
        },
        {
            "inputs": [
                {
                    "internalType": "address",
                    "name": "owner",
                    "type": "address"
                },
                {
                    "internalType": "uint256",
                    "name": "index",
                    "type": "uint256"
                }
            ],
            "name": "tokenOfOwnerByIndex",
            "outputs": [
                {
                    "internalType": "uint256",
                    "name": "",
                    "type": "uint256"
                }
            ],
            "stateMutability": "view",
            "type": "function"
        },
        {
            "inputs": [],
            "name": "totalSupply",
            "outputs": [
                {
                    "internalType": "uint256",
                    "name": "",
                    "type": "uint256"
                }
            ],
            "stateMutability": "view",
            "type": "function"
        },
        {
            "inputs": [
                {
                    "internalType": "address",
                    "name": "from",
                    "type": "address"
                },
                {
                    "internalType": "address",
                    "name": "to",
                    "type": "address"
                },
                {
                    "internalType": "uint256",
                    "name": "tokenId",
                    "type": "uint256"
                }
            ],
            "name": "transferFrom",
            "outputs": [],
            "stateMutability": "nonpayable",
            "type": "function"
        },
        {
            "inputs": [
                {
                    "internalType": "address",
                    "name": "newOwner",
                    "type": "address"
                }
            ],
            "name": "transferOwnership",
            "outputs": [],
            "stateMutability": "nonpayable",
            "type": "function"
        },
        {
            "inputs": [
                {
                    "internalType": "string",
                    "name": "tokenName",
                    "type": "string"
                },
                {
                    "internalType": "string",
                    "name": "symbol",
                    "type": "string"
                }
            ],
            "name": "initialize",
            "outputs": [],
            "stateMutability": "nonpayable",
            "type": "function"
        },
        {
            "inputs": [
                {
                    "internalType": "address",
                    "name": "to",
                    "type": "address"
                },
                {
                    "internalType": "string",
                    "name": "uri",
                    "type": "string"
                }
            ],
            "name": "safeMint",
            "outputs": [],
            "stateMutability": "nonpayable",
            "type": "function"
        },
        {
            "inputs": [
                {
                    "internalType": "uint256",
                    "name": "tokenId",
                    "type": "uint256"
                }
            ],
            "name": "tokenURI",
            "outputs": [
                {
                    "internalType": "string",
                    "name": "",
                    "type": "string"
                }
            ],
            "stateMutability": "view",
            "type": "function"
        },
        {
            "inputs": [
                {
                    "internalType": "bytes4",
                    "name": "interfaceId",
                    "type": "bytes4"
                }
            ],
            "name": "supportsInterface",
            "outputs": [
                {
                    "internalType": "bool",
                    "name": "",
                    "type": "bool"
                }
            ],
            "stateMutability": "view",
            "type": "function"
        }
    ],
    "bytecode": "0x608060405234801561001057600080fd5b50613b8e806100206000396000f3fe608060405234801561001057600080fd5b50600436106101375760003560e01c80636352211e116100b8578063a22cb4651161007c578063a22cb4651461034e578063b88d4fde1461036a578063c87b56dd14610386578063d204c45e146103b6578063e985e9c5146103d2578063f2fde38b1461040257610137565b80636352211e146102a857806370a08231146102d8578063715018a6146103085780638da5cb5b1461031257806395d89b411461033057610137565b806323b872dd116100ff57806323b872dd146101f45780632f745c591461021057806342842e0e146102405780634cd88b761461025c5780634f6ccce71461027857610137565b806301ffc9a71461013c57806306fdde031461016c578063081812fc1461018a578063095ea7b3146101ba57806318160ddd146101d6575b600080fd5b610156600480360381019061015191906124bd565b61041e565b6040516101639190612505565b60405180910390f35b610174610430565b60405161018191906125b0565b60405180910390f35b6101a4600480360381019061019f9190612608565b6104c2565b6040516101b19190612676565b60405180910390f35b6101d460048036038101906101cf91906126bd565b610508565b005b6101de61061f565b6040516101eb919061270c565b60405180910390f35b61020e60048036038101906102099190612727565b61062c565b005b61022a600480360381019061022591906126bd565b61068c565b604051610237919061270c565b60405180910390f35b61025a60048036038101906102559190612727565b610731565b005b610276600480360381019061027191906128af565b610751565b005b610292600480360381019061028d9190612608565b6108ab565b60405161029f919061270c565b60405180910390f35b6102c260048036038101906102bd9190612608565b61091c565b6040516102cf9190612676565b60405180910390f35b6102f260048036038101906102ed9190612927565b6109cd565b6040516102ff919061270c565b60405180910390f35b610310610a84565b005b61031a610a98565b6040516103279190612676565b60405180910390f35b610338610ac2565b60405161034591906125b0565b60405180910390f35b61036860048036038101906103639190612980565b610b54565b005b610384600480360381019061037f9190612a61565b610b6a565b005b6103a0600480360381019061039b9190612608565b610bcc565b6040516103ad91906125b0565b60405180910390f35b6103d060048036038101906103cb9190612ae4565b610bde565b005b6103ec60048036038101906103e79190612b40565b610c19565b6040516103f99190612505565b60405180910390f35b61041c60048036038101906104179190612927565b610cad565b005b600061042982610d30565b9050919050565b60606065805461043f90612baf565b80601f016020809104026020016040519081016040528092919081815260200182805461046b90612baf565b80156104b85780601f1061048d576101008083540402835291602001916104b8565b820191906000526020600020905b81548152906001019060200180831161049b57829003601f168201915b5050505050905090565b60006104cd82610daa565b6069600083815260200190815260200160002060009054906101000a900473ffffffffffffffffffffffffffffffffffffffff169050919050565b60006105138261091c565b90508073ffffffffffffffffffffffffffffffffffffffff168373ffffffffffffffffffffffffffffffffffffffff1603610583576040517f08c379a000000000000000000000000000000000000000000000000000000000815260040161057a90612c52565b60405180910390fd5b8073ffffffffffffffffffffffffffffffffffffffff166105a2610df5565b73ffffffffffffffffffffffffffffffffffffffff1614806105d157506105d0816105cb610df5565b610c19565b5b610610576040517f08c379a000000000000000000000000000000000000000000000000000000000815260040161060790612ce4565b60405180910390fd5b61061a8383610dfd565b505050565b6000609980549050905090565b61063d610637610df5565b82610eb6565b61067c576040517f08c379a000000000000000000000000000000000000000000000000000000000815260040161067390612d76565b60405180910390fd5b610687838383610f4b565b505050565b6000610697836109cd565b82106106d8576040517f08c379a00000000000000000000000000000000000000000000000000000000081526004016106cf90612e08565b60405180910390fd5b609760008473ffffffffffffffffffffffffffffffffffffffff1673ffffffffffffffffffffffffffffffffffffffff168152602001908152602001600020600083815260200190815260200160002054905092915050565b61074c83838360405180602001604052806000815250610b6a565b505050565b60008060019054906101000a900460ff161590508080156107825750600160008054906101000a900460ff1660ff16105b806107af5750610791306111b1565b1580156107ae5750600160008054906101000a900460ff1660ff16145b5b6107ee576040517f08c379a00000000000000000000000000000000000000000000000000000000081526004016107e590612e9a565b60405180910390fd5b60016000806101000a81548160ff021916908360ff160217905550801561082b576001600060016101000a81548160ff0219169083151502179055505b61083583836111d4565b61083d611231565b610845611282565b61084d6112d3565b80156108a65760008060016101000a81548160ff0219169083151502179055507f7f26b83ff96e1f2b6a682f133852f6798a09c465da95921460cefb3847402498600160405161089d9190612f0c565b60405180910390a15b505050565b60006108b561061f565b82106108f6576040517f08c379a00000000000000000000000000000000000000000000000000000000081526004016108ed90612f99565b60405180910390fd5b6099828154811061090a57610909612fb9565b5b90600052602060002001549050919050565b6000806067600084815260200190815260200160002060009054906101000a900473ffffffffffffffffffffffffffffffffffffffff169050600073ffffffffffffffffffffffffffffffffffffffff168173ffffffffffffffffffffffffffffffffffffffff16036109c4576040517f08c379a00000000000000000000000000000000000000000000000000000000081526004016109bb90613034565b60405180910390fd5b80915050919050565b60008073ffffffffffffffffffffffffffffffffffffffff168273ffffffffffffffffffffffffffffffffffffffff1603610a3d576040517f08c379a0000000000000000000000000000000000000000000000000000000008152600401610a34906130c6565b60405180910390fd5b606860008373ffffffffffffffffffffffffffffffffffffffff1673ffffffffffffffffffffffffffffffffffffffff168152602001908152602001600020549050919050565b610a8c61132c565b610a9660006113aa565b565b600060fb60009054906101000a900473ffffffffffffffffffffffffffffffffffffffff16905090565b606060668054610ad190612baf565b80601f0160208091040260200160405190810160405280929190818152602001828054610afd90612baf565b8015610b4a5780601f10610b1f57610100808354040283529160200191610b4a565b820191906000526020600020905b815481529060010190602001808311610b2d57829003601f168201915b5050505050905090565b610b66610b5f610df5565b8383611470565b5050565b610b7b610b75610df5565b83610eb6565b610bba576040517f08c379a0000000000000000000000000000000000000000000000000000000008152600401610bb190612d76565b60405180910390fd5b610bc6848484846115dc565b50505050565b6060610bd782611638565b9050919050565b610be661132c565b6000610bf361012d61174a565b9050610c0061012d611758565b610c0a838261176e565b610c14818361178c565b505050565b6000606a60008473ffffffffffffffffffffffffffffffffffffffff1673ffffffffffffffffffffffffffffffffffffffff16815260200190815260200160002060008373ffffffffffffffffffffffffffffffffffffffff1673ffffffffffffffffffffffffffffffffffffffff16815260200190815260200160002060009054906101000a900460ff16905092915050565b610cb561132c565b600073ffffffffffffffffffffffffffffffffffffffff168173ffffffffffffffffffffffffffffffffffffffff1603610d24576040517f08c379a0000000000000000000000000000000000000000000000000000000008152600401610d1b90613158565b60405180910390fd5b610d2d816113aa565b50565b60007f780e9d63000000000000000000000000000000000000000000000000000000007bffffffffffffffffffffffffffffffffffffffffffffffffffffffff1916827bffffffffffffffffffffffffffffffffffffffffffffffffffffffff19161480610da35750610da2826117f9565b5b9050919050565b610db3816118db565b610df2576040517f08c379a0000000000000000000000000000000000000000000000000000000008152600401610de990613034565b60405180910390fd5b50565b600033905090565b816069600083815260200190815260200160002060006101000a81548173ffffffffffffffffffffffffffffffffffffffff021916908373ffffffffffffffffffffffffffffffffffffffff160217905550808273ffffffffffffffffffffffffffffffffffffffff16610e708361091c565b73ffffffffffffffffffffffffffffffffffffffff167f8c5be1e5ebec7d5bd14f71427d1e84f3dd0314c0f7b2291e5b200ac8c7c3b92560405160405180910390a45050565b600080610ec28361091c565b90508073ffffffffffffffffffffffffffffffffffffffff168473ffffffffffffffffffffffffffffffffffffffff161480610f045750610f038185610c19565b5b80610f4257508373ffffffffffffffffffffffffffffffffffffffff16610f2a846104c2565b73ffffffffffffffffffffffffffffffffffffffff16145b91505092915050565b8273ffffffffffffffffffffffffffffffffffffffff16610f6b8261091c565b73ffffffffffffffffffffffffffffffffffffffff1614610fc1576040517f08c379a0000000000000000000000000000000000000000000000000000000008152600401610fb8906131ea565b60405180910390fd5b600073ffffffffffffffffffffffffffffffffffffffff168273ffffffffffffffffffffffffffffffffffffffff1603611030576040517f08c379a00000000000000000000000000000000000000000000000000000000081526004016110279061327c565b60405180910390fd5b61103b838383611947565b611046600082610dfd565b6001606860008573ffffffffffffffffffffffffffffffffffffffff1673ffffffffffffffffffffffffffffffffffffffff168152602001908152602001600020600082825461109691906132cb565b925050819055506001606860008473ffffffffffffffffffffffffffffffffffffffff1673ffffffffffffffffffffffffffffffffffffffff16815260200190815260200160002060008282546110ed91906132ff565b92505081905550816067600083815260200190815260200160002060006101000a81548173ffffffffffffffffffffffffffffffffffffffff021916908373ffffffffffffffffffffffffffffffffffffffff160217905550808273ffffffffffffffffffffffffffffffffffffffff168473ffffffffffffffffffffffffffffffffffffffff167fddf252ad1be2c89b69c2b068fc378daa952ba7f163c4a11628f55a4df523b3ef60405160405180910390a46111ac838383611957565b505050565b6000808273ffffffffffffffffffffffffffffffffffffffff163b119050919050565b600060019054906101000a900460ff16611223576040517f08c379a000000000000000000000000000000000000000000000000000000000815260040161121a906133a5565b60405180910390fd5b61122d828261195c565b5050565b600060019054906101000a900460ff16611280576040517f08c379a0000000000000000000000000000000000000000000000000000000008152600401611277906133a5565b60405180910390fd5b565b600060019054906101000a900460ff166112d1576040517f08c379a00000000000000000000000000000000000000000000000000000000081526004016112c8906133a5565b60405180910390fd5b565b600060019054906101000a900460ff16611322576040517f08c379a0000000000000000000000000000000000000000000000000000000008152600401611319906133a5565b60405180910390fd5b61132a6119cf565b565b611334610df5565b73ffffffffffffffffffffffffffffffffffffffff16611352610a98565b73ffffffffffffffffffffffffffffffffffffffff16146113a8576040517f08c379a000000000000000000000000000000000000000000000000000000000815260040161139f90613411565b60405180910390fd5b565b600060fb60009054906101000a900473ffffffffffffffffffffffffffffffffffffffff1690508160fb60006101000a81548173ffffffffffffffffffffffffffffffffffffffff021916908373ffffffffffffffffffffffffffffffffffffffff1602179055508173ffffffffffffffffffffffffffffffffffffffff168173ffffffffffffffffffffffffffffffffffffffff167f8be0079c531659141344cd1fd0a4f28419497f9722a3daafe3b4186f6b6457e060405160405180910390a35050565b8173ffffffffffffffffffffffffffffffffffffffff168373ffffffffffffffffffffffffffffffffffffffff16036114de576040517f08c379a00000000000000000000000000000000000000000000000000000000081526004016114d59061347d565b60405180910390fd5b80606a60008573ffffffffffffffffffffffffffffffffffffffff1673ffffffffffffffffffffffffffffffffffffffff16815260200190815260200160002060008473ffffffffffffffffffffffffffffffffffffffff1673ffffffffffffffffffffffffffffffffffffffff16815260200190815260200160002060006101000a81548160ff0219169083151502179055508173ffffffffffffffffffffffffffffffffffffffff168373ffffffffffffffffffffffffffffffffffffffff167f17307eab39ab6107e8899845ad3d59bd9653f200f220920489ca2b5937696c31836040516115cf9190612505565b60405180910390a3505050565b6115e7848484610f4b565b6115f384848484611a30565b611632576040517f08c379a00000000000000000000000000000000000000000000000000000000081526004016116299061350f565b60405180910390fd5b50505050565b606061164382610daa565b600060c96000848152602001908152602001600020805461166390612baf565b80601f016020809104026020016040519081016040528092919081815260200182805461168f90612baf565b80156116dc5780601f106116b1576101008083540402835291602001916116dc565b820191906000526020600020905b8154815290600101906020018083116116bf57829003601f168201915b5050505050905060006116ed611bb7565b90506000815103611702578192505050611745565b60008251111561173757808260405160200161171f92919061356b565b60405160208183030381529060405292505050611745565b61174084611bce565b925050505b919050565b600081600001549050919050565b6001816000016000828254019250508190555050565b611788828260405180602001604052806000815250611c36565b5050565b611795826118db565b6117d4576040517f08c379a00000000000000000000000000000000000000000000000000000000081526004016117cb90613601565b60405180910390fd5b8060c9600084815260200190815260200160002090816117f491906137c3565b505050565b60007f80ac58cd000000000000000000000000000000000000000000000000000000007bffffffffffffffffffffffffffffffffffffffffffffffffffffffff1916827bffffffffffffffffffffffffffffffffffffffffffffffffffffffff191614806118c457507f5b5e139f000000000000000000000000000000000000000000000000000000007bffffffffffffffffffffffffffffffffffffffffffffffffffffffff1916827bffffffffffffffffffffffffffffffffffffffffffffffffffffffff1916145b806118d457506118d382611c91565b5b9050919050565b60008073ffffffffffffffffffffffffffffffffffffffff166067600084815260200190815260200160002060009054906101000a900473ffffffffffffffffffffffffffffffffffffffff1673ffffffffffffffffffffffffffffffffffffffff1614159050919050565b611952838383611cfb565b505050565b505050565b600060019054906101000a900460ff166119ab576040517f08c379a00000000000000000000000000000000000000000000000000000000081526004016119a2906133a5565b60405180910390fd5b81606590816119ba91906137c3565b5080606690816119ca91906137c3565b505050565b600060019054906101000a900460ff16611a1e576040517f08c379a0000000000000000000000000000000000000000000000000000000008152600401611a15906133a5565b60405180910390fd5b611a2e611a29610df5565b6113aa565b565b6000611a518473ffffffffffffffffffffffffffffffffffffffff166111b1565b15611baa578373ffffffffffffffffffffffffffffffffffffffff1663150b7a02611a7a610df5565b8786866040518563ffffffff1660e01b8152600401611a9c94939291906138ea565b6020604051808303816000875af1925050508015611ad857506040513d601f19601f82011682018060405250810190611ad5919061394b565b60015b611b5a573d8060008114611b08576040519150601f19603f3d011682016040523d82523d6000602084013e611b0d565b606091505b506000815103611b52576040517f08c379a0000000000000000000000000000000000000000000000000000000008152600401611b499061350f565b60405180910390fd5b805181602001fd5b63150b7a0260e01b7bffffffffffffffffffffffffffffffffffffffffffffffffffffffff1916817bffffffffffffffffffffffffffffffffffffffffffffffffffffffff191614915050611baf565b600190505b949350505050565b606060405180602001604052806000815250905090565b6060611bd982610daa565b6000611be3611bb7565b90506000815111611c035760405180602001604052806000815250611c2e565b80611c0d84611e0d565b604051602001611c1e92919061356b565b6040516020818303038152906040525b915050919050565b611c408383611f6d565b611c4d6000848484611a30565b611c8c576040517f08c379a0000000000000000000000000000000000000000000000000000000008152600401611c839061350f565b60405180910390fd5b505050565b60007f01ffc9a7000000000000000000000000000000000000000000000000000000007bffffffffffffffffffffffffffffffffffffffffffffffffffffffff1916827bffffffffffffffffffffffffffffffffffffffffffffffffffffffff1916149050919050565b611d06838383612146565b600073ffffffffffffffffffffffffffffffffffffffff168373ffffffffffffffffffffffffffffffffffffffff1603611d4857611d438161214b565b611d87565b8173ffffffffffffffffffffffffffffffffffffffff168373ffffffffffffffffffffffffffffffffffffffff1614611d8657611d858382612194565b5b5b600073ffffffffffffffffffffffffffffffffffffffff168273ffffffffffffffffffffffffffffffffffffffff1603611dc957611dc481612301565b611e08565b8273ffffffffffffffffffffffffffffffffffffffff168273ffffffffffffffffffffffffffffffffffffffff1614611e0757611e0682826123d2565b5b5b505050565b606060008203611e54576040518060400160405280600181526020017f30000000000000000000000000000000000000000000000000000000000000008152509050611f68565b600082905060005b60008214611e86578080611e6f90613978565b915050600a82611e7f91906139ef565b9150611e5c565b60008167ffffffffffffffff811115611ea257611ea1612784565b5b6040519080825280601f01601f191660200182016040528015611ed45781602001600182028036833780820191505090505b5090505b60008514611f6157600182611eed91906132cb565b9150600a85611efc9190613a20565b6030611f0891906132ff565b60f81b818381518110611f1e57611f1d612fb9565b5b60200101907effffffffffffffffffffffffffffffffffffffffffffffffffffffffffffff1916908160001a905350600a85611f5a91906139ef565b9450611ed8565b8093505050505b919050565b600073ffffffffffffffffffffffffffffffffffffffff168273ffffffffffffffffffffffffffffffffffffffff1603611fdc576040517f08c379a0000000000000000000000000000000000000000000000000000000008152600401611fd390613a9d565b60405180910390fd5b611fe5816118db565b15612025576040517f08c379a000000000000000000000000000000000000000000000000000000000815260040161201c90613b09565b60405180910390fd5b61203160008383611947565b6001606860008473ffffffffffffffffffffffffffffffffffffffff1673ffffffffffffffffffffffffffffffffffffffff168152602001908152602001600020600082825461208191906132ff565b92505081905550816067600083815260200190815260200160002060006101000a81548173ffffffffffffffffffffffffffffffffffffffff021916908373ffffffffffffffffffffffffffffffffffffffff160217905550808273ffffffffffffffffffffffffffffffffffffffff16600073ffffffffffffffffffffffffffffffffffffffff167fddf252ad1be2c89b69c2b068fc378daa952ba7f163c4a11628f55a4df523b3ef60405160405180910390a461214260008383611957565b5050565b505050565b609980549050609a600083815260200190815260200160002081905550609981908060018154018082558091505060019003906000526020600020016000909190919091505550565b600060016121a1846109cd565b6121ab91906132cb565b9050600060986000848152602001908152602001600020549050818114612290576000609760008673ffffffffffffffffffffffffffffffffffffffff1673ffffffffffffffffffffffffffffffffffffffff168152602001908152602001600020600084815260200190815260200160002054905080609760008773ffffffffffffffffffffffffffffffffffffffff1673ffffffffffffffffffffffffffffffffffffffff168152602001908152602001600020600084815260200190815260200160002081905550816098600083815260200190815260200160002081905550505b6098600084815260200190815260200160002060009055609760008573ffffffffffffffffffffffffffffffffffffffff1673ffffffffffffffffffffffffffffffffffffffff16815260200190815260200160002060008381526020019081526020016000206000905550505050565b6000600160998054905061231591906132cb565b90506000609a600084815260200190815260200160002054905060006099838154811061234557612344612fb9565b5b90600052602060002001549050806099838154811061236757612366612fb9565b5b906000526020600020018190555081609a600083815260200190815260200160002081905550609a60008581526020019081526020016000206000905560998054806123b6576123b5613b29565b5b6001900381819060005260206000200160009055905550505050565b60006123dd836109cd565b905081609760008573ffffffffffffffffffffffffffffffffffffffff1673ffffffffffffffffffffffffffffffffffffffff168152602001908152602001600020600083815260200190815260200160002081905550806098600084815260200190815260200160002081905550505050565b6000604051905090565b600080fd5b600080fd5b60007fffffffff0000000000000000000000000000000000000000000000000000000082169050919050565b61249a81612465565b81146124a557600080fd5b50565b6000813590506124b781612491565b92915050565b6000602082840312156124d3576124d261245b565b5b60006124e1848285016124a8565b91505092915050565b60008115159050919050565b6124ff816124ea565b82525050565b600060208201905061251a60008301846124f6565b92915050565b600081519050919050565b600082825260208201905092915050565b60005b8381101561255a57808201518184015260208101905061253f565b60008484015250505050565b6000601f19601f8301169050919050565b600061258282612520565b61258c818561252b565b935061259c81856020860161253c565b6125a581612566565b840191505092915050565b600060208201905081810360008301526125ca8184612577565b905092915050565b6000819050919050565b6125e5816125d2565b81146125f057600080fd5b50565b600081359050612602816125dc565b92915050565b60006020828403121561261e5761261d61245b565b5b600061262c848285016125f3565b91505092915050565b600073ffffffffffffffffffffffffffffffffffffffff82169050919050565b600061266082612635565b9050919050565b61267081612655565b82525050565b600060208201905061268b6000830184612667565b92915050565b61269a81612655565b81146126a557600080fd5b50565b6000813590506126b781612691565b92915050565b600080604083850312156126d4576126d361245b565b5b60006126e2858286016126a8565b92505060206126f3858286016125f3565b9150509250929050565b612706816125d2565b82525050565b600060208201905061272160008301846126fd565b92915050565b6000806000606084860312156127405761273f61245b565b5b600061274e868287016126a8565b935050602061275f868287016126a8565b9250506040612770868287016125f3565b9150509250925092565b600080fd5b600080fd5b7f4e487b7100000000000000000000000000000000000000000000000000000000600052604160045260246000fd5b6127bc82612566565b810181811067ffffffffffffffff821117156127db576127da612784565b5b80604052505050565b60006127ee612451565b90506127fa82826127b3565b919050565b600067ffffffffffffffff82111561281a57612819612784565b5b61282382612566565b9050602081019050919050565b82818337600083830152505050565b600061285261284d846127ff565b6127e4565b90508281526020810184848401111561286e5761286d61277f565b5b612879848285612830565b509392505050565b600082601f8301126128965761289561277a565b5b81356128a684826020860161283f565b91505092915050565b600080604083850312156128c6576128c561245b565b5b600083013567ffffffffffffffff8111156128e4576128e3612460565b5b6128f085828601612881565b925050602083013567ffffffffffffffff81111561291157612910612460565b5b61291d85828601612881565b9150509250929050565b60006020828403121561293d5761293c61245b565b5b600061294b848285016126a8565b91505092915050565b61295d816124ea565b811461296857600080fd5b50565b60008135905061297a81612954565b92915050565b600080604083850312156129975761299661245b565b5b60006129a5858286016126a8565b92505060206129b68582860161296b565b9150509250929050565b600067ffffffffffffffff8211156129db576129da612784565b5b6129e482612566565b9050602081019050919050565b6000612a046129ff846129c0565b6127e4565b905082815260208101848484011115612a2057612a1f61277f565b5b612a2b848285612830565b509392505050565b600082601f830112612a4857612a4761277a565b5b8135612a588482602086016129f1565b91505092915050565b60008060008060808587031215612a7b57612a7a61245b565b5b6000612a89878288016126a8565b9450506020612a9a878288016126a8565b9350506040612aab878288016125f3565b925050606085013567ffffffffffffffff811115612acc57612acb612460565b5b612ad887828801612a33565b91505092959194509250565b60008060408385031215612afb57612afa61245b565b5b6000612b09858286016126a8565b925050602083013567ffffffffffffffff811115612b2a57612b29612460565b5b612b3685828601612881565b9150509250929050565b60008060408385031215612b5757612b5661245b565b5b6000612b65858286016126a8565b9250506020612b76858286016126a8565b9150509250929050565b7f4e487b7100000000000000000000000000000000000000000000000000000000600052602260045260246000fd5b60006002820490506001821680612bc757607f821691505b602082108103612bda57612bd9612b80565b5b50919050565b7f4552433732313a20617070726f76616c20746f2063757272656e74206f776e6560008201527f7200000000000000000000000000000000000000000000000000000000000000602082015250565b6000612c3c60218361252b565b9150612c4782612be0565b604082019050919050565b60006020820190508181036000830152612c6b81612c2f565b9050919050565b7f4552433732313a20617070726f76652063616c6c6572206973206e6f7420746f60008201527f6b656e206f776e6572206e6f7220617070726f76656420666f7220616c6c0000602082015250565b6000612cce603e8361252b565b9150612cd982612c72565b604082019050919050565b60006020820190508181036000830152612cfd81612cc1565b9050919050565b7f4552433732313a2063616c6c6572206973206e6f7420746f6b656e206f776e6560008201527f72206e6f7220617070726f766564000000000000000000000000000000000000602082015250565b6000612d60602e8361252b565b9150612d6b82612d04565b604082019050919050565b60006020820190508181036000830152612d8f81612d53565b9050919050565b7f455243373231456e756d657261626c653a206f776e657220696e646578206f7560008201527f74206f6620626f756e6473000000000000000000000000000000000000000000602082015250565b6000612df2602b8361252b565b9150612dfd82612d96565b604082019050919050565b60006020820190508181036000830152612e2181612de5565b9050919050565b7f496e697469616c697a61626c653a20636f6e747261637420697320616c72656160008201527f647920696e697469616c697a6564000000000000000000000000000000000000602082015250565b6000612e84602e8361252b565b9150612e8f82612e28565b604082019050919050565b60006020820190508181036000830152612eb381612e77565b9050919050565b6000819050919050565b600060ff82169050919050565b6000819050919050565b6000612ef6612ef1612eec84612eba565b612ed1565b612ec4565b9050919050565b612f0681612edb565b82525050565b6000602082019050612f216000830184612efd565b92915050565b7f455243373231456e756d657261626c653a20676c6f62616c20696e646578206f60008201527f7574206f6620626f756e64730000000000000000000000000000000000000000602082015250565b6000612f83602c8361252b565b9150612f8e82612f27565b604082019050919050565b60006020820190508181036000830152612fb281612f76565b9050919050565b7f4e487b7100000000000000000000000000000000000000000000000000000000600052603260045260246000fd5b7f4552433732313a20696e76616c696420746f6b656e2049440000000000000000600082015250565b600061301e60188361252b565b915061302982612fe8565b602082019050919050565b6000602082019050818103600083015261304d81613011565b9050919050565b7f4552433732313a2061646472657373207a65726f206973206e6f74206120766160008201527f6c6964206f776e65720000000000000000000000000000000000000000000000602082015250565b60006130b060298361252b565b91506130bb82613054565b604082019050919050565b600060208201905081810360008301526130df816130a3565b9050919050565b7f4f776e61626c653a206e6577206f776e657220697320746865207a65726f206160008201527f6464726573730000000000000000000000000000000000000000000000000000602082015250565b600061314260268361252b565b915061314d826130e6565b604082019050919050565b6000602082019050818103600083015261317181613135565b9050919050565b7f4552433732313a207472616e736665722066726f6d20696e636f72726563742060008201527f6f776e6572000000000000000000000000000000000000000000000000000000602082015250565b60006131d460258361252b565b91506131df82613178565b604082019050919050565b60006020820190508181036000830152613203816131c7565b9050919050565b7f4552433732313a207472616e7366657220746f20746865207a65726f2061646460008201527f7265737300000000000000000000000000000000000000000000000000000000602082015250565b600061326660248361252b565b91506132718261320a565b604082019050919050565b6000602082019050818103600083015261329581613259565b9050919050565b7f4e487b7100000000000000000000000000000000000000000000000000000000600052601160045260246000fd5b60006132d6826125d2565b91506132e1836125d2565b92508282039050818111156132f9576132f861329c565b5b92915050565b600061330a826125d2565b9150613315836125d2565b925082820190508082111561332d5761332c61329c565b5b92915050565b7f496e697469616c697a61626c653a20636f6e7472616374206973206e6f74206960008201527f6e697469616c697a696e67000000000000000000000000000000000000000000602082015250565b600061338f602b8361252b565b915061339a82613333565b604082019050919050565b600060208201905081810360008301526133be81613382565b9050919050565b7f4f776e61626c653a2063616c6c6572206973206e6f7420746865206f776e6572600082015250565b60006133fb60208361252b565b9150613406826133c5565b602082019050919050565b6000602082019050818103600083015261342a816133ee565b9050919050565b7f4552433732313a20617070726f766520746f2063616c6c657200000000000000600082015250565b600061346760198361252b565b915061347282613431565b602082019050919050565b600060208201905081810360008301526134968161345a565b9050919050565b7f4552433732313a207472616e7366657220746f206e6f6e20455243373231526560008201527f63656976657220696d706c656d656e7465720000000000000000000000000000602082015250565b60006134f960328361252b565b91506135048261349d565b604082019050919050565b60006020820190508181036000830152613528816134ec565b9050919050565b600081905092915050565b600061354582612520565b61354f818561352f565b935061355f81856020860161253c565b80840191505092915050565b6000613577828561353a565b9150613583828461353a565b91508190509392505050565b7f45524337323155524953746f726167653a2055524920736574206f66206e6f6e60008201527f6578697374656e7420746f6b656e000000000000000000000000000000000000602082015250565b60006135eb602e8361252b565b91506135f68261358f565b604082019050919050565b6000602082019050818103600083015261361a816135de565b9050919050565b60008190508160005260206000209050919050565b60006020601f8301049050919050565b600082821b905092915050565b6000600883026136837fffffffffffffffffffffffffffffffffffffffffffffffffffffffffffffffff82613646565b61368d8683613646565b95508019841693508086168417925050509392505050565b60006136c06136bb6136b6846125d2565b612ed1565b6125d2565b9050919050565b6000819050919050565b6136da836136a5565b6136ee6136e6826136c7565b848454613653565b825550505050565b600090565b6137036136f6565b61370e8184846136d1565b505050565b5b81811015613732576137276000826136fb565b600181019050613714565b5050565b601f8211156137775761374881613621565b61375184613636565b81016020851015613760578190505b61377461376c85613636565b830182613713565b50505b505050565b600082821c905092915050565b600061379a6000198460080261377c565b1980831691505092915050565b60006137b38383613789565b9150826002028217905092915050565b6137cc82612520565b67ffffffffffffffff8111156137e5576137e4612784565b5b6137ef8254612baf565b6137fa828285613736565b600060209050601f83116001811461382d576000841561381b578287015190505b61382585826137a7565b86555061388d565b601f19841661383b86613621565b60005b828110156138635784890151825560018201915060208501945060208101905061383e565b86831015613880578489015161387c601f891682613789565b8355505b6001600288020188555050505b505050505050565b600081519050919050565b600082825260208201905092915050565b60006138bc82613895565b6138c681856138a0565b93506138d681856020860161253c565b6138df81612566565b840191505092915050565b60006080820190506138ff6000830187612667565b61390c6020830186612667565b61391960408301856126fd565b818103606083015261392b81846138b1565b905095945050505050565b60008151905061394581612491565b92915050565b6000602082840312156139615761396061245b565b5b600061396f84828501613936565b91505092915050565b6000613983826125d2565b91507fffffffffffffffffffffffffffffffffffffffffffffffffffffffffffffffff82036139b5576139b461329c565b5b600182019050919050565b7f4e487b7100000000000000000000000000000000000000000000000000000000600052601260045260246000fd5b60006139fa826125d2565b9150613a05836125d2565b925082613a1557613a146139c0565b5b828204905092915050565b6000613a2b826125d2565b9150613a36836125d2565b925082613a4657613a456139c0565b5b828206905092915050565b7f4552433732313a206d696e7420746f20746865207a65726f2061646472657373600082015250565b6000613a8760208361252b565b9150613a9282613a51565b602082019050919050565b60006020820190508181036000830152613ab681613a7a565b9050919050565b7f4552433732313a20746f6b656e20616c7265616479206d696e74656400000000600082015250565b6000613af3601c8361252b565b9150613afe82613abd565b602082019050919050565b60006020820190508181036000830152613b2281613ae6565b9050919050565b7f4e487b7100000000000000000000000000000000000000000000000000000000600052603160045260246000fdfea26469706673582212204524bd79b6e7a6ae231dac549c0c51d624c5e4f1af99f21a19b8ebcfcb797e5e64736f6c63430008100033",
    "immutableReferences": {},
    "source": "// SPDX-License-Identifier: MIT\npragma solidity ^0.8.14;\n\nimport \"@openzeppelin/contracts-upgradeable/token/ERC721/ERC721Upgradeable.sol\";\nimport \"@openzeppelin/contracts-upgradeable/token/ERC721/extensions/ERC721EnumerableUpgradeable.sol\";\nimport \"@openzeppelin/contracts-upgradeable/token/ERC721/extensions/ERC721URIStorageUpgradeable.sol\";\nimport \"@openzeppelin/contracts-upgradeable/access/OwnableUpgradeable.sol\";\nimport \"@openzeppelin/contracts-upgradeable/proxy/utils/Initializable.sol\";\nimport \"@openzeppelin/contracts-upgradeable/utils/CountersUpgradeable.sol\";\n\ncontract UpgradableGenericNFT is Initializable, ERC721Upgradeable, ERC721EnumerableUpgradeable, ERC721URIStorageUpgradeable, OwnableUpgradeable {\n    using CountersUpgradeable for CountersUpgradeable.Counter;\n\n    CountersUpgradeable.Counter private _tokenIdCounter;\n\n    function initialize(string memory tokenName, string memory symbol) initializer public {\n        __ERC721_init(tokenName, symbol);\n        __ERC721Enumerable_init();\n        __ERC721URIStorage_init();\n        __Ownable_init();\n    }\n\n    function safeMint(address to, string memory uri) public onlyOwner {\n        uint256 tokenId = _tokenIdCounter.current();\n        _tokenIdCounter.increment();\n        _safeMint(to, tokenId);\n        _setTokenURI(tokenId, uri);\n    }\n\n    // The following functions are overrides required by Solidity.\n\n    function _beforeTokenTransfer(address from, address to, uint256 tokenId)\n    internal\n    override(ERC721Upgradeable, ERC721EnumerableUpgradeable)\n    {\n        super._beforeTokenTransfer(from, to, tokenId);\n    }\n\n    function _burn(uint256 tokenId)\n    internal\n    override(ERC721Upgradeable, ERC721URIStorageUpgradeable)\n    {\n        super._burn(tokenId);\n    }\n\n    function tokenURI(uint256 tokenId)\n    public\n    view\n    override(ERC721Upgradeable, ERC721URIStorageUpgradeable)\n    returns (string memory)\n    {\n        return super.tokenURI(tokenId);\n    }\n\n    function supportsInterface(bytes4 interfaceId)\n    public\n    view\n    override(ERC721Upgradeable, ERC721EnumerableUpgradeable)\n    returns (bool)\n    {\n        return super.supportsInterface(interfaceId);\n    }\n}\n",
    "sourcePath": "/Users/adrien/Alyra/opensea-clone/contracts/NFT/UpgradableGenericNFT.sol",
    "compiler": {
        "name": "solc",
        "version": "0.8.16+commit.07a7930e.Emscripten.clang"
    },
    "schemaVersion": "3.4.3",
    "updatedAt": "2022-08-14T12:36:31.536Z",
    "devdoc": {
        "kind": "dev",
        "methods": {
            "approve(address,uint256)": {
                "details": "See {IERC721-approve}."
            },
            "balanceOf(address)": {
                "details": "See {IERC721-balanceOf}."
            },
            "getApproved(uint256)": {
                "details": "See {IERC721-getApproved}."
            },
            "isApprovedForAll(address,address)": {
                "details": "See {IERC721-isApprovedForAll}."
            },
            "name()": {
                "details": "See {IERC721Metadata-name}."
            },
            "owner()": {
                "details": "Returns the address of the current owner."
            },
            "ownerOf(uint256)": {
                "details": "See {IERC721-ownerOf}."
            },
            "renounceOwnership()": {
                "details": "Leaves the contract without owner. It will not be possible to call `onlyOwner` functions anymore. Can only be called by the current owner. NOTE: Renouncing ownership will leave the contract without an owner, thereby removing any functionality that is only available to the owner."
            },
            "safeTransferFrom(address,address,uint256)": {
                "details": "See {IERC721-safeTransferFrom}."
            },
            "safeTransferFrom(address,address,uint256,bytes)": {
                "details": "See {IERC721-safeTransferFrom}."
            },
            "setApprovalForAll(address,bool)": {
                "details": "See {IERC721-setApprovalForAll}."
            },
            "symbol()": {
                "details": "See {IERC721Metadata-symbol}."
            },
            "tokenByIndex(uint256)": {
                "details": "See {IERC721Enumerable-tokenByIndex}."
            },
            "tokenOfOwnerByIndex(address,uint256)": {
                "details": "See {IERC721Enumerable-tokenOfOwnerByIndex}."
            },
            "totalSupply()": {
                "details": "See {IERC721Enumerable-totalSupply}."
            },
            "transferFrom(address,address,uint256)": {
                "details": "See {IERC721-transferFrom}."
            },
            "transferOwnership(address)": {
                "details": "Transfers ownership of the contract to a new account (`newOwner`). Can only be called by the current owner."
            }
        },
        "version": 1
    },
    "userdoc": {
        "kind": "user",
        "methods": {},
        "version": 1
    }
}